{
  "_format": "hh-sol-artifact-1",
  "contractName": "FarmGenerator",
  "sourceName": "contracts/FarmGenerator.sol",
  "abi": [
    {
      "inputs": [
        {
          "internalType": "contract IFactory",
          "name": "_factory",
          "type": "address"
        },
        {
          "internalType": "contract IUniFactory",
          "name": "_uniswapFactory",
          "type": "address"
        }
      ],
      "stateMutability": "nonpayable",
      "type": "constructor"
    },
    {
      "anonymous": false,
      "inputs": [
        {
          "indexed": true,
          "internalType": "address",
          "name": "previousOwner",
          "type": "address"
        },
        {
          "indexed": true,
          "internalType": "address",
          "name": "newOwner",
          "type": "address"
        }
      ],
      "name": "OwnershipTransferred",
      "type": "event"
    },
    {
      "inputs": [
        {
          "internalType": "address",
          "name": "_signer",
          "type": "address"
        },
        {
          "internalType": "address",
          "name": "_token",
          "type": "address"
        },
        {
          "internalType": "uint256",
          "name": "_amount",
          "type": "uint256"
        },
        {
          "internalType": "string",
          "name": "_code",
          "type": "string"
        }
      ],
      "name": "claimReferral",
      "outputs": [],
      "stateMutability": "nonpayable",
      "type": "function"
    },
    {
      "inputs": [
        {
          "internalType": "contract IERC20",
          "name": "_rewardToken",
          "type": "address"
        },
        {
          "internalType": "uint256",
          "name": "_amount",
          "type": "uint256"
        },
        {
          "internalType": "contract IERC20",
          "name": "_lpToken",
          "type": "address"
        },
        {
          "internalType": "uint256",
          "name": "_blockReward",
          "type": "uint256"
        },
        {
          "internalType": "uint256",
          "name": "_startBlock",
          "type": "uint256"
        },
        {
          "internalType": "uint256",
          "name": "_bonusEndBlock",
          "type": "uint256"
        },
        {
          "internalType": "uint256",
          "name": "_bonus",
          "type": "uint256"
        },
        {
          "internalType": "bool",
          "name": "_withReferral",
          "type": "bool"
        }
      ],
      "name": "createFarm",
      "outputs": [
        {
          "internalType": "address",
          "name": "",
          "type": "address"
        }
      ],
      "stateMutability": "payable",
      "type": "function"
    },
    {
      "inputs": [
        {
          "internalType": "uint256",
          "name": "_amount",
          "type": "uint256"
        },
        {
          "internalType": "uint256",
          "name": "_startBlock",
          "type": "uint256"
        },
        {
          "internalType": "uint256",
          "name": "_bonusEndBlock",
          "type": "uint256"
        },
        {
          "internalType": "uint256",
          "name": "_bonus",
          "type": "uint256"
        },
        {
          "internalType": "uint256",
          "name": "_endBlock",
          "type": "uint256"
        }
      ],
      "name": "determineBlockReward",
      "outputs": [
        {
          "internalType": "uint256",
          "name": "",
          "type": "uint256"
        },
        {
          "internalType": "uint256",
          "name": "",
          "type": "uint256"
        },
        {
          "internalType": "uint256",
          "name": "",
          "type": "uint256"
        }
      ],
      "stateMutability": "view",
      "type": "function"
    },
    {
      "inputs": [
        {
          "internalType": "uint256",
          "name": "_amount",
          "type": "uint256"
        },
        {
          "internalType": "uint256",
          "name": "_blockReward",
          "type": "uint256"
        },
        {
          "internalType": "uint256",
          "name": "_startBlock",
          "type": "uint256"
        },
        {
          "internalType": "uint256",
          "name": "_bonusEndBlock",
          "type": "uint256"
        },
        {
          "internalType": "uint256",
          "name": "_bonus",
          "type": "uint256"
        },
        {
          "internalType": "bool",
          "name": "_withReferral",
          "type": "bool"
        }
      ],
      "name": "determineEndBlock",
      "outputs": [
        {
          "internalType": "uint256",
          "name": "",
          "type": "uint256"
        },
        {
          "internalType": "uint256",
          "name": "",
          "type": "uint256"
        },
        {
          "internalType": "uint256",
          "name": "",
          "type": "uint256"
        },
        {
          "internalType": "uint256",
          "name": "",
          "type": "uint256"
        }
      ],
      "stateMutability": "view",
      "type": "function"
    },
    {
      "inputs": [],
      "name": "factory",
      "outputs": [
        {
          "internalType": "contract IFactory",
          "name": "",
          "type": "address"
        }
      ],
      "stateMutability": "view",
      "type": "function"
    },
    {
      "inputs": [],
      "name": "gFees",
      "outputs": [
        {
          "internalType": "contract IERCBurn",
          "name": "gasToken",
          "type": "address"
        },
        {
          "internalType": "bool",
          "name": "useGasToken",
          "type": "bool"
        },
        {
          "internalType": "uint256",
          "name": "gasFee",
          "type": "uint256"
        },
        {
          "internalType": "uint256",
          "name": "ethFee",
          "type": "uint256"
        },
        {
          "internalType": "uint256",
          "name": "tokenFee",
          "type": "uint256"
        },
        {
          "internalType": "uint256",
          "name": "referralFee",
          "type": "uint256"
        }
      ],
      "stateMutability": "view",
      "type": "function"
    },
    {
      "inputs": [
        {
          "internalType": "bytes32",
          "name": "_messageHash",
          "type": "bytes32"
        }
      ],
      "name": "getEthSignedMessageHash",
      "outputs": [
        {
          "internalType": "bytes32",
          "name": "",
          "type": "bytes32"
        }
      ],
      "stateMutability": "pure",
      "type": "function"
    },
    {
      "inputs": [
        {
          "internalType": "address",
          "name": "_signer",
          "type": "address"
        },
        {
          "internalType": "address",
          "name": "_token",
          "type": "address"
        },
        {
          "internalType": "uint256",
          "name": "_amount",
          "type": "uint256"
        },
        {
          "internalType": "string",
          "name": "_code",
          "type": "string"
        }
      ],
      "name": "getMessageHash",
      "outputs": [
        {
          "internalType": "bytes32",
          "name": "",
          "type": "bytes32"
        }
      ],
      "stateMutability": "pure",
      "type": "function"
    },
    {
      "inputs": [],
      "name": "owner",
      "outputs": [
        {
          "internalType": "address",
          "name": "",
          "type": "address"
        }
      ],
      "stateMutability": "view",
      "type": "function"
    },
    {
      "inputs": [
        {
          "internalType": "bytes32",
          "name": "_ethSignedMessageHash",
          "type": "bytes32"
        },
        {
          "internalType": "bytes",
          "name": "_signature",
          "type": "bytes"
        }
      ],
      "name": "recoverSigner",
      "outputs": [
        {
          "internalType": "address",
          "name": "",
          "type": "address"
        }
      ],
      "stateMutability": "pure",
      "type": "function"
    },
    {
      "inputs": [
        {
          "internalType": "address",
          "name": "",
          "type": "address"
        },
        {
          "internalType": "address",
          "name": "",
          "type": "address"
        }
      ],
      "name": "referralFund",
      "outputs": [
        {
          "internalType": "uint256",
          "name": "",
          "type": "uint256"
        }
      ],
      "stateMutability": "view",
      "type": "function"
    },
    {
      "inputs": [],
      "name": "renounceOwnership",
      "outputs": [],
      "stateMutability": "nonpayable",
      "type": "function"
    },
    {
      "inputs": [
        {
          "internalType": "address payable",
          "name": "_devaddr",
          "type": "address"
        }
      ],
      "name": "setDev",
      "outputs": [],
      "stateMutability": "nonpayable",
      "type": "function"
    },
    {
      "inputs": [
        {
          "internalType": "uint256",
          "name": "_amount",
          "type": "uint256"
        }
      ],
      "name": "setEthFee",
      "outputs": [],
      "stateMutability": "nonpayable",
      "type": "function"
    },
    {
      "inputs": [
        {
          "internalType": "uint256",
          "name": "_amount",
          "type": "uint256"
        }
      ],
      "name": "setGasFee",
      "outputs": [],
      "stateMutability": "nonpayable",
      "type": "function"
    },
    {
      "inputs": [
        {
          "internalType": "contract IERCBurn",
          "name": "_gasToken",
          "type": "address"
        }
      ],
      "name": "setGasToken",
      "outputs": [],
      "stateMutability": "nonpayable",
      "type": "function"
    },
    {
      "inputs": [
        {
          "internalType": "bool",
          "name": "_useGasToken",
          "type": "bool"
        }
      ],
      "name": "setRequireGasToken",
      "outputs": [],
      "stateMutability": "nonpayable",
      "type": "function"
    },
    {
      "inputs": [
        {
          "internalType": "uint256",
          "name": "_amount",
          "type": "uint256"
        }
      ],
      "name": "setTokenFee",
      "outputs": [],
      "stateMutability": "nonpayable",
      "type": "function"
    },
    {
      "inputs": [
        {
          "internalType": "bytes",
          "name": "sig",
          "type": "bytes"
        }
      ],
      "name": "splitSignature",
      "outputs": [
        {
          "internalType": "bytes32",
          "name": "r",
          "type": "bytes32"
        },
        {
          "internalType": "bytes32",
          "name": "s",
          "type": "bytes32"
        },
        {
          "internalType": "uint8",
          "name": "v",
          "type": "uint8"
        }
      ],
      "stateMutability": "pure",
      "type": "function"
    },
    {
      "inputs": [
        {
          "internalType": "address",
          "name": "_receiver",
          "type": "address"
        },
        {
          "internalType": "bytes",
          "name": "signature",
          "type": "bytes"
        }
      ],
      "name": "storeSignature",
      "outputs": [],
      "stateMutability": "nonpayable",
      "type": "function"
    },
    {
      "inputs": [
        {
          "internalType": "address",
          "name": "newOwner",
          "type": "address"
        }
      ],
      "name": "transferOwnership",
      "outputs": [],
      "stateMutability": "nonpayable",
      "type": "function"
    },
    {
      "inputs": [],
      "name": "uniswapFactory",
      "outputs": [
        {
          "internalType": "contract IUniFactory",
          "name": "",
          "type": "address"
        }
      ],
      "stateMutability": "view",
      "type": "function"
    }
  ],
  "bytecode": "0x60806040523480156200001157600080fd5b50604051620030b8380380620030b88339810160408190526200003491620000ed565b6200003f3362000084565b600180546001600160a01b039384166001600160a01b03199182161790915560038054821633179055603260095560028054929093169116179055600a80556200012c565b600080546001600160a01b038381166001600160a01b0319831681178455604051919092169283917f8be0079c531659141344cd1fd0a4f28419497f9722a3daafe3b4186f6b6457e09190a35050565b6001600160a01b0381168114620000ea57600080fd5b50565b600080604083850312156200010157600080fd5b82516200010e81620000d4565b60208401519092506200012181620000d4565b809150509250929050565b612f7c806200013c6000396000f3fe6080604052600436106200014f5760003560e01c80638da5cb5b11620000b9578063d477f05f1162000078578063d477f05f146200045b578063e02123e11462000480578063e6f1fca614620004bc578063f2eb6b5f14620004e1578063f2fde38b1462000506578063fa540801146200052b57600080fd5b80638da5cb5b146200033857806390e1a003146200035857806397aba7f914620003d0578063a7bb580314620003f5578063c45a0155146200043957600080fd5b8063678edca31162000112578063678edca31462000222578063715018a6146200024757806371c4f07c146200025f57806381f46839146200028f5780638bdb2afa14620002d55780638c40b59014620002f757600080fd5b80631e9f8aad146200015457806331b31b88146200017b5780633f6738a914620001a0578063541375df14620001c557806356c124c814620001fd575b600080fd5b3480156200016157600080fd5b50620001796200017336600462001800565b62000550565b005b3480156200018857600080fd5b50620001796200019a36600462001820565b6200057c565b348015620001ad57600080fd5b5062000179620001bf36600462001820565b6200058b565b348015620001d257600080fd5b50620001ea620001e4366004620018cd565b6200059a565b6040519081526020015b60405180910390f35b3480156200020a57600080fd5b50620001796200021c366004620018cd565b620005d5565b3480156200022f57600080fd5b50620001796200024136600462001820565b620007da565b3480156200025457600080fd5b5062000179620007e9565b620002766200027036600462001965565b62000801565b6040516001600160a01b039091168152602001620001f4565b3480156200029c57600080fd5b50620002b4620002ae366004620019e8565b62000e78565b604080519485526020850193909352918301526060820152608001620001f4565b348015620002e257600080fd5b5060025462000276906001600160a01b031681565b3480156200030457600080fd5b506200031c6200031636600462001a40565b6200101b565b60408051938452602084019290925290820152606001620001f4565b3480156200034557600080fd5b506000546001600160a01b031662000276565b3480156200036557600080fd5b50600654600754600854600954600a5462000398946001600160a01b03811694600160a01b90910460ff16939092909186565b604080516001600160a01b0390971687529415156020870152938501929092526060840152608083015260a082015260c001620001f4565b348015620003dd57600080fd5b5062000276620003ef36600462001a9f565b620010e4565b3480156200040257600080fd5b506200041a6200041436600462001aea565b62001166565b60408051938452602084019290925260ff1690820152606001620001f4565b3480156200044657600080fd5b5060015462000276906001600160a01b031681565b3480156200046857600080fd5b50620001796200047a36600462001800565b620011dc565b3480156200048d57600080fd5b50620001ea6200049f36600462001b23565b600460209081526000928352604080842090915290825290205481565b348015620004c957600080fd5b5062000179620004db36600462001b61565b62001208565b348015620004ee57600080fd5b50620001796200050036600462001b9f565b62001238565b3480156200051357600080fd5b50620001796200052536600462001800565b62001260565b3480156200053857600080fd5b50620001ea6200054a36600462001820565b620012df565b6200055a62001332565b600680546001600160a01b0319166001600160a01b0392909216919091179055565b6200058662001332565b600955565b6200059562001332565b600855565b600084848484604051602001620005b5949392919062001bee565b604051602081830303815290604052805190602001209050949350505050565b6000620005e5858585856200059a565b90506000620005f482620012df565b33600090815260056020526040902080549192506001600160a01b03881691620006af918491620006259062001c3d565b80601f0160208091040260200160405190810160405280929190818152602001828054620006539062001c3d565b8015620006a45780601f106200067857610100808354040283529160200191620006a4565b820191906000526020600020905b8154815290600101906020018083116200068657829003601f168201915b5050505050620010e4565b6001600160a01b031614620006fe5760405162461bcd60e51b815260206004820152601060248201526f2cb7ba903234b23713ba1039b4b3b71760811b60448201526064015b60405180910390fd5b6001600160a01b03808716600090815260046020908152604080832093891683529290522054841115620007665760405162461bcd60e51b815260206004820152600e60248201526d125b9d985b1a5908185b5bdd5b9d60921b6044820152606401620006f5565b6001600160a01b038087166000908152600460209081526040808320938916835292905220546200079890856200138e565b6001600160a01b038088166000908152600460209081526040808320938a1680845293909152902091909155620007d290303387620013a3565b505050505050565b620007e462001332565b600755565b620007f362001332565b620007ff600062001405565b565b60004385116200083c5760405162461bcd60e51b815260206004820152600560248201526414d510549560da1b6044820152606401620006f5565b60008311620008765760405162461bcd60e51b8152602060048201526005602482015264424f4e555360d81b6044820152606401620006f5565b6001600160a01b038916620008b65760405162461bcd60e51b81526020600482015260056024820152642a27a5a2a760d91b6044820152606401620006f5565b6103e88611620008ee5760405162461bcd60e51b8152602060048201526002602482015261212960f11b6044820152606401620006f5565b60025460408051630dfe168160e01b8152905189926000926001600160a01b039182169263e6a4390592861691630dfe1681916004808301926020929190829003018186803b1580156200094157600080fd5b505afa15801562000956573d6000803e3d6000fd5b505050506040513d601f19601f820116820180604052508101906200097c919062001c7a565b846001600160a01b031663d21220a76040518163ffffffff1660e01b815260040160206040518083038186803b158015620009b657600080fd5b505afa158015620009cb573d6000803e3d6000fd5b505050506040513d601f19601f82011682018060405250810190620009f1919062001c7a565b6040516001600160e01b031960e085901b1681526001600160a01b0392831660048201529116602482015260440160206040518083038186803b15801562000a3857600080fd5b505afa15801562000a4d573d6000803e3d6000fd5b505050506040513d601f19601f8201168201806040525081019062000a73919062001c7a565b9050886001600160a01b0316816001600160a01b03161462000ad85760405162461bcd60e51b815260206004820152601b60248201527f546869732070616972206973206e6f74206f6e20756e697377617000000000006044820152606401620006f5565b62000ae2620016ea565b62000af28b8a8a8a8a8a62000e78565b610100850181905260e085019190915260c0840182905260a084019290925262000b41913391309162000b26919062001455565b8f6001600160a01b0316620013a3909392919063ffffffff16565b60035460e082015162000b67916001600160a01b038f81169233929190911690620013a3565b62000bc981610100015160046000336001600160a01b03166001600160a01b0316815260200190815260200160002060008f6001600160a01b03166001600160a01b03168152602001908152602001600020546200145590919063ffffffff16565b60046000336001600160a01b03166001600160a01b0316815260200190815260200160002060008e6001600160a01b03166001600160a01b03168152602001908152602001600020819055506000600160009054906101000a90046001600160a01b03163060405162000c3c9062001736565b6001600160a01b03928316815291166020820152604001604051809103906000f08015801562000c70573d6000803e3d6000fd5b5060c08301516040516323b872dd60e01b81523360048201526001600160a01b03808416602483015260448201929092529192508e16906323b872dd90606401602060405180830381600087803b15801562000ccb57600080fd5b505af115801562000ce0573d6000803e3d6000fd5b505050506040513d601f19601f8201168201806040525081019062000d06919062001c9a565b62000d4d5760405162461bcd60e51b81526020600482015260166024820152752a37b5b2b7103a3930b739b332b9103330b4b632b21760511b6044820152606401620006f5565b806001600160a01b031663b20268c28e8460c001518e8e8e8860a001518f8f6040518963ffffffff1660e01b815260040162000dd29897969594939291906001600160a01b03988916815260208101979097529490961660408601526060850192909252608084015260a083015260c082019290925260e08101919091526101000190565b600060405180830381600087803b15801562000ded57600080fd5b505af115801562000e02573d6000803e3d6000fd5b505060015460405163edcd5d1760e01b81526001600160a01b038581166004830152909116925063edcd5d179150602401600060405180830381600087803b15801562000e4e57600080fd5b505af115801562000e63573d6000803e3d6000fd5b50929f9e505050505050505050505050505050565b60008060008062000e88620016ea565b60095462000ea8906103e89062000ea1908e9062001463565b9062001471565b80825262000eb8908c906200138e565b602082015262000ec9888a6200138e565b6040820181905262000eea908b9062000ee3908a62001463565b9062001463565b60608201819052602082015162000f08918c9162000ea1916200138e565b60808201819052604082015162000f2e918b9162000f27919062001455565b9062001455565b60a0820181905260009062000f44908a6200138e565b9050600062000f668262000f278b86604001516200146390919063ffffffff16565b9050600062000f768d8362001463565b9050881562000fd85760a0840151600a54600954839162000fad916103e89162000ea19162000fa5916200138e565b869062001463565b600a5462000fc6906103e89062000ea190879062001463565b9750975097509750505050506200100e565b8360a001518162000fff6103e862000ea1600660030154866200146390919063ffffffff16565b60009750975097509750505050505b9650965096509692505050565b600080600080620010426103e862000ea16006600301548c6200146390919063ffffffff16565b90506000620010528a836200138e565b9050600062001062898b6200138e565b9050600062001072888b6200138e565b90506000620010878262000f27858d62001463565b9050600062001097858362001471565b90506000620010a7828462001463565b90508181620010cc6103e862000ea1600660030154866200146390919063ffffffff16565b99509950995050505050505050955095509592505050565b600080600080620010f58562001166565b6040805160008152602081018083528b905260ff8316918101919091526060810184905260808101839052929550909350915060019060a0016020604051602081039080840390855afa15801562001151573d6000803e3d6000fd5b5050604051601f190151979650505050505050565b60008060008351604114620011be5760405162461bcd60e51b815260206004820152601860248201527f696e76616c6964207369676e6174757265206c656e67746800000000000000006044820152606401620006f5565b50505060208101516040820151606090920151909260009190911a90565b620011e662001332565b600380546001600160a01b0319166001600160a01b0392909216919091179055565b6001600160a01b03821660009081526005602090815260409091208251620012339284019062001744565b505050565b6200124262001332565b60068054911515600160a01b0260ff60a01b19909216919091179055565b6200126a62001332565b6001600160a01b038116620012d15760405162461bcd60e51b815260206004820152602660248201527f4f776e61626c653a206e6577206f776e657220697320746865207a65726f206160448201526564647265737360d01b6064820152608401620006f5565b620012dc8162001405565b50565b6040517f19457468657265756d205369676e6564204d6573736167653a0a3332000000006020820152603c8101829052600090605c01604051602081830303815290604052805190602001209050919050565b6000546001600160a01b03163314620007ff5760405162461bcd60e51b815260206004820181905260248201527f4f776e61626c653a2063616c6c6572206973206e6f7420746865206f776e65726044820152606401620006f5565b60006200139c828462001cd0565b9392505050565b604080516001600160a01b0385811660248301528416604482015260648082018490528251808303909101815260849091019091526020810180516001600160e01b03166323b872dd60e01b179052620013ff9085906200147f565b50505050565b600080546001600160a01b038381166001600160a01b0319831681178455604051919092169283917f8be0079c531659141344cd1fd0a4f28419497f9722a3daafe3b4186f6b6457e09190a35050565b60006200139c828462001cea565b60006200139c828462001d05565b60006200139c828462001d27565b6000620014d6826040518060400160405280602081526020017f5361666545524332303a206c6f772d6c6576656c2063616c6c206661696c6564815250856001600160a01b0316620015589092919063ffffffff16565b805190915015620012335780806020019051810190620014f7919062001c9a565b620012335760405162461bcd60e51b815260206004820152602a60248201527f5361666545524332303a204552433230206f7065726174696f6e20646964206e6044820152691bdd081cdd58d8d9595960b21b6064820152608401620006f5565b606062001569848460008562001571565b949350505050565b606082471015620015d45760405162461bcd60e51b815260206004820152602660248201527f416464726573733a20696e73756666696369656e742062616c616e636520666f6044820152651c8818d85b1b60d21b6064820152608401620006f5565b6001600160a01b0385163b6200162d5760405162461bcd60e51b815260206004820152601d60248201527f416464726573733a2063616c6c20746f206e6f6e2d636f6e74726163740000006044820152606401620006f5565b600080866001600160a01b031685876040516200164b919062001d4a565b60006040518083038185875af1925050503d80600081146200168a576040519150601f19603f3d011682016040523d82523d6000602084013e6200168f565b606091505b5091509150620016a1828286620016ac565b979650505050505050565b60608315620016bd5750816200139c565b825115620016ce5782518084602001fd5b8160405162461bcd60e51b8152600401620006f5919062001d68565b6040518061012001604052806000815260200160008152602001600081526020016000815260200160008152602001600081526020016000815260200160008152602001600081525090565b6111a98062001d9e83390190565b828054620017529062001c3d565b90600052602060002090601f016020900481019282620017765760008555620017c1565b82601f106200179157805160ff1916838001178555620017c1565b82800160010185558215620017c1579182015b82811115620017c1578251825591602001919060010190620017a4565b50620017cf929150620017d3565b5090565b5b80821115620017cf5760008155600101620017d4565b6001600160a01b0381168114620012dc57600080fd5b6000602082840312156200181357600080fd5b81356200139c81620017ea565b6000602082840312156200183357600080fd5b5035919050565b634e487b7160e01b600052604160045260246000fd5b600067ffffffffffffffff808411156200186e576200186e6200183a565b604051601f8501601f19908116603f011681019082821181831017156200189957620018996200183a565b81604052809350858152868686011115620018b357600080fd5b858560208301376000602087830101525050509392505050565b60008060008060808587031215620018e457600080fd5b8435620018f181620017ea565b935060208501356200190381620017ea565b925060408501359150606085013567ffffffffffffffff8111156200192757600080fd5b8501601f810187136200193957600080fd5b6200194a8782356020840162001850565b91505092959194509250565b8015158114620012dc57600080fd5b600080600080600080600080610100898b0312156200198357600080fd5b88356200199081620017ea565b9750602089013596506040890135620019a981620017ea565b9550606089013594506080890135935060a0890135925060c0890135915060e0890135620019d78162001956565b809150509295985092959890939650565b60008060008060008060c0878903121562001a0257600080fd5b863595506020870135945060408701359350606087013592506080870135915060a087013562001a328162001956565b809150509295509295509295565b600080600080600060a0868803121562001a5957600080fd5b505083359560208501359550604085013594606081013594506080013592509050565b600082601f83011262001a8e57600080fd5b6200139c8383356020850162001850565b6000806040838503121562001ab357600080fd5b82359150602083013567ffffffffffffffff81111562001ad257600080fd5b62001ae08582860162001a7c565b9150509250929050565b60006020828403121562001afd57600080fd5b813567ffffffffffffffff81111562001b1557600080fd5b620015698482850162001a7c565b6000806040838503121562001b3757600080fd5b823562001b4481620017ea565b9150602083013562001b5681620017ea565b809150509250929050565b6000806040838503121562001b7557600080fd5b823562001b8281620017ea565b9150602083013567ffffffffffffffff81111562001ad257600080fd5b60006020828403121562001bb257600080fd5b81356200139c8162001956565b60005b8381101562001bdc57818101518382015260200162001bc2565b83811115620013ff5750506000910152565b60006bffffffffffffffffffffffff19808760601b168352808660601b16601484015250836028830152825162001c2d81604885016020870162001bbf565b9190910160480195945050505050565b600181811c9082168062001c5257607f821691505b6020821081141562001c7457634e487b7160e01b600052602260045260246000fd5b50919050565b60006020828403121562001c8d57600080fd5b81516200139c81620017ea565b60006020828403121562001cad57600080fd5b81516200139c8162001956565b634e487b7160e01b600052601160045260246000fd5b60008282101562001ce55762001ce562001cba565b500390565b6000821982111562001d005762001d0062001cba565b500190565b600081600019048311821515161562001d225762001d2262001cba565b500290565b60008262001d4557634e487b7160e01b600052601260045260246000fd5b500490565b6000825162001d5e81846020870162001bbf565b9190910192915050565b602081526000825180602084015262001d8981604085016020870162001bbf565b601f01601f1916919091016040019291505056fe6080604052600160005534801561001557600080fd5b506040516111a93803806111a983398101604081905261003491610081565b600180546001600160a01b039384166001600160a01b031991821617909155600280549290931691161790556100b4565b80516001600160a01b038116811461007c57600080fd5b919050565b6000806040838503121561009457600080fd5b61009d83610065565b91506100ab60208401610065565b90509250929050565b6110e6806100c36000396000f3fe608060405234801561001057600080fd5b50600436106100b45760003560e01c8063b20268c211610071578063b20268c214610200578063b6b55f2514610213578063c45a015514610226578063db2e21bc14610239578063e3161ddd14610241578063f40f0f521461024957600080fd5b80631959a002146100b95780631d49d66c146100fa5780632dd99996146101965780632e1a7d4d146101c15780632ebed9ec146101d65780638dbb1e3a146101ed575b600080fd5b6100e06100c7366004610e7c565b600e602052600090815260409020805460019091015482565b604080519283526020830191909152015b60405180910390f35b600354600454600554600654600754600854600954600a54600b54600c54600d546101389a6001600160a01b039081169a169897969594939291908b565b604080516001600160a01b039c8d1681529b909a1660208c0152988a01979097526060890195909552608088019390935260a087019190915260c086015260e0850152610100840152610120830152610140820152610160016100f1565b6002546101a9906001600160a01b031681565b6040516001600160a01b0390911681526020016100f1565b6101d46101cf366004610e99565b61025c565b005b6101df60005481565b6040519081526020016100f1565b6101df6101fb366004610eb2565b610405565b6101d461020e366004610ed4565b6104ab565b6101d4610221366004610e99565b61056b565b6001546101a9906001600160a01b031681565b6101d46106cb565b6101d46107b3565b6101df610257366004610e7c565b6108be565b336000908152600e6020526040902080548211156102b05760405162461bcd60e51b815260206004820152600c60248201526b125394d551919250d251539560a21b60448201526064015b60405180910390fd5b6102b86107b3565b8054821480156102c85750600082115b1561034157600154604051631db2c95560e21b81523360048201526001600160a01b03909116906376cb255490602401600060405180830381600087803b15801561031257600080fd5b505af1158015610326573d6000803e3d6000fd5b5050600d805492509050600061033b83610f58565b91905055505b600061037c826001015461037664e8d4a5100061037060036008015487600001546109e590919063ffffffff16565b906109f8565b90610a04565b90506103883382610a10565b81546103949084610a04565b808355600b546103af9164e8d4a510009161037091906109e5565b60018301556003546103cb906001600160a01b03163385610b6a565b60405183815233907f884edad9ce6fa2440d8a54cc123490eb96d2768479d49ff9c7366125a94243649060200160405180910390a2505050565b60008060036002015484101561041d5760055461041f565b835b90506000836003600601541161043757600954610439565b835b60075490915081116104655760085461045c906104568385610a04565b906109e5565b925050506104a5565b60075482106104785761045c8183610a04565b60075461045c9061048a908390610a04565b60085460075461049f91906104569087610a04565b90610bcd565b92915050565b6002546001600160a01b031633146104f15760405162461bcd60e51b81526020600482015260096024820152682327a92124a22222a760b91b60448201526064016102a7565b600480546001600160a01b0319166001600160a01b038a161790556005849055600685905560078290556008819055600043851061052f5784610531565b435b600380546001600160a01b0319166001600160a01b039990991698909817909755505050600a9390935550506000600b55600955600c5550565b336000908152600e602052604090206105826107b3565b8054156105c65760006105b8826001015461037664e8d4a5100061037060036008015487600001546109e590919063ffffffff16565b90506105c43382610a10565b505b80541580156105d55750600082115b1561064e576001546040516379cdf99b60e01b81523360048201526001600160a01b03909116906379cdf99b90602401600060405180830381600087803b15801561061f57600080fd5b505af1158015610633573d6000803e3d6000fd5b5050600d805492509050600061064883610f6f565b91905055505b600354610666906001600160a01b0316333085610bd9565b80546106729083610bcd565b808255600b5461068d9164e8d4a510009161037091906109e5565b600182015560405182815233907fe1fffcc4923d04b559f4d29a8bfc6cda04eb5b0d3c460751c2402c5c5cc9109c9060200160405180910390a25050565b336000818152600e60205260409020805460035491926106f4926001600160a01b031691610b6a565b805460405190815233907f5fafa99d0643513820be26656b45130b01e1c03062e1266bf36f88cbd3bd96959060200160405180910390a28054156107a657600154604051631db2c95560e21b81523360048201526001600160a01b03909116906376cb255490602401600060405180830381600087803b15801561077757600080fd5b505af115801561078b573d6000803e3d6000fd5b5050600d80549250905060006107a083610f58565b91905055505b6000808255600190910155565b600a5443116107be57565b6003546040516370a0823160e01b81523060048201526000916001600160a01b0316906370a082319060240160206040518083038186803b15801561080257600080fd5b505afa158015610816573d6000803e3d6000fd5b505050506040513d601f19601f8201168201806040525081019061083a9190610f8a565b90508061085a57600954431061085257600954610854565b435b600a5550565b600061086b60036007015443610405565b60065490915060009061087f9083906109e5565b90506108a0610897846103708464e8d4a510006109e5565b600b5490610bcd565b600b5560095443106108b4576009546108b6565b435b600a55505050565b6001600160a01b038181166000908152600e6020526040808220600b5460035492516370a0823160e01b8152306004820152939491939092859216906370a082319060240160206040518083038186803b15801561091b57600080fd5b505afa15801561092f573d6000803e3d6000fd5b505050506040513d601f19601f820116820180604052508101906109539190610f8a565b600a549091504311801561096657508015155b156109b457600061097c60036007015443610405565b6006549091506000906109909083906109e5565b90506109af6109a8846103708464e8d4a510006109e5565b8590610bcd565b935050505b6109dc836001015461037664e8d4a510006103708688600001546109e590919063ffffffff16565b95945050505050565b60006109f18284610fa3565b9392505050565b60006109f18284610fc2565b60006109f18284610fe4565b600480546040516370a0823160e01b815230928101929092526000916001600160a01b03909116906370a082319060240160206040518083038186803b158015610a5957600080fd5b505afa158015610a6d573d6000803e3d6000fd5b505050506040513d601f19601f82011682018060405250810190610a919190610f8a565b905080821115610b2a576004805460405163a9059cbb60e01b81526001600160a01b03868116938201939093526024810184905291169063a9059cbb906044015b602060405180830381600087803b158015610aec57600080fd5b505af1158015610b00573d6000803e3d6000fd5b505050506040513d601f19601f82011682018060405250810190610b249190610ffb565b50505050565b6004805460405163a9059cbb60e01b81526001600160a01b03868116938201939093526024810185905291169063a9059cbb90604401610ad2565b505050565b6040516001600160a01b038316602482015260448101829052610b6590849063a9059cbb60e01b906064015b60408051601f198184030181529190526020810180516001600160e01b03166001600160e01b031990931692909217909152610c11565b60006109f1828461101d565b6040516001600160a01b0380851660248301528316604482015260648101829052610b249085906323b872dd60e01b90608401610b96565b6000610c66826040518060400160405280602081526020017f5361666545524332303a206c6f772d6c6576656c2063616c6c206661696c6564815250856001600160a01b0316610ce39092919063ffffffff16565b805190915015610b655780806020019051810190610c849190610ffb565b610b655760405162461bcd60e51b815260206004820152602a60248201527f5361666545524332303a204552433230206f7065726174696f6e20646964206e6044820152691bdd081cdd58d8d9595960b21b60648201526084016102a7565b6060610cf28484600085610cfa565b949350505050565b606082471015610d5b5760405162461bcd60e51b815260206004820152602660248201527f416464726573733a20696e73756666696369656e742062616c616e636520666f6044820152651c8818d85b1b60d21b60648201526084016102a7565b6001600160a01b0385163b610db25760405162461bcd60e51b815260206004820152601d60248201527f416464726573733a2063616c6c20746f206e6f6e2d636f6e747261637400000060448201526064016102a7565b600080866001600160a01b03168587604051610dce9190611061565b60006040518083038185875af1925050503d8060008114610e0b576040519150601f19603f3d011682016040523d82523d6000602084013e610e10565b606091505b5091509150610e20828286610e2b565b979650505050505050565b60608315610e3a5750816109f1565b825115610e4a5782518084602001fd5b8160405162461bcd60e51b81526004016102a7919061107d565b6001600160a01b0381168114610e7957600080fd5b50565b600060208284031215610e8e57600080fd5b81356109f181610e64565b600060208284031215610eab57600080fd5b5035919050565b60008060408385031215610ec557600080fd5b50508035926020909101359150565b600080600080600080600080610100898b031215610ef157600080fd5b8835610efc81610e64565b9750602089013596506040890135610f1381610e64565b979a96995096976060810135975060808101359660a0820135965060c0820135955060e0909101359350915050565b634e487b7160e01b600052601160045260246000fd5b600081610f6757610f67610f42565b506000190190565b6000600019821415610f8357610f83610f42565b5060010190565b600060208284031215610f9c57600080fd5b5051919050565b6000816000190483118215151615610fbd57610fbd610f42565b500290565b600082610fdf57634e487b7160e01b600052601260045260246000fd5b500490565b600082821015610ff657610ff6610f42565b500390565b60006020828403121561100d57600080fd5b815180151581146109f157600080fd5b6000821982111561103057611030610f42565b500190565b60005b83811015611050578181015183820152602001611038565b83811115610b245750506000910152565b60008251611073818460208701611035565b9190910192915050565b602081526000825180602084015261109c816040850160208701611035565b601f01601f1916919091016040019291505056fea2646970667358221220342b63999da6bbbc0c5edde6779df5579823eb97735859e12dd43000960956fe64736f6c63430008090033a264697066735822122054e33484f6feb20f66f8f0ec67d20c24899259759a8b26f27142559478f2c62464736f6c63430008090033",
  "linkReferences": {},
  "deployedLinkReferences": {}
}