{
  "_format": "hh-sol-artifact-1",
  "contractName": "FarmGenerator",
  "sourceName": "contracts/FarmGenerator.sol",
  "abi": [
    {
      "inputs": [
        {
          "internalType": "contract IFactory",
          "name": "_factory",
          "type": "address"
        },
        {
          "internalType": "contract IUniFactory",
          "name": "_uniswapFactory",
          "type": "address"
        },
        {
          "internalType": "contract IUniswapV3Factory",
          "name": "_uniswapFactoryV3",
          "type": "address"
        }
      ],
      "stateMutability": "nonpayable",
      "type": "constructor"
    },
    {
      "anonymous": false,
      "inputs": [
        {
          "indexed": true,
          "internalType": "address",
          "name": "previousOwner",
          "type": "address"
        },
        {
          "indexed": true,
          "internalType": "address",
          "name": "newOwner",
          "type": "address"
        }
      ],
      "name": "OwnershipTransferred",
      "type": "event"
    },
    {
      "inputs": [
        {
          "internalType": "contract IERC20",
          "name": "_rewardToken",
          "type": "address"
        },
        {
          "internalType": "uint256",
          "name": "_amount",
          "type": "uint256"
        },
        {
          "internalType": "contract IERC20",
          "name": "_lpToken",
          "type": "address"
        },
        {
          "internalType": "uint256",
          "name": "_blockReward",
          "type": "uint256"
        },
        {
          "internalType": "uint256",
          "name": "_startBlock",
          "type": "uint256"
        },
        {
          "internalType": "uint256",
          "name": "_bonusEndBlock",
          "type": "uint256"
        },
        {
          "internalType": "uint256",
          "name": "_bonus",
          "type": "uint256"
        },
        {
          "internalType": "bool",
          "name": "_referral",
          "type": "bool"
        }
      ],
      "name": "createFarmV2",
      "outputs": [
        {
          "internalType": "address",
          "name": "",
          "type": "address"
        }
      ],
      "stateMutability": "nonpayable",
      "type": "function"
    },
    {
      "inputs": [
        {
          "internalType": "contract IERC20",
          "name": "_rewardToken",
          "type": "address"
        },
        {
          "internalType": "uint256",
          "name": "_amount",
          "type": "uint256"
        },
        {
          "internalType": "contract IERC20",
          "name": "_lpToken",
          "type": "address"
        },
        {
          "internalType": "uint256",
          "name": "_blockReward",
          "type": "uint256"
        },
        {
          "internalType": "uint256",
          "name": "_startBlock",
          "type": "uint256"
        },
        {
          "internalType": "uint256",
          "name": "_bonusEndBlock",
          "type": "uint256"
        },
        {
          "internalType": "uint256",
          "name": "_bonus",
          "type": "uint256"
        },
        {
          "internalType": "bool",
          "name": "_referral",
          "type": "bool"
        }
      ],
      "name": "createFarmV3",
      "outputs": [
        {
          "internalType": "address",
          "name": "",
          "type": "address"
        }
      ],
      "stateMutability": "nonpayable",
      "type": "function"
    },
    {
      "inputs": [
        {
          "internalType": "uint256",
          "name": "_amount",
          "type": "uint256"
        },
        {
          "internalType": "uint256",
          "name": "_startBlock",
          "type": "uint256"
        },
        {
          "internalType": "uint256",
          "name": "_bonusEndBlock",
          "type": "uint256"
        },
        {
          "internalType": "uint256",
          "name": "_bonus",
          "type": "uint256"
        },
        {
          "internalType": "uint256",
          "name": "_endBlock",
          "type": "uint256"
        }
      ],
      "name": "determineBlockReward",
      "outputs": [
        {
          "internalType": "uint256",
          "name": "",
          "type": "uint256"
        },
        {
          "internalType": "uint256",
          "name": "",
          "type": "uint256"
        },
        {
          "internalType": "uint256",
          "name": "",
          "type": "uint256"
        }
      ],
      "stateMutability": "view",
      "type": "function"
    },
    {
      "inputs": [
        {
          "internalType": "uint256",
          "name": "_amount",
          "type": "uint256"
        },
        {
          "internalType": "uint256",
          "name": "_blockReward",
          "type": "uint256"
        },
        {
          "internalType": "uint256",
          "name": "_startBlock",
          "type": "uint256"
        },
        {
          "internalType": "uint256",
          "name": "_bonusEndBlock",
          "type": "uint256"
        },
        {
          "internalType": "uint256",
          "name": "_bonus",
          "type": "uint256"
        },
        {
          "internalType": "bool",
          "name": "_referral",
          "type": "bool"
        }
      ],
      "name": "determineEndBlock",
      "outputs": [
        {
          "internalType": "uint256",
          "name": "",
          "type": "uint256"
        },
        {
          "internalType": "uint256",
          "name": "",
          "type": "uint256"
        },
        {
          "internalType": "uint256",
          "name": "",
          "type": "uint256"
        }
      ],
      "stateMutability": "view",
      "type": "function"
    },
    {
      "inputs": [],
      "name": "factory",
      "outputs": [
        {
          "internalType": "contract IFactory",
          "name": "",
          "type": "address"
        }
      ],
      "stateMutability": "view",
      "type": "function"
    },
    {
      "inputs": [],
      "name": "gFees",
      "outputs": [
        {
          "internalType": "contract IERCBurn",
          "name": "gasToken",
          "type": "address"
        },
        {
          "internalType": "bool",
          "name": "useGasToken",
          "type": "bool"
        },
        {
          "internalType": "uint256",
          "name": "gasFee",
          "type": "uint256"
        },
        {
          "internalType": "uint256",
          "name": "ethFee",
          "type": "uint256"
        },
        {
          "internalType": "uint256",
          "name": "tokenFee",
          "type": "uint256"
        },
        {
          "internalType": "uint256",
          "name": "referralFee",
          "type": "uint256"
        }
      ],
      "stateMutability": "view",
      "type": "function"
    },
    {
      "inputs": [],
      "name": "owner",
      "outputs": [
        {
          "internalType": "address",
          "name": "",
          "type": "address"
        }
      ],
      "stateMutability": "view",
      "type": "function"
    },
    {
      "inputs": [],
      "name": "renounceOwnership",
      "outputs": [],
      "stateMutability": "nonpayable",
      "type": "function"
    },
    {
      "inputs": [
        {
          "internalType": "address payable",
          "name": "_devaddr",
          "type": "address"
        }
      ],
      "name": "setDev",
      "outputs": [],
      "stateMutability": "nonpayable",
      "type": "function"
    },
    {
      "inputs": [
        {
          "internalType": "uint256",
          "name": "_amount",
          "type": "uint256"
        }
      ],
      "name": "setEthFee",
      "outputs": [],
      "stateMutability": "nonpayable",
      "type": "function"
    },
    {
      "inputs": [
        {
          "internalType": "uint256",
          "name": "_amount",
          "type": "uint256"
        }
      ],
      "name": "setGasFee",
      "outputs": [],
      "stateMutability": "nonpayable",
      "type": "function"
    },
    {
      "inputs": [
        {
          "internalType": "contract IERCBurn",
          "name": "_gasToken",
          "type": "address"
        }
      ],
      "name": "setGasToken",
      "outputs": [],
      "stateMutability": "nonpayable",
      "type": "function"
    },
    {
      "inputs": [
        {
          "internalType": "bool",
          "name": "_useGasToken",
          "type": "bool"
        }
      ],
      "name": "setRequireGasToken",
      "outputs": [],
      "stateMutability": "nonpayable",
      "type": "function"
    },
    {
      "inputs": [
        {
          "internalType": "uint256",
          "name": "_amount",
          "type": "uint256"
        }
      ],
      "name": "setTokenFee",
      "outputs": [],
      "stateMutability": "nonpayable",
      "type": "function"
    },
    {
      "inputs": [
        {
          "internalType": "address",
          "name": "newOwner",
          "type": "address"
        }
      ],
      "name": "transferOwnership",
      "outputs": [],
      "stateMutability": "nonpayable",
      "type": "function"
    },
    {
      "inputs": [],
      "name": "uniswapFactory",
      "outputs": [
        {
          "internalType": "contract IUniFactory",
          "name": "",
          "type": "address"
        }
      ],
      "stateMutability": "view",
      "type": "function"
    },
    {
      "inputs": [],
      "name": "uniswapFactoryV3",
      "outputs": [
        {
          "internalType": "contract IUniswapV3Factory",
          "name": "",
          "type": "address"
        }
      ],
      "stateMutability": "view",
      "type": "function"
    }
  ],
  "bytecode": "0x60806040523480156200001157600080fd5b50604051620028bf380380620028bf8339810160408190526200003491620000ff565b6200003f3362000096565b600180546001600160a01b039485166001600160a01b031991821617909155600480548216331790556032600855600280549385169382169390931790925560038054919093169116179055600a60095562000153565b600080546001600160a01b038381166001600160a01b0319831681178455604051919092169283917f8be0079c531659141344cd1fd0a4f28419497f9722a3daafe3b4186f6b6457e09190a35050565b6001600160a01b0381168114620000fc57600080fd5b50565b6000806000606084860312156200011557600080fd5b83516200012281620000e6565b60208501519093506200013581620000e6565b60408501519092506200014881620000e6565b809150509250925092565b61275c80620001636000396000f3fe608060405234801561001057600080fd5b506004361061010b5760003560e01c80638c40b590116100a2578063c45a015511610071578063c45a015514610276578063d477f05f14610289578063e3ffcf5d1461029c578063f2eb6b5f146102af578063f2fde38b146102c257600080fd5b80638c40b590146101d75780638da5cb5b146101ea57806390e1a003146101fb5780639dd3d5a71461026357600080fd5b8063678edca3116100de578063678edca31461017b578063715018a61461018e57806381f46839146101965780638bdb2afa146101c457600080fd5b80631e9f8aad1461011057806331b31b88146101255780633f6738a9146101385780635cd377391461014b575b600080fd5b61012361011e3660046112c0565b6102d5565b005b6101236101333660046112dd565b6102ff565b6101236101463660046112dd565b61030c565b60035461015e906001600160a01b031681565b6040516001600160a01b0390911681526020015b60405180910390f35b6101236101893660046112dd565b610319565b610123610326565b6101a96101a4366004611304565b61033a565b60408051938452602084019290925290820152606001610172565b60025461015e906001600160a01b031681565b6101a96101e5366004611359565b61048b565b6000546001600160a01b031661015e565b60055460065460075460085460095461022c946001600160a01b03811694600160a01b90910460ff16939092909186565b604080516001600160a01b0390971687529415156020870152938501929092526060840152608083015260a082015260c001610172565b61015e610271366004611394565b610541565b60015461015e906001600160a01b031681565b6101236102973660046112c0565b610b55565b61015e6102aa366004611394565b610b7f565b6101236102bd366004611410565b6110d2565b6101236102d03660046112c0565b6110f8565b6102dd611171565b600580546001600160a01b0319166001600160a01b0392909216919091179055565b610307611171565b600855565b610314611171565b600755565b610321611171565b600655565b61032e611171565b61033860006111cb565b565b6000806000610347611252565b600854610363906103e89061035d908d9061121b565b9061122e565b808252610371908b9061123a565b6020820152610380878961123a565b6040820181905261039d908a90610397908961121b565b9061121b565b6060820181905260208201516103b8918b9161035d9161123a565b6080820181905260408201516103da918a916103d49190611246565b90611246565b60a082018190526000906103ee908961123a565b9050600061040d826103d48a866040015161121b90919063ffffffff16565b9050600061041b8c8361121b565b9050871561045b5760a0840151600954600854839161044c916103e89161035d916104459161123a565b869061121b565b9650965096505050505061047f565b8360a001518161044c6103e861035d6005600301548661121b90919063ffffffff16565b96509650969350505050565b6000806000806104af6103e861035d6005600301548c61121b90919063ffffffff16565b905060006104bd8a8361123a565b905060006104cb898b61123a565b905060006104d9888b61123a565b905060006104eb826103d4858d61121b565b905060006104f9858361122e565b90506000610507828461121b565b905081816105296103e861035d6005600301548661121b90919063ffffffff16565b99509950995050505050505050955095509592505050565b600043851161057f5760405162461bcd60e51b815260206004820152600560248201526414d510549560da1b60448201526064015b60405180910390fd5b600083116105b75760405162461bcd60e51b8152602060048201526005602482015264424f4e555360d81b6044820152606401610576565b6001600160a01b0389166105f55760405162461bcd60e51b81526020600482015260056024820152642a27a5a2a760d91b6044820152606401610576565b6103e8861161062b5760405162461bcd60e51b8152602060048201526002602482015261212960f11b6044820152606401610576565b60035460408051630dfe168160e01b8152905189926000926001600160a01b0391821692631698ee8292861691630dfe1681916004808301926020929190829003018186803b15801561067d57600080fd5b505afa158015610691573d6000803e3d6000fd5b505050506040513d601f19601f820116820180604052508101906106b5919061142d565b846001600160a01b031663d21220a76040518163ffffffff1660e01b815260040160206040518083038186803b1580156106ee57600080fd5b505afa158015610702573d6000803e3d6000fd5b505050506040513d601f19601f82011682018060405250810190610726919061142d565b856001600160a01b031663ddca3f436040518163ffffffff1660e01b815260040160206040518083038186803b15801561075f57600080fd5b505afa158015610773573d6000803e3d6000fd5b505050506040513d601f19601f82011682018060405250810190610797919061144a565b6040516001600160e01b031960e086901b1681526001600160a01b03938416600482015292909116602483015262ffffff16604482015260640160206040518083038186803b1580156107e957600080fd5b505afa1580156107fd573d6000803e3d6000fd5b505050506040513d601f19601f82011682018060405250810190610821919061142d565b9050886001600160a01b0316816001600160a01b0316146108845760405162461bcd60e51b815260206004820152601b60248201527f546869732070616972206973206e6f74206f6e20756e697377617000000000006044820152606401610576565b61088c611252565b61089a8b8a8a8a8a8a61033a565b8360a0018460c0018560e0018381525083815250838152505050508b6001600160a01b03166323b872dd33600460009054906101000a90046001600160a01b03168460e001516040518463ffffffff1660e01b81526004016108fe9392919061146f565b602060405180830381600087803b15801561091857600080fd5b505af115801561092c573d6000803e3d6000fd5b505050506040513d601f19601f820116820180604052508101906109509190611493565b506001546040516000916001600160a01b031690309061096f9061129e565b6001600160a01b03928316815291166020820152604001604051809103906000f0801580156109a2573d6000803e3d6000fd5b5060c08301516040516323b872dd60e01b81529192506001600160a01b038f16916323b872dd916109d9913391869160040161146f565b602060405180830381600087803b1580156109f357600080fd5b505af1158015610a07573d6000803e3d6000fd5b505050506040513d601f19601f82011682018060405250810190610a2b9190611493565b610a705760405162461bcd60e51b81526020600482015260166024820152752a37b5b2b7103a3930b739b332b9103330b4b632b21760511b6044820152606401610576565b806001600160a01b031663b20268c28e8460c001518e8e8e8860a001518f8f6040518963ffffffff1660e01b8152600401610ab29897969594939291906114b0565b600060405180830381600087803b158015610acc57600080fd5b505af1158015610ae0573d6000803e3d6000fd5b505060015460405163d9fceb0160e01b81526001600160a01b038581166004830152909116925063d9fceb0191506024015b600060405180830381600087803b158015610b2c57600080fd5b505af1158015610b40573d6000803e3d6000fd5b50929f9e505050505050505050505050505050565b610b5d611171565b600480546001600160a01b0319166001600160a01b0392909216919091179055565b6000438511610bb85760405162461bcd60e51b815260206004820152600560248201526414d510549560da1b6044820152606401610576565b60008311610bf05760405162461bcd60e51b8152602060048201526005602482015264424f4e555360d81b6044820152606401610576565b6001600160a01b038916610c2e5760405162461bcd60e51b81526020600482015260056024820152642a27a5a2a760d91b6044820152606401610576565b6103e88611610c645760405162461bcd60e51b8152602060048201526002602482015261212960f11b6044820152606401610576565b60025460408051630dfe168160e01b8152905189926000926001600160a01b039182169263e6a4390592861691630dfe1681916004808301926020929190829003018186803b158015610cb657600080fd5b505afa158015610cca573d6000803e3d6000fd5b505050506040513d601f19601f82011682018060405250810190610cee919061142d565b846001600160a01b031663d21220a76040518163ffffffff1660e01b815260040160206040518083038186803b158015610d2757600080fd5b505afa158015610d3b573d6000803e3d6000fd5b505050506040513d601f19601f82011682018060405250810190610d5f919061142d565b6040516001600160e01b031960e085901b1681526001600160a01b0392831660048201529116602482015260440160206040518083038186803b158015610da557600080fd5b505afa158015610db9573d6000803e3d6000fd5b505050506040513d601f19601f82011682018060405250810190610ddd919061142d565b9050886001600160a01b0316816001600160a01b031614610e405760405162461bcd60e51b815260206004820152601b60248201527f546869732070616972206973206e6f74206f6e20756e697377617000000000006044820152606401610576565b610e48611252565b610e568b8a8a8a8a8a61033a565b8360a0018460c0018560e0018381525083815250838152505050508b6001600160a01b03166323b872dd33600460009054906101000a90046001600160a01b03168460e001516040518463ffffffff1660e01b8152600401610eba9392919061146f565b602060405180830381600087803b158015610ed457600080fd5b505af1158015610ee8573d6000803e3d6000fd5b505050506040513d601f19601f82011682018060405250810190610f0c9190611493565b506001546040516000916001600160a01b0316903090610f2b9061129e565b6001600160a01b03928316815291166020820152604001604051809103906000f080158015610f5e573d6000803e3d6000fd5b5060c08301516040516323b872dd60e01b81529192506001600160a01b038f16916323b872dd91610f95913391869160040161146f565b602060405180830381600087803b158015610faf57600080fd5b505af1158015610fc3573d6000803e3d6000fd5b505050506040513d601f19601f82011682018060405250810190610fe79190611493565b61102c5760405162461bcd60e51b81526020600482015260166024820152752a37b5b2b7103a3930b739b332b9103330b4b632b21760511b6044820152606401610576565b806001600160a01b031663b20268c28e8460c001518e8e8e8860a001518f8f6040518963ffffffff1660e01b815260040161106e9897969594939291906114b0565b600060405180830381600087803b15801561108857600080fd5b505af115801561109c573d6000803e3d6000fd5b505060015460405163edcd5d1760e01b81526001600160a01b038581166004830152909116925063edcd5d179150602401610b12565b6110da611171565b60058054911515600160a01b0260ff60a01b19909216919091179055565b611100611171565b6001600160a01b0381166111655760405162461bcd60e51b815260206004820152602660248201527f4f776e61626c653a206e6577206f776e657220697320746865207a65726f206160448201526564647265737360d01b6064820152608401610576565b61116e816111cb565b50565b6000546001600160a01b031633146103385760405162461bcd60e51b815260206004820181905260248201527f4f776e61626c653a2063616c6c6572206973206e6f7420746865206f776e65726044820152606401610576565b600080546001600160a01b038381166001600160a01b0319831681178455604051919092169283917f8be0079c531659141344cd1fd0a4f28419497f9722a3daafe3b4186f6b6457e09190a35050565b6000611227828461150d565b9392505050565b6000611227828461152c565b6000611227828461154e565b60006112278284611565565b6040518061012001604052806000815260200160008152602001600081526020016000815260200160008152602001600081526020016000815260200160008152602001600081525090565b6111a98061157e83390190565b6001600160a01b038116811461116e57600080fd5b6000602082840312156112d257600080fd5b8135611227816112ab565b6000602082840312156112ef57600080fd5b5035919050565b801515811461116e57600080fd5b60008060008060008060c0878903121561131d57600080fd5b863595506020870135945060408701359350606087013592506080870135915060a087013561134b816112f6565b809150509295509295509295565b600080600080600060a0868803121561137157600080fd5b505083359560208501359550604085013594606081013594506080013592509050565b600080600080600080600080610100898b0312156113b157600080fd5b88356113bc816112ab565b97506020890135965060408901356113d3816112ab565b9550606089013594506080890135935060a0890135925060c0890135915060e08901356113ff816112f6565b809150509295985092959890939650565b60006020828403121561142257600080fd5b8135611227816112f6565b60006020828403121561143f57600080fd5b8151611227816112ab565b60006020828403121561145c57600080fd5b815162ffffff8116811461122757600080fd5b6001600160a01b039384168152919092166020820152604081019190915260600190565b6000602082840312156114a557600080fd5b8151611227816112f6565b6001600160a01b03988916815260208101979097529490961660408601526060850192909252608084015260a083015260c082019290925260e08101919091526101000190565b634e487b7160e01b600052601160045260246000fd5b6000816000190483118215151615611527576115276114f7565b500290565b60008261154957634e487b7160e01b600052601260045260246000fd5b500490565b600082821015611560576115606114f7565b500390565b60008219821115611578576115786114f7565b50019056fe6080604052600160005534801561001557600080fd5b506040516111a93803806111a983398101604081905261003491610081565b600180546001600160a01b039384166001600160a01b031991821617909155600280549290931691161790556100b4565b80516001600160a01b038116811461007c57600080fd5b919050565b6000806040838503121561009457600080fd5b61009d83610065565b91506100ab60208401610065565b90509250929050565b6110e6806100c36000396000f3fe608060405234801561001057600080fd5b50600436106100b45760003560e01c8063b20268c211610071578063b20268c214610200578063b6b55f2514610213578063c45a015514610226578063db2e21bc14610239578063e3161ddd14610241578063f40f0f521461024957600080fd5b80631959a002146100b95780631d49d66c146100fa5780632dd99996146101965780632e1a7d4d146101c15780632ebed9ec146101d65780638dbb1e3a146101ed575b600080fd5b6100e06100c7366004610e7c565b600e602052600090815260409020805460019091015482565b604080519283526020830191909152015b60405180910390f35b600354600454600554600654600754600854600954600a54600b54600c54600d546101389a6001600160a01b039081169a169897969594939291908b565b604080516001600160a01b039c8d1681529b909a1660208c0152988a01979097526060890195909552608088019390935260a087019190915260c086015260e0850152610100840152610120830152610140820152610160016100f1565b6002546101a9906001600160a01b031681565b6040516001600160a01b0390911681526020016100f1565b6101d46101cf366004610e99565b61025c565b005b6101df60005481565b6040519081526020016100f1565b6101df6101fb366004610eb2565b610405565b6101d461020e366004610ed4565b6104ab565b6101d4610221366004610e99565b61056b565b6001546101a9906001600160a01b031681565b6101d46106cb565b6101d46107b3565b6101df610257366004610e7c565b6108be565b336000908152600e6020526040902080548211156102b05760405162461bcd60e51b815260206004820152600c60248201526b125394d551919250d251539560a21b60448201526064015b60405180910390fd5b6102b86107b3565b8054821480156102c85750600082115b1561034157600154604051631db2c95560e21b81523360048201526001600160a01b03909116906376cb255490602401600060405180830381600087803b15801561031257600080fd5b505af1158015610326573d6000803e3d6000fd5b5050600d805492509050600061033b83610f58565b91905055505b600061037c826001015461037664e8d4a5100061037060036008015487600001546109e590919063ffffffff16565b906109f8565b90610a04565b90506103883382610a10565b81546103949084610a04565b808355600b546103af9164e8d4a510009161037091906109e5565b60018301556003546103cb906001600160a01b03163385610b6a565b60405183815233907f884edad9ce6fa2440d8a54cc123490eb96d2768479d49ff9c7366125a94243649060200160405180910390a2505050565b60008060036002015484101561041d5760055461041f565b835b90506000836003600601541161043757600954610439565b835b60075490915081116104655760085461045c906104568385610a04565b906109e5565b925050506104a5565b60075482106104785761045c8183610a04565b60075461045c9061048a908390610a04565b60085460075461049f91906104569087610a04565b90610bcd565b92915050565b6002546001600160a01b031633146104f15760405162461bcd60e51b81526020600482015260096024820152682327a92124a22222a760b91b60448201526064016102a7565b600480546001600160a01b0319166001600160a01b038a161790556005849055600685905560078290556008819055600043851061052f5784610531565b435b600380546001600160a01b0319166001600160a01b039990991698909817909755505050600a9390935550506000600b55600955600c5550565b336000908152600e602052604090206105826107b3565b8054156105c65760006105b8826001015461037664e8d4a5100061037060036008015487600001546109e590919063ffffffff16565b90506105c43382610a10565b505b80541580156105d55750600082115b1561064e576001546040516379cdf99b60e01b81523360048201526001600160a01b03909116906379cdf99b90602401600060405180830381600087803b15801561061f57600080fd5b505af1158015610633573d6000803e3d6000fd5b5050600d805492509050600061064883610f6f565b91905055505b600354610666906001600160a01b0316333085610bd9565b80546106729083610bcd565b808255600b5461068d9164e8d4a510009161037091906109e5565b600182015560405182815233907fe1fffcc4923d04b559f4d29a8bfc6cda04eb5b0d3c460751c2402c5c5cc9109c9060200160405180910390a25050565b336000818152600e60205260409020805460035491926106f4926001600160a01b031691610b6a565b805460405190815233907f5fafa99d0643513820be26656b45130b01e1c03062e1266bf36f88cbd3bd96959060200160405180910390a28054156107a657600154604051631db2c95560e21b81523360048201526001600160a01b03909116906376cb255490602401600060405180830381600087803b15801561077757600080fd5b505af115801561078b573d6000803e3d6000fd5b5050600d80549250905060006107a083610f58565b91905055505b6000808255600190910155565b600a5443116107be57565b6003546040516370a0823160e01b81523060048201526000916001600160a01b0316906370a082319060240160206040518083038186803b15801561080257600080fd5b505afa158015610816573d6000803e3d6000fd5b505050506040513d601f19601f8201168201806040525081019061083a9190610f8a565b90508061085a57600954431061085257600954610854565b435b600a5550565b600061086b60036007015443610405565b60065490915060009061087f9083906109e5565b90506108a0610897846103708464e8d4a510006109e5565b600b5490610bcd565b600b5560095443106108b4576009546108b6565b435b600a55505050565b6001600160a01b038181166000908152600e6020526040808220600b5460035492516370a0823160e01b8152306004820152939491939092859216906370a082319060240160206040518083038186803b15801561091b57600080fd5b505afa15801561092f573d6000803e3d6000fd5b505050506040513d601f19601f820116820180604052508101906109539190610f8a565b600a549091504311801561096657508015155b156109b457600061097c60036007015443610405565b6006549091506000906109909083906109e5565b90506109af6109a8846103708464e8d4a510006109e5565b8590610bcd565b935050505b6109dc836001015461037664e8d4a510006103708688600001546109e590919063ffffffff16565b95945050505050565b60006109f18284610fa3565b9392505050565b60006109f18284610fc2565b60006109f18284610fe4565b600480546040516370a0823160e01b815230928101929092526000916001600160a01b03909116906370a082319060240160206040518083038186803b158015610a5957600080fd5b505afa158015610a6d573d6000803e3d6000fd5b505050506040513d601f19601f82011682018060405250810190610a919190610f8a565b905080821115610b2a576004805460405163a9059cbb60e01b81526001600160a01b03868116938201939093526024810184905291169063a9059cbb906044015b602060405180830381600087803b158015610aec57600080fd5b505af1158015610b00573d6000803e3d6000fd5b505050506040513d601f19601f82011682018060405250810190610b249190610ffb565b50505050565b6004805460405163a9059cbb60e01b81526001600160a01b03868116938201939093526024810185905291169063a9059cbb90604401610ad2565b505050565b6040516001600160a01b038316602482015260448101829052610b6590849063a9059cbb60e01b906064015b60408051601f198184030181529190526020810180516001600160e01b03166001600160e01b031990931692909217909152610c11565b60006109f1828461101d565b6040516001600160a01b0380851660248301528316604482015260648101829052610b249085906323b872dd60e01b90608401610b96565b6000610c66826040518060400160405280602081526020017f5361666545524332303a206c6f772d6c6576656c2063616c6c206661696c6564815250856001600160a01b0316610ce39092919063ffffffff16565b805190915015610b655780806020019051810190610c849190610ffb565b610b655760405162461bcd60e51b815260206004820152602a60248201527f5361666545524332303a204552433230206f7065726174696f6e20646964206e6044820152691bdd081cdd58d8d9595960b21b60648201526084016102a7565b6060610cf28484600085610cfa565b949350505050565b606082471015610d5b5760405162461bcd60e51b815260206004820152602660248201527f416464726573733a20696e73756666696369656e742062616c616e636520666f6044820152651c8818d85b1b60d21b60648201526084016102a7565b6001600160a01b0385163b610db25760405162461bcd60e51b815260206004820152601d60248201527f416464726573733a2063616c6c20746f206e6f6e2d636f6e747261637400000060448201526064016102a7565b600080866001600160a01b03168587604051610dce9190611061565b60006040518083038185875af1925050503d8060008114610e0b576040519150601f19603f3d011682016040523d82523d6000602084013e610e10565b606091505b5091509150610e20828286610e2b565b979650505050505050565b60608315610e3a5750816109f1565b825115610e4a5782518084602001fd5b8160405162461bcd60e51b81526004016102a7919061107d565b6001600160a01b0381168114610e7957600080fd5b50565b600060208284031215610e8e57600080fd5b81356109f181610e64565b600060208284031215610eab57600080fd5b5035919050565b60008060408385031215610ec557600080fd5b50508035926020909101359150565b600080600080600080600080610100898b031215610ef157600080fd5b8835610efc81610e64565b9750602089013596506040890135610f1381610e64565b979a96995096976060810135975060808101359660a0820135965060c0820135955060e0909101359350915050565b634e487b7160e01b600052601160045260246000fd5b600081610f6757610f67610f42565b506000190190565b6000600019821415610f8357610f83610f42565b5060010190565b600060208284031215610f9c57600080fd5b5051919050565b6000816000190483118215151615610fbd57610fbd610f42565b500290565b600082610fdf57634e487b7160e01b600052601260045260246000fd5b500490565b600082821015610ff657610ff6610f42565b500390565b60006020828403121561100d57600080fd5b815180151581146109f157600080fd5b6000821982111561103057611030610f42565b500190565b60005b83811015611050578181015183820152602001611038565b83811115610b245750506000910152565b60008251611073818460208701611035565b9190910192915050565b602081526000825180602084015261109c816040850160208701611035565b601f01601f1916919091016040019291505056fea26469706673582212200ea2293c1bd8b249c2f6eff8ac14d436035554802226737b1f97c7ca8d16b94964736f6c63430008090033a2646970667358221220e72725dc364fc8ab5435a2663d34e6ffdbbce6ba34e0ccc5982c02f3a81805c864736f6c63430008090033",
  "linkReferences": {},
  "deployedLinkReferences": {}
}