{
  "_format": "hh-sol-artifact-1",
  "contractName": "FarmGenerator",
  "sourceName": "contracts/FarmGenerator.sol",
  "abi": [
    {
      "inputs": [
        {
          "internalType": "contract IFactory",
          "name": "_factory",
          "type": "address"
        },
        {
          "internalType": "contract IUniFactory",
          "name": "_uniswapFactory",
          "type": "address"
        },
        {
          "internalType": "contract IUniswapV3Factory",
          "name": "_uniswapFactoryV3",
          "type": "address"
        },
        {
          "internalType": "address",
          "name": "_devAddr",
          "type": "address"
        },
        {
          "internalType": "uint256",
          "name": "_ethFee",
          "type": "uint256"
        }
      ],
      "stateMutability": "nonpayable",
      "type": "constructor"
    },
    {
      "anonymous": false,
      "inputs": [
        {
          "indexed": true,
          "internalType": "address",
          "name": "previousOwner",
          "type": "address"
        },
        {
          "indexed": true,
          "internalType": "address",
          "name": "newOwner",
          "type": "address"
        }
      ],
      "name": "OwnershipTransferred",
      "type": "event"
    },
    {
      "inputs": [
        {
          "internalType": "contract IERC20",
          "name": "_rewardToken",
          "type": "address"
        },
        {
          "internalType": "uint256",
          "name": "_amount",
          "type": "uint256"
        },
        {
          "internalType": "contract IERC20",
          "name": "_lpToken",
          "type": "address"
        },
        {
          "internalType": "uint256",
          "name": "_blockReward",
          "type": "uint256"
        },
        {
          "internalType": "uint256",
          "name": "_startBlock",
          "type": "uint256"
        },
        {
          "internalType": "uint256",
          "name": "_bonusEndBlock",
          "type": "uint256"
        },
        {
          "internalType": "uint256",
          "name": "_bonus",
          "type": "uint256"
        },
        {
          "internalType": "uint256",
          "name": "_lockPeriod",
          "type": "uint256"
        },
        {
          "internalType": "bool",
          "name": "_referral",
          "type": "bool"
        }
      ],
      "name": "createFarmV2",
      "outputs": [
        {
          "internalType": "address",
          "name": "",
          "type": "address"
        }
      ],
      "stateMutability": "payable",
      "type": "function"
    },
    {
      "inputs": [
        {
          "internalType": "uint256",
          "name": "_amount",
          "type": "uint256"
        },
        {
          "internalType": "uint256",
          "name": "_startBlock",
          "type": "uint256"
        },
        {
          "internalType": "uint256",
          "name": "_bonusEndBlock",
          "type": "uint256"
        },
        {
          "internalType": "uint256",
          "name": "_bonus",
          "type": "uint256"
        },
        {
          "internalType": "uint256",
          "name": "_endBlock",
          "type": "uint256"
        }
      ],
      "name": "determineBlockReward",
      "outputs": [
        {
          "internalType": "uint256",
          "name": "",
          "type": "uint256"
        },
        {
          "internalType": "uint256",
          "name": "",
          "type": "uint256"
        },
        {
          "internalType": "uint256",
          "name": "",
          "type": "uint256"
        }
      ],
      "stateMutability": "view",
      "type": "function"
    },
    {
      "inputs": [
        {
          "internalType": "uint256",
          "name": "_amount",
          "type": "uint256"
        },
        {
          "internalType": "uint256",
          "name": "_blockReward",
          "type": "uint256"
        },
        {
          "internalType": "uint256",
          "name": "_startBlock",
          "type": "uint256"
        },
        {
          "internalType": "uint256",
          "name": "_bonusEndBlock",
          "type": "uint256"
        },
        {
          "internalType": "uint256",
          "name": "_bonus",
          "type": "uint256"
        },
        {
          "internalType": "bool",
          "name": "_referral",
          "type": "bool"
        }
      ],
      "name": "determineEndBlock",
      "outputs": [
        {
          "internalType": "uint256",
          "name": "",
          "type": "uint256"
        },
        {
          "internalType": "uint256",
          "name": "",
          "type": "uint256"
        }
      ],
      "stateMutability": "view",
      "type": "function"
    },
    {
      "inputs": [],
      "name": "devaddr",
      "outputs": [
        {
          "internalType": "address",
          "name": "",
          "type": "address"
        }
      ],
      "stateMutability": "view",
      "type": "function"
    },
    {
      "inputs": [],
      "name": "factory",
      "outputs": [
        {
          "internalType": "contract IFactory",
          "name": "",
          "type": "address"
        }
      ],
      "stateMutability": "view",
      "type": "function"
    },
    {
      "inputs": [],
      "name": "gFees",
      "outputs": [
        {
          "internalType": "contract IERCBurn",
          "name": "gasToken",
          "type": "address"
        },
        {
          "internalType": "bool",
          "name": "useGasToken",
          "type": "bool"
        },
        {
          "internalType": "uint256",
          "name": "gasFee",
          "type": "uint256"
        },
        {
          "internalType": "uint256",
          "name": "ethFee",
          "type": "uint256"
        },
        {
          "internalType": "uint256",
          "name": "tokenFee",
          "type": "uint256"
        },
        {
          "internalType": "uint256",
          "name": "referralFee",
          "type": "uint256"
        }
      ],
      "stateMutability": "view",
      "type": "function"
    },
    {
      "inputs": [],
      "name": "owner",
      "outputs": [
        {
          "internalType": "address",
          "name": "",
          "type": "address"
        }
      ],
      "stateMutability": "view",
      "type": "function"
    },
    {
      "inputs": [],
      "name": "renounceOwnership",
      "outputs": [],
      "stateMutability": "nonpayable",
      "type": "function"
    },
    {
      "inputs": [
        {
          "internalType": "address",
          "name": "_devaddr",
          "type": "address"
        }
      ],
      "name": "setDev",
      "outputs": [],
      "stateMutability": "nonpayable",
      "type": "function"
    },
    {
      "inputs": [
        {
          "internalType": "uint256",
          "name": "_amount",
          "type": "uint256"
        }
      ],
      "name": "setEthFee",
      "outputs": [],
      "stateMutability": "nonpayable",
      "type": "function"
    },
    {
      "inputs": [
        {
          "internalType": "uint256",
          "name": "_amount",
          "type": "uint256"
        }
      ],
      "name": "setGasFee",
      "outputs": [],
      "stateMutability": "nonpayable",
      "type": "function"
    },
    {
      "inputs": [
        {
          "internalType": "contract IERCBurn",
          "name": "_gasToken",
          "type": "address"
        }
      ],
      "name": "setGasToken",
      "outputs": [],
      "stateMutability": "nonpayable",
      "type": "function"
    },
    {
      "inputs": [
        {
          "internalType": "bool",
          "name": "_useGasToken",
          "type": "bool"
        }
      ],
      "name": "setRequireGasToken",
      "outputs": [],
      "stateMutability": "nonpayable",
      "type": "function"
    },
    {
      "inputs": [
        {
          "internalType": "uint256",
          "name": "_amount",
          "type": "uint256"
        }
      ],
      "name": "setTokenFee",
      "outputs": [],
      "stateMutability": "nonpayable",
      "type": "function"
    },
    {
      "inputs": [
        {
          "internalType": "address",
          "name": "newOwner",
          "type": "address"
        }
      ],
      "name": "transferOwnership",
      "outputs": [],
      "stateMutability": "nonpayable",
      "type": "function"
    },
    {
      "inputs": [],
      "name": "uniswapFactory",
      "outputs": [
        {
          "internalType": "contract IUniFactory",
          "name": "",
          "type": "address"
        }
      ],
      "stateMutability": "view",
      "type": "function"
    },
    {
      "inputs": [],
      "name": "uniswapFactoryV3",
      "outputs": [
        {
          "internalType": "contract IUniswapV3Factory",
          "name": "",
          "type": "address"
        }
      ],
      "stateMutability": "view",
      "type": "function"
    },
    {
      "inputs": [],
      "name": "withdraw",
      "outputs": [],
      "stateMutability": "nonpayable",
      "type": "function"
    },
    {
      "stateMutability": "payable",
      "type": "receive"
    }
  ],
  "bytecode": "0x60806040523480156200001157600080fd5b506040516200277238038062002772833981016040819052620000349162000109565b6200003f33620000a0565b600180546001600160a01b039687166001600160a01b03199182161790915560048054938716938216939093179092556007556032600855600280549385169382169390931790925560038054919093169116179055600a6009556200017d565b600080546001600160a01b038381166001600160a01b0319831681178455604051919092169283917f8be0079c531659141344cd1fd0a4f28419497f9722a3daafe3b4186f6b6457e09190a35050565b6001600160a01b03811681146200010657600080fd5b50565b600080600080600060a086880312156200012257600080fd5b85516200012f81620000f0565b60208701519095506200014281620000f0565b60408701519094506200015581620000f0565b60608701519093506200016881620000f0565b80925050608086015190509295509295909350565b6125e5806200018d6000396000f3fe60806040526004361061010d5760003560e01c80638bdb2afa11610095578063c45a015511610064578063c45a015514610338578063d477f05f14610358578063d49e77cd14610378578063f2eb6b5f14610398578063f2fde38b146103b857600080fd5b80638bdb2afa1461024a5780638c40b5901461026a5780638da5cb5b146102a557806390e1a003146102c357600080fd5b80635cd37739116100dc5780635cd3773914610190578063678edca3146101cd578063715018a6146101ed57806381f46839146102025780638251c5c31461023757600080fd5b80631e9f8aad1461011957806331b31b881461013b5780633ccfd60b1461015b5780633f6738a91461017057600080fd5b3661011457005b600080fd5b34801561012557600080fd5b50610139610134366004610f86565b6103d8565b005b34801561014757600080fd5b50610139610156366004610fa3565b610402565b34801561016757600080fd5b5061013961040f565b34801561017c57600080fd5b5061013961018b366004610fa3565b6104fd565b34801561019c57600080fd5b506003546101b0906001600160a01b031681565b6040516001600160a01b0390911681526020015b60405180910390f35b3480156101d957600080fd5b506101396101e8366004610fa3565b61050a565b3480156101f957600080fd5b50610139610517565b34801561020e57600080fd5b5061022261021d366004610fca565b61052b565b604080519283526020830191909152016101c4565b6101b061024536600461101f565b610631565b34801561025657600080fd5b506002546101b0906001600160a01b031681565b34801561027657600080fd5b5061028a6102853660046110a5565b610d37565b604080519384526020840192909252908201526060016101c4565b3480156102b157600080fd5b506000546001600160a01b03166101b0565b3480156102cf57600080fd5b50600554600654600754600854600954610301946001600160a01b03811694600160a01b90910460ff16939092909186565b604080516001600160a01b0390971687529415156020870152938501929092526060840152608083015260a082015260c0016101c4565b34801561034457600080fd5b506001546101b0906001600160a01b031681565b34801561036457600080fd5b50610139610373366004610f86565b610dba565b34801561038457600080fd5b506004546101b0906001600160a01b031681565b3480156103a457600080fd5b506101396103b33660046110e0565b610de4565b3480156103c457600080fd5b506101396103d3366004610f86565b610e0a565b6103e0610e83565b600580546001600160a01b0319166001600160a01b0392909216919091179055565b61040a610e83565b600855565b610417610e83565b47806104605760405162461bcd60e51b8152602060048201526013602482015272125b9cdd59999a58da595b9d08185b5bdd5b9d606a1b60448201526064015b60405180910390fd5b6004546040516000916001600160a01b03169083908381818185875af1925050503d80600081146104ad576040519150601f19603f3d011682016040523d82523d6000602084013e6104b2565b606091505b50509050806104f95760405162461bcd60e51b81526020600482015260136024820152722330b4b632b2103332b2903a3930b739b332b960691b6044820152606401610457565b5050565b610505610e83565b600755565b610512610e83565b600655565b61051f610e83565b6105296000610edd565b565b60008061056e6040518060e00160405280600081526020016000815260200160008152602001600081526020016000815260200160008152602001600081525090565b6105788688610f2d565b80825261059190899061058b9088610f40565b90610f40565b602082018190526105af9089906105a9908c90610f2d565b90610f4c565b6040820181905281516105ce9189916105c89190610f58565b90610f58565b6060820152831561060b576060810151600954600854610601916103e8916105a9916105fa9190610f2d565b8d90610f40565b9250925050610626565b6060810151600854610601906103e8906105a9908d90610f40565b965096945050505050565b600043861161066a5760405162461bcd60e51b815260206004820152600560248201526414d510549560da1b6044820152606401610457565b600084116106a25760405162461bcd60e51b8152602060048201526005602482015264424f4e555360d81b6044820152606401610457565b6001600160a01b038a166106e05760405162461bcd60e51b81526020600482015260056024820152642a27a5a2a760d91b6044820152606401610457565b6103e887116107165760405162461bcd60e51b8152602060048201526002602482015261212960f11b6044820152606401610457565b60075434101561075e5760405162461bcd60e51b8152602060048201526013602482015272125b9cdd59999a58da595b9d08185b5bdd5b9d606a1b6044820152606401610457565b60025460408051630dfe168160e01b815290518a926000926001600160a01b039182169263e6a4390592861691630dfe1681916004808301926020929190829003018186803b1580156107b057600080fd5b505afa1580156107c4573d6000803e3d6000fd5b505050506040513d601f19601f820116820180604052508101906107e891906110fd565b846001600160a01b031663d21220a76040518163ffffffff1660e01b815260040160206040518083038186803b15801561082157600080fd5b505afa158015610835573d6000803e3d6000fd5b505050506040513d601f19601f8201168201806040525081019061085991906110fd565b6040516001600160e01b031960e085901b1681526001600160a01b0392831660048201529116602482015260440160206040518083038186803b15801561089f57600080fd5b505afa1580156108b3573d6000803e3d6000fd5b505050506040513d601f19601f820116820180604052508101906108d791906110fd565b9050896001600160a01b0316816001600160a01b03161461093a5760405162461bcd60e51b815260206004820152601b60248201527f546869732070616972206973206e6f74206f6e20756e697377617000000000006044820152606401610457565b61097a6040518060e00160405280600081526020016000815260200160008152602001600081526020016000815260200160008152602001600081525090565b6109888c8b8b8b8b8a61052b565b60a083018190526060830191909152600480546040516323b872dd60e01b815233928101929092526001600160a01b0390811660248301526044820192909252908e16906323b872dd90606401602060405180830381600087803b1580156109ef57600080fd5b505af1158015610a03573d6000803e3d6000fd5b505050506040513d601f19601f82011682018060405250810190610a27919061111a565b506001546040516000916001600160a01b0316903090610a4690610f64565b6001600160a01b03928316815291166020820152604001604051809103906000f080158015610a79573d6000803e3d6000fd5b50905060008d90508e6001600160a01b03166323b872dd3384846040518463ffffffff1660e01b8152600401610ad0939291906001600160a01b039384168152919092166020820152604081019190915260600190565b602060405180830381600087803b158015610aea57600080fd5b505af1158015610afe573d6000803e3d6000fd5b505050506040513d601f19601f82011682018060405250810190610b22919061111a565b610b675760405162461bcd60e51b81526020600482015260166024820152752a37b5b2b7103a3930b739b332b9103330b4b632b21760511b6044820152606401610457565b610bdd60405180610180016040528060006001600160a01b0316815260200160006001600160a01b03168152602001600081526020016000815260200160008152602001600081526020016000815260200160008152602001600081526020016000815260200160008152602001600081525090565b8f81602001906001600160a01b031690816001600160a01b0316815250508e816101200181815250508d81600001906001600160a01b031690816001600160a01b0316815250508c8160600181815250508b81604001818152505083606001518160c00181815250508a816080018181525050898160a00181815250508881610160018181525050826001600160a01b0316638db2e968826040518263ffffffff1660e01b8152600401610c919190611137565b600060405180830381600087803b158015610cab57600080fd5b505af1158015610cbf573d6000803e3d6000fd5b505060015460405163edcd5d1760e01b81526001600160a01b038781166004830152909116925063edcd5d179150602401600060405180830381600087803b158015610d0a57600080fd5b505af1158015610d1e573d6000803e3d6000fd5b5094985050505050505050509998505050505050505050565b6000808080610d468789610f2d565b90506000610d548689610f2d565b90506000610d66826105c8858b610f40565b90506000610d748c83610f4c565b90506000610d828284610f40565b90508181610da46103e86105a960056003015486610f4090919063ffffffff16565b9750975097505050505050955095509592505050565b610dc2610e83565b600480546001600160a01b0319166001600160a01b0392909216919091179055565b610dec610e83565b60058054911515600160a01b0260ff60a01b19909216919091179055565b610e12610e83565b6001600160a01b038116610e775760405162461bcd60e51b815260206004820152602660248201527f4f776e61626c653a206e6577206f776e657220697320746865207a65726f206160448201526564647265737360d01b6064820152608401610457565b610e8081610edd565b50565b6000546001600160a01b031633146105295760405162461bcd60e51b815260206004820181905260248201527f4f776e61626c653a2063616c6c6572206973206e6f7420746865206f776e65726044820152606401610457565b600080546001600160a01b038381166001600160a01b0319831681178455604051919092169283917f8be0079c531659141344cd1fd0a4f28419497f9722a3daafe3b4186f6b6457e09190a35050565b6000610f3982846111ec565b9392505050565b6000610f398284611203565b6000610f398284611222565b6000610f398284611244565b6113538061125d83390190565b6001600160a01b0381168114610e8057600080fd5b600060208284031215610f9857600080fd5b8135610f3981610f71565b600060208284031215610fb557600080fd5b5035919050565b8015158114610e8057600080fd5b60008060008060008060c08789031215610fe357600080fd5b863595506020870135945060408701359350606087013592506080870135915060a087013561101181610fbc565b809150509295509295509295565b60008060008060008060008060006101208a8c03121561103e57600080fd5b893561104981610f71565b985060208a0135975060408a013561106081610f71565b965060608a0135955060808a0135945060a08a0135935060c08a0135925060e08a013591506101008a013561109481610fbc565b809150509295985092959850929598565b600080600080600060a086880312156110bd57600080fd5b505083359560208501359550604085013594606081013594506080013592509050565b6000602082840312156110f257600080fd5b8135610f3981610fbc565b60006020828403121561110f57600080fd5b8151610f3981610f71565b60006020828403121561112c57600080fd5b8151610f3981610fbc565b81516001600160a01b031681526101808101602083015161116360208401826001600160a01b03169052565b5060408301516040830152606083015160608301526080830151608083015260a083015160a083015260c083015160c083015260e083015160e083015261010080840151818401525061012080840151818401525061014080840151818401525061016080840151818401525092915050565b634e487b7160e01b600052601160045260246000fd5b6000828210156111fe576111fe6111d6565b500390565b600081600019048311821515161561121d5761121d6111d6565b500290565b60008261123f57634e487b7160e01b600052601260045260246000fd5b500490565b60008219821115611257576112576111d6565b50019056fe608060405234801561001057600080fd5b5060405161135338038061135383398101604081905261002f9161007c565b600080546001600160a01b039384166001600160a01b031991821617909155600180549290931691161790556100af565b80516001600160a01b038116811461007757600080fd5b919050565b6000806040838503121561008f57600080fd5b61009883610060565b91506100a660208401610060565b90509250929050565b611295806100be6000396000f3fe608060405234801561001057600080fd5b50600436106100b45760003560e01c8063b6b55f2511610071578063b6b55f251461022d578063c45a015514610240578063db2e21bc14610253578063dd4670641461025b578063e3161ddd1461027e578063f40f0f521461028657600080fd5b80631959a002146100b95780631d49d66c146101135780632dd99996146101b95780632e1a7d4d146101e45780638db2e968146101f95780638dbb1e3a1461020c575b600080fd5b6100ee6100c7366004610fa4565b600e6020526000908152604090208054600182015460028301546003909301549192909184565b6040805194855260208501939093529183015260608201526080015b60405180910390f35b600254600354600454600554600654600754600854600954600a54600b54600c54600d546101559b6001600160a01b039081169b16999897969594939291908c565b604080516001600160a01b039d8e1681529c909b1660208d0152998b019890985260608a0196909652608089019490945260a088019290925260c087015260e08601526101008501526101208401526101408301526101608201526101800161010a565b6001546101cc906001600160a01b031681565b6040516001600160a01b03909116815260200161010a565b6101f76101f2366004610fc1565b610299565b005b6101f7610207366004611022565b6104d0565b61021f61021a3660046110cf565b6105b6565b60405190815260200161010a565b6101f761023b366004610fc1565b61065b565b6000546101cc906001600160a01b031681565b6101f76107c8565b6101f7610269366004610fc1565b336000908152600e6020526040902060020155565b6101f76108b0565b61021f610294366004610fa4565b6109bb565b336000908152600e6020526040902080548211156102ed5760405162461bcd60e51b815260206004820152600c60248201526b125394d551919250d251539560a21b60448201526064015b60405180910390fd5b42816003015482600201546103029190611107565b11156103505760405162461bcd60e51b815260206004820152601760248201527f596f752063616e2774207769746864726177206e6f772e00000000000000000060448201526064016102e4565b6103586108b0565b8054821480156103685750600082115b156103e157600054604051631db2c95560e21b81523360048201526001600160a01b03909116906376cb255490602401600060405180830381600087803b1580156103b257600080fd5b505af11580156103c6573d6000803e3d6000fd5b5050600c80549250905060006103db8361111f565b91905055505b600061041c826001015461041664e8d4a510006104106002600801548760000154610b0a90919063ffffffff16565b90610b1d565b90610b29565b60028301549091501561044957600d5460028301546104469161043f9190610b1d565b8290610b0a565b90505b6104533382610b35565b815461045f9084610b29565b808355600a5461047a9164e8d4a51000916104109190610b0a565b6001830155600254610496906001600160a01b03163385610c86565b60405183815233907f884edad9ce6fa2440d8a54cc123490eb96d2768479d49ff9c7366125a94243649060200160405180910390a2505050565b6001546001600160a01b031633146105165760405162461bcd60e51b81526020600482015260096024820152682327a92124a22222a760b91b60448201526064016102e4565b6020810151600380546001600160a01b0319166001600160a01b03909216919091179055604081015160048190556060820151600555608082015160065560a0820151600755600090431161056f578160400151610571565b435b8251600280546001600160a01b0319166001600160a01b03909216919091179055600955506000600a5560c0810151600855610120810151600b556101600151600d55565b60008060028001548410156105cd576004546105cf565b835b9050600083600260060154116105e7576008546105e9565b835b60065490915081116106155760075461060c906106068385610b29565b90610b0a565b92505050610655565b60065482106106285761060c8183610b29565b60065461060c9061063a908390610b29565b60075460065461064f91906106069087610b29565b90610ce9565b92915050565b336000908152600e602052604090206106726108b0565b8054156106b65760006106a8826001015461041664e8d4a510006104106002600801548760000154610b0a90919063ffffffff16565b90506106b43382610b35565b505b80541580156106c55750600082115b1561073e576000546040516379cdf99b60e01b81523360048201526001600160a01b03909116906379cdf99b90602401600060405180830381600087803b15801561070f57600080fd5b505af1158015610723573d6000803e3d6000fd5b5050600c805492509050600061073883611136565b91905055505b600254610756906001600160a01b0316333085610cf5565b80546107629083610ce9565b808255600a5461077d9164e8d4a51000916104109190610b0a565b60018201556000600282015542600382015560405182815233907fe1fffcc4923d04b559f4d29a8bfc6cda04eb5b0d3c460751c2402c5c5cc9109c9060200160405180910390a25050565b336000818152600e60205260409020805460025491926107f1926001600160a01b031691610c86565b805460405190815233907f5fafa99d0643513820be26656b45130b01e1c03062e1266bf36f88cbd3bd96959060200160405180910390a28054156108a357600054604051631db2c95560e21b81523360048201526001600160a01b03909116906376cb255490602401600060405180830381600087803b15801561087457600080fd5b505af1158015610888573d6000803e3d6000fd5b5050600c805492509050600061089d8361111f565b91905055505b6000808255600190910155565b60095443116108bb57565b6002546040516370a0823160e01b81523060048201526000916001600160a01b0316906370a082319060240160206040518083038186803b1580156108ff57600080fd5b505afa158015610913573d6000803e3d6000fd5b505050506040513d601f19601f820116820180604052508101906109379190611151565b90508061095757600854431061094f57600854610951565b435b60095550565b6000610968600260070154436105b6565b60055490915060009061097c908390610b0a565b905061099d610994846104108464e8d4a51000610b0a565b600a5490610ce9565b600a5560085443106109b1576008546109b3565b435b600955505050565b6001600160a01b038181166000908152600e6020526040808220600a5460025492516370a0823160e01b8152306004820152939491939092859216906370a082319060240160206040518083038186803b158015610a1857600080fd5b505afa158015610a2c573d6000803e3d6000fd5b505050506040513d601f19601f82011682018060405250810190610a509190611151565b60095490915043118015610a6357508015155b15610ab1576000610a79600260070154436105b6565b600554909150600090610a8d908390610b0a565b9050610aac610aa5846104108464e8d4a51000610b0a565b8590610ce9565b935050505b6000610adb846001015461041664e8d4a51000610410878960000154610b0a90919063ffffffff16565b600285015490915015610b0157600d546002850154610afe9161043f9190610b1d565b90505b95945050505050565b6000610b16828461116a565b9392505050565b6000610b168284611189565b6000610b1682846111ab565b6003546040516370a0823160e01b81523060048201526000916001600160a01b0316906370a082319060240160206040518083038186803b158015610b7957600080fd5b505afa158015610b8d573d6000803e3d6000fd5b505050506040513d601f19601f82011682018060405250810190610bb19190611151565b905080821115610c485760035460405163a9059cbb60e01b81526001600160a01b038581166004830152602482018490529091169063a9059cbb906044015b602060405180830381600087803b158015610c0a57600080fd5b505af1158015610c1e573d6000803e3d6000fd5b505050506040513d601f19601f82011682018060405250810190610c4291906111c2565b50505050565b60035460405163a9059cbb60e01b81526001600160a01b038581166004830152602482018590529091169063a9059cbb90604401610bf0565b505050565b6040516001600160a01b038316602482015260448101829052610c8190849063a9059cbb60e01b906064015b60408051601f198184030181529190526020810180516001600160e01b03166001600160e01b031990931692909217909152610d2d565b6000610b168284611107565b6040516001600160a01b0380851660248301528316604482015260648101829052610c429085906323b872dd60e01b90608401610cb2565b6000610d82826040518060400160405280602081526020017f5361666545524332303a206c6f772d6c6576656c2063616c6c206661696c6564815250856001600160a01b0316610dff9092919063ffffffff16565b805190915015610c815780806020019051810190610da091906111c2565b610c815760405162461bcd60e51b815260206004820152602a60248201527f5361666545524332303a204552433230206f7065726174696f6e20646964206e6044820152691bdd081cdd58d8d9595960b21b60648201526084016102e4565b6060610e0e8484600085610e16565b949350505050565b606082471015610e775760405162461bcd60e51b815260206004820152602660248201527f416464726573733a20696e73756666696369656e742062616c616e636520666f6044820152651c8818d85b1b60d21b60648201526084016102e4565b600080866001600160a01b03168587604051610e939190611210565b60006040518083038185875af1925050503d8060008114610ed0576040519150601f19603f3d011682016040523d82523d6000602084013e610ed5565b606091505b5091509150610ee687838387610ef1565b979650505050505050565b60608315610f5d578251610f56576001600160a01b0385163b610f565760405162461bcd60e51b815260206004820152601d60248201527f416464726573733a2063616c6c20746f206e6f6e2d636f6e747261637400000060448201526064016102e4565b5081610e0e565b610e0e8383815115610f725781518083602001fd5b8060405162461bcd60e51b81526004016102e4919061122c565b6001600160a01b0381168114610fa157600080fd5b50565b600060208284031215610fb657600080fd5b8135610b1681610f8c565b600060208284031215610fd357600080fd5b5035919050565b604051610180810167ffffffffffffffff8111828210171561100c57634e487b7160e01b600052604160045260246000fd5b60405290565b803561101d81610f8c565b919050565b6000610180828403121561103557600080fd5b61103d610fda565b61104683611012565b815261105460208401611012565b602082015260408301356040820152606083013560608201526080830135608082015260a083013560a082015260c083013560c082015260e083013560e08201526101008084013581830152506101208084013581830152506101408084013581830152506101608084013581830152508091505092915050565b600080604083850312156110e257600080fd5b50508035926020909101359150565b634e487b7160e01b600052601160045260246000fd5b6000821982111561111a5761111a6110f1565b500190565b60008161112e5761112e6110f1565b506000190190565b600060001982141561114a5761114a6110f1565b5060010190565b60006020828403121561116357600080fd5b5051919050565b6000816000190483118215151615611184576111846110f1565b500290565b6000826111a657634e487b7160e01b600052601260045260246000fd5b500490565b6000828210156111bd576111bd6110f1565b500390565b6000602082840312156111d457600080fd5b81518015158114610b1657600080fd5b60005b838110156111ff5781810151838201526020016111e7565b83811115610c425750506000910152565b600082516112228184602087016111e4565b9190910192915050565b602081526000825180602084015261124b8160408501602087016111e4565b601f01601f1916919091016040019291505056fea2646970667358221220ee16814d2d6a50bc179de588f238e9289dfd958336fe908f9138fbadc731a83664736f6c63430008090033a26469706673582212203d8f8f564ea400f15f230213db5c7a4dd5f64e99d17728ada01fe394aa2de37564736f6c63430008090033",
  "linkReferences": {},
  "deployedLinkReferences": {}
}