{
  "_format": "hh-sol-artifact-1",
  "contractName": "FarmGenerator",
  "sourceName": "contracts/FarmGenerator.sol",
  "abi": [
    {
      "inputs": [
        {
          "internalType": "contract IFactory",
          "name": "_factory",
          "type": "address"
        },
        {
          "internalType": "contract IUniFactory",
          "name": "_uniswapFactory",
          "type": "address"
        }
      ],
      "stateMutability": "nonpayable",
      "type": "constructor"
    },
    {
      "anonymous": false,
      "inputs": [
        {
          "indexed": true,
          "internalType": "address",
          "name": "previousOwner",
          "type": "address"
        },
        {
          "indexed": true,
          "internalType": "address",
          "name": "newOwner",
          "type": "address"
        }
      ],
      "name": "OwnershipTransferred",
      "type": "event"
    },
    {
      "inputs": [
        {
          "internalType": "contract IERC20",
          "name": "_rewardToken",
          "type": "address"
        },
        {
          "internalType": "uint256",
          "name": "_amount",
          "type": "uint256"
        },
        {
          "internalType": "contract IERC20",
          "name": "_lpToken",
          "type": "address"
        },
        {
          "internalType": "uint256",
          "name": "_blockReward",
          "type": "uint256"
        },
        {
          "internalType": "uint256",
          "name": "_startBlock",
          "type": "uint256"
        },
        {
          "internalType": "uint256",
          "name": "_bonusEndBlock",
          "type": "uint256"
        },
        {
          "internalType": "uint256",
          "name": "_bonus",
          "type": "uint256"
        },
        {
          "internalType": "address",
          "name": "_referralAddress",
          "type": "address"
        }
      ],
      "name": "createFarm",
      "outputs": [
        {
          "internalType": "address",
          "name": "",
          "type": "address"
        }
      ],
      "stateMutability": "payable",
      "type": "function"
    },
    {
      "inputs": [
        {
          "internalType": "uint256",
          "name": "_amount",
          "type": "uint256"
        },
        {
          "internalType": "uint256",
          "name": "_startBlock",
          "type": "uint256"
        },
        {
          "internalType": "uint256",
          "name": "_bonusEndBlock",
          "type": "uint256"
        },
        {
          "internalType": "uint256",
          "name": "_bonus",
          "type": "uint256"
        },
        {
          "internalType": "uint256",
          "name": "_endBlock",
          "type": "uint256"
        }
      ],
      "name": "determineBlockReward",
      "outputs": [
        {
          "internalType": "uint256",
          "name": "",
          "type": "uint256"
        },
        {
          "internalType": "uint256",
          "name": "",
          "type": "uint256"
        },
        {
          "internalType": "uint256",
          "name": "",
          "type": "uint256"
        }
      ],
      "stateMutability": "view",
      "type": "function"
    },
    {
      "inputs": [
        {
          "internalType": "uint256",
          "name": "_amount",
          "type": "uint256"
        },
        {
          "internalType": "uint256",
          "name": "_blockReward",
          "type": "uint256"
        },
        {
          "internalType": "uint256",
          "name": "_startBlock",
          "type": "uint256"
        },
        {
          "internalType": "uint256",
          "name": "_bonusEndBlock",
          "type": "uint256"
        },
        {
          "internalType": "uint256",
          "name": "_bonus",
          "type": "uint256"
        },
        {
          "internalType": "address",
          "name": "_referralAddress",
          "type": "address"
        }
      ],
      "name": "determineEndBlock",
      "outputs": [
        {
          "internalType": "uint256",
          "name": "",
          "type": "uint256"
        },
        {
          "internalType": "uint256",
          "name": "",
          "type": "uint256"
        },
        {
          "internalType": "uint256",
          "name": "",
          "type": "uint256"
        },
        {
          "internalType": "uint256",
          "name": "",
          "type": "uint256"
        }
      ],
      "stateMutability": "view",
      "type": "function"
    },
    {
      "inputs": [],
      "name": "factory",
      "outputs": [
        {
          "internalType": "contract IFactory",
          "name": "",
          "type": "address"
        }
      ],
      "stateMutability": "view",
      "type": "function"
    },
    {
      "inputs": [],
      "name": "gFees",
      "outputs": [
        {
          "internalType": "contract IERCBurn",
          "name": "gasToken",
          "type": "address"
        },
        {
          "internalType": "bool",
          "name": "useGasToken",
          "type": "bool"
        },
        {
          "internalType": "uint256",
          "name": "gasFee",
          "type": "uint256"
        },
        {
          "internalType": "uint256",
          "name": "ethFee",
          "type": "uint256"
        },
        {
          "internalType": "uint256",
          "name": "tokenFee",
          "type": "uint256"
        },
        {
          "internalType": "uint256",
          "name": "referralFee",
          "type": "uint256"
        }
      ],
      "stateMutability": "view",
      "type": "function"
    },
    {
      "inputs": [],
      "name": "owner",
      "outputs": [
        {
          "internalType": "address",
          "name": "",
          "type": "address"
        }
      ],
      "stateMutability": "view",
      "type": "function"
    },
    {
      "inputs": [],
      "name": "renounceOwnership",
      "outputs": [],
      "stateMutability": "nonpayable",
      "type": "function"
    },
    {
      "inputs": [
        {
          "internalType": "address payable",
          "name": "_devaddr",
          "type": "address"
        }
      ],
      "name": "setDev",
      "outputs": [],
      "stateMutability": "nonpayable",
      "type": "function"
    },
    {
      "inputs": [
        {
          "internalType": "uint256",
          "name": "_amount",
          "type": "uint256"
        }
      ],
      "name": "setEthFee",
      "outputs": [],
      "stateMutability": "nonpayable",
      "type": "function"
    },
    {
      "inputs": [
        {
          "internalType": "uint256",
          "name": "_amount",
          "type": "uint256"
        }
      ],
      "name": "setGasFee",
      "outputs": [],
      "stateMutability": "nonpayable",
      "type": "function"
    },
    {
      "inputs": [
        {
          "internalType": "contract IERCBurn",
          "name": "_gasToken",
          "type": "address"
        }
      ],
      "name": "setGasToken",
      "outputs": [],
      "stateMutability": "nonpayable",
      "type": "function"
    },
    {
      "inputs": [
        {
          "internalType": "bool",
          "name": "_useGasToken",
          "type": "bool"
        }
      ],
      "name": "setRequireGasToken",
      "outputs": [],
      "stateMutability": "nonpayable",
      "type": "function"
    },
    {
      "inputs": [
        {
          "internalType": "uint256",
          "name": "_amount",
          "type": "uint256"
        }
      ],
      "name": "setTokenFee",
      "outputs": [],
      "stateMutability": "nonpayable",
      "type": "function"
    },
    {
      "inputs": [
        {
          "internalType": "address",
          "name": "newOwner",
          "type": "address"
        }
      ],
      "name": "transferOwnership",
      "outputs": [],
      "stateMutability": "nonpayable",
      "type": "function"
    },
    {
      "inputs": [],
      "name": "uniswapFactory",
      "outputs": [
        {
          "internalType": "contract IUniFactory",
          "name": "",
          "type": "address"
        }
      ],
      "stateMutability": "view",
      "type": "function"
    }
  ],
  "bytecode": "0x608060405234801561001057600080fd5b506040516200262438038062002624833981016040819052610031916100e7565b61003a3361007f565b600180546001600160a01b039384166001600160a01b03199182161790915560038054821633179055603260075560028054929093169116179055600a600855610121565b600080546001600160a01b038381166001600160a01b0319831681178455604051919092169283917f8be0079c531659141344cd1fd0a4f28419497f9722a3daafe3b4186f6b6457e09190a35050565b6001600160a01b03811681146100e457600080fd5b50565b600080604083850312156100fa57600080fd5b8251610105816100cf565b6020840151909250610116816100cf565b809150509250929050565b6124f380620001316000396000f3fe6080604052600436106100e85760003560e01c80638c40b5901161008a578063c45a015511610059578063c45a0155146102e2578063d477f05f14610302578063f2eb6b5f14610322578063f2fde38b1461034257600080fd5b80638c40b590146102015780638da5cb5b1461023c57806390e1a0031461025a578063bfa04e86146102cf57600080fd5b80633f6738a9116100c65780633f6738a914610174578063678edca314610194578063715018a6146101b45780638bdb2afa146101c957600080fd5b806313b2a343146100ed5780631e9f8aad1461013257806331b31b8814610154575b600080fd5b3480156100f957600080fd5b5061010d61010836600461106c565b610362565b6040805194855260208501939093529183015260608201526080015b60405180910390f35b34801561013e57600080fd5b5061015261014d3660046110c1565b6104f0565b005b34801561016057600080fd5b5061015261016f3660046110de565b61051a565b34801561018057600080fd5b5061015261018f3660046110de565b610527565b3480156101a057600080fd5b506101526101af3660046110de565b610534565b3480156101c057600080fd5b50610152610541565b3480156101d557600080fd5b506002546101e9906001600160a01b031681565b6040516001600160a01b039091168152602001610129565b34801561020d57600080fd5b5061022161021c3660046110f7565b610555565b60408051938452602084019290925290820152606001610129565b34801561024857600080fd5b506000546001600160a01b03166101e9565b34801561026657600080fd5b50600454600554600654600754600854610298946001600160a01b03811694600160a01b90910460ff16939092909186565b604080516001600160a01b0390971687529415156020870152938501929092526060840152608083015260a082015260c001610129565b6101e96102dd366004611132565b61060b565b3480156102ee57600080fd5b506001546101e9906001600160a01b031681565b34801561030e57600080fd5b5061015261031d3660046110c1565b610b9c565b34801561032e57600080fd5b5061015261033d3660046111bc565b610bc6565b34801561034e57600080fd5b5061015261035d3660046110c1565b610bec565b600080600080610370610ffe565b60075461038c906103e890610386908e90610c65565b90610c78565b80825261039a908c90610c84565b60208201526103a9888a610c84565b604082018190526103c6908b906103c0908a610c65565b90610c65565b6060820181905260208201516103e1918c9161038691610c84565b608082018190526040820151610403918b916103fd9190610c90565b90610c90565b60a08201819052600090610417908a610c84565b90506000610436826103fd8b8660400151610c6590919063ffffffff16565b905060006104448d83610c65565b90506001600160a01b038916156104b05760a0840151600854600754839161047e916103e8916103869161047791610c84565b8690610c65565b60085461049f906103e89061038690610498906002610c78565b8790610c65565b9750975097509750505050506104e3565b8360a00151816104d46103e861038660046003015486610c6590919063ffffffff16565b60009750975097509750505050505b9650965096509692505050565b6104f8610c9c565b600480546001600160a01b0319166001600160a01b0392909216919091179055565b610522610c9c565b600755565b61052f610c9c565b600655565b61053c610c9c565b600555565b610549610c9c565b6105536000610cf6565b565b6000806000806105796103e86103866004600301548c610c6590919063ffffffff16565b905060006105878a83610c84565b90506000610595898b610c84565b905060006105a3888b610c84565b905060006105b5826103fd858d610c65565b905060006105c38583610c78565b905060006105d18284610c65565b905081816105f36103e861038660046003015486610c6590919063ffffffff16565b99509950995050505050505050955095509592505050565b60004385116106495760405162461bcd60e51b815260206004820152600560248201526414d510549560da1b60448201526064015b60405180910390fd5b600083116106815760405162461bcd60e51b8152602060048201526005602482015264424f4e555360d81b6044820152606401610640565b6001600160a01b0389166106bf5760405162461bcd60e51b81526020600482015260056024820152642a27a5a2a760d91b6044820152606401610640565b6103e886116106f55760405162461bcd60e51b8152602060048201526002602482015261212960f11b6044820152606401610640565b60025460408051630dfe168160e01b8152905189926000926001600160a01b039182169263e6a4390592861691630dfe1681916004808301926020929190829003018186803b15801561074757600080fd5b505afa15801561075b573d6000803e3d6000fd5b505050506040513d601f19601f8201168201806040525081019061077f91906111d9565b846001600160a01b031663d21220a76040518163ffffffff1660e01b815260040160206040518083038186803b1580156107b857600080fd5b505afa1580156107cc573d6000803e3d6000fd5b505050506040513d601f19601f820116820180604052508101906107f091906111d9565b6040516001600160e01b031960e085901b1681526001600160a01b0392831660048201529116602482015260440160206040518083038186803b15801561083657600080fd5b505afa15801561084a573d6000803e3d6000fd5b505050506040513d601f19601f8201168201806040525081019061086e91906111d9565b9050886001600160a01b0316816001600160a01b0316146108d15760405162461bcd60e51b815260206004820152601b60248201527f546869732070616972206973206e6f74206f6e20756e697377617000000000006044820152606401610640565b6108d9610ffe565b6108e78b8a8a8a8a8a610362565b610100850181905260e085019190915260c084019190915260a08301919091521561092a5761010081015161092a906001600160a01b038e169033908890610d46565b60035460e082015161094e916001600160a01b038f81169233929190911690610d46565b6001546040516000916001600160a01b031690309061096c9061104a565b6001600160a01b03928316815291166020820152604001604051809103906000f08015801561099f573d6000803e3d6000fd5b5060c08301516040516323b872dd60e01b81523360048201526001600160a01b03808416602483015260448201929092529192508e16906323b872dd90606401602060405180830381600087803b1580156109f957600080fd5b505af1158015610a0d573d6000803e3d6000fd5b505050506040513d601f19601f82011682018060405250810190610a3191906111f6565b610a765760405162461bcd60e51b81526020600482015260166024820152752a37b5b2b7103a3930b739b332b9103330b4b632b21760511b6044820152606401610640565b806001600160a01b031663b20268c28e8460c001518e8e8e8860a001518f8f6040518963ffffffff1660e01b8152600401610afa9897969594939291906001600160a01b03988916815260208101979097529490961660408601526060850192909252608084015260a083015260c082019290925260e08101919091526101000190565b600060405180830381600087803b158015610b1457600080fd5b505af1158015610b28573d6000803e3d6000fd5b505060015460405163edcd5d1760e01b81526001600160a01b038581166004830152909116925063edcd5d179150602401600060405180830381600087803b158015610b7357600080fd5b505af1158015610b87573d6000803e3d6000fd5b50929f9e505050505050505050505050505050565b610ba4610c9c565b600380546001600160a01b0319166001600160a01b0392909216919091179055565b610bce610c9c565b60048054911515600160a01b0260ff60a01b19909216919091179055565b610bf4610c9c565b6001600160a01b038116610c595760405162461bcd60e51b815260206004820152602660248201527f4f776e61626c653a206e6577206f776e657220697320746865207a65726f206160448201526564647265737360d01b6064820152608401610640565b610c6281610cf6565b50565b6000610c718284611229565b9392505050565b6000610c718284611248565b6000610c71828461126a565b6000610c718284611281565b6000546001600160a01b031633146105535760405162461bcd60e51b815260206004820181905260248201527f4f776e61626c653a2063616c6c6572206973206e6f7420746865206f776e65726044820152606401610640565b600080546001600160a01b038381166001600160a01b0319831681178455604051919092169283917f8be0079c531659141344cd1fd0a4f28419497f9722a3daafe3b4186f6b6457e09190a35050565b604080516001600160a01b0385811660248301528416604482015260648082018490528251808303909101815260849091019091526020810180516001600160e01b03166323b872dd60e01b179052610da0908590610da6565b50505050565b6000610dfb826040518060400160405280602081526020017f5361666545524332303a206c6f772d6c6576656c2063616c6c206661696c6564815250856001600160a01b0316610e7d9092919063ffffffff16565b805190915015610e785780806020019051810190610e1991906111f6565b610e785760405162461bcd60e51b815260206004820152602a60248201527f5361666545524332303a204552433230206f7065726174696f6e20646964206e6044820152691bdd081cdd58d8d9595960b21b6064820152608401610640565b505050565b6060610e8c8484600085610e94565b949350505050565b606082471015610ef55760405162461bcd60e51b815260206004820152602660248201527f416464726573733a20696e73756666696369656e742062616c616e636520666f6044820152651c8818d85b1b60d21b6064820152608401610640565b6001600160a01b0385163b610f4c5760405162461bcd60e51b815260206004820152601d60248201527f416464726573733a2063616c6c20746f206e6f6e2d636f6e74726163740000006044820152606401610640565b600080866001600160a01b03168587604051610f6891906112c5565b60006040518083038185875af1925050503d8060008114610fa5576040519150601f19603f3d011682016040523d82523d6000602084013e610faa565b606091505b5091509150610fba828286610fc5565b979650505050505050565b60608315610fd4575081610c71565b825115610fe45782518084602001fd5b8160405162461bcd60e51b815260040161064091906112e1565b6040518061012001604052806000815260200160008152602001600081526020016000815260200160008152602001600081526020016000815260200160008152602001600081525090565b6111a98061131583390190565b6001600160a01b0381168114610c6257600080fd5b60008060008060008060c0878903121561108557600080fd5b863595506020870135945060408701359350606087013592506080870135915060a08701356110b381611057565b809150509295509295509295565b6000602082840312156110d357600080fd5b8135610c7181611057565b6000602082840312156110f057600080fd5b5035919050565b600080600080600060a0868803121561110f57600080fd5b505083359560208501359550604085013594606081013594506080013592509050565b600080600080600080600080610100898b03121561114f57600080fd5b883561115a81611057565b975060208901359650604089013561117181611057565b9550606089013594506080890135935060a0890135925060c0890135915060e089013561119d81611057565b809150509295985092959890939650565b8015158114610c6257600080fd5b6000602082840312156111ce57600080fd5b8135610c71816111ae565b6000602082840312156111eb57600080fd5b8151610c7181611057565b60006020828403121561120857600080fd5b8151610c71816111ae565b634e487b7160e01b600052601160045260246000fd5b600081600019048311821515161561124357611243611213565b500290565b60008261126557634e487b7160e01b600052601260045260246000fd5b500490565b60008282101561127c5761127c611213565b500390565b6000821982111561129457611294611213565b500190565b60005b838110156112b457818101518382015260200161129c565b83811115610da05750506000910152565b600082516112d7818460208701611299565b9190910192915050565b6020815260008251806020840152611300816040850160208701611299565b601f01601f1916919091016040019291505056fe6080604052600160005534801561001557600080fd5b506040516111a93803806111a983398101604081905261003491610081565b600180546001600160a01b039384166001600160a01b031991821617909155600280549290931691161790556100b4565b80516001600160a01b038116811461007c57600080fd5b919050565b6000806040838503121561009457600080fd5b61009d83610065565b91506100ab60208401610065565b90509250929050565b6110e6806100c36000396000f3fe608060405234801561001057600080fd5b50600436106100b45760003560e01c8063b20268c211610071578063b20268c214610200578063b6b55f2514610213578063c45a015514610226578063db2e21bc14610239578063e3161ddd14610241578063f40f0f521461024957600080fd5b80631959a002146100b95780631d49d66c146100fa5780632dd99996146101965780632e1a7d4d146101c15780632ebed9ec146101d65780638dbb1e3a146101ed575b600080fd5b6100e06100c7366004610e7c565b600e602052600090815260409020805460019091015482565b604080519283526020830191909152015b60405180910390f35b600354600454600554600654600754600854600954600a54600b54600c54600d546101389a6001600160a01b039081169a169897969594939291908b565b604080516001600160a01b039c8d1681529b909a1660208c0152988a01979097526060890195909552608088019390935260a087019190915260c086015260e0850152610100840152610120830152610140820152610160016100f1565b6002546101a9906001600160a01b031681565b6040516001600160a01b0390911681526020016100f1565b6101d46101cf366004610e99565b61025c565b005b6101df60005481565b6040519081526020016100f1565b6101df6101fb366004610eb2565b610405565b6101d461020e366004610ed4565b6104ab565b6101d4610221366004610e99565b61056b565b6001546101a9906001600160a01b031681565b6101d46106cb565b6101d46107b3565b6101df610257366004610e7c565b6108be565b336000908152600e6020526040902080548211156102b05760405162461bcd60e51b815260206004820152600c60248201526b125394d551919250d251539560a21b60448201526064015b60405180910390fd5b6102b86107b3565b8054821480156102c85750600082115b1561034157600154604051631db2c95560e21b81523360048201526001600160a01b03909116906376cb255490602401600060405180830381600087803b15801561031257600080fd5b505af1158015610326573d6000803e3d6000fd5b5050600d805492509050600061033b83610f58565b91905055505b600061037c826001015461037664e8d4a5100061037060036008015487600001546109e590919063ffffffff16565b906109f8565b90610a04565b90506103883382610a10565b81546103949084610a04565b808355600b546103af9164e8d4a510009161037091906109e5565b60018301556003546103cb906001600160a01b03163385610b6a565b60405183815233907f884edad9ce6fa2440d8a54cc123490eb96d2768479d49ff9c7366125a94243649060200160405180910390a2505050565b60008060036002015484101561041d5760055461041f565b835b90506000836003600601541161043757600954610439565b835b60075490915081116104655760085461045c906104568385610a04565b906109e5565b925050506104a5565b60075482106104785761045c8183610a04565b60075461045c9061048a908390610a04565b60085460075461049f91906104569087610a04565b90610bcd565b92915050565b6002546001600160a01b031633146104f15760405162461bcd60e51b81526020600482015260096024820152682327a92124a22222a760b91b60448201526064016102a7565b600480546001600160a01b0319166001600160a01b038a161790556005849055600685905560078290556008819055600043851061052f5784610531565b435b600380546001600160a01b0319166001600160a01b039990991698909817909755505050600a9390935550506000600b55600955600c5550565b336000908152600e602052604090206105826107b3565b8054156105c65760006105b8826001015461037664e8d4a5100061037060036008015487600001546109e590919063ffffffff16565b90506105c43382610a10565b505b80541580156105d55750600082115b1561064e576001546040516379cdf99b60e01b81523360048201526001600160a01b03909116906379cdf99b90602401600060405180830381600087803b15801561061f57600080fd5b505af1158015610633573d6000803e3d6000fd5b5050600d805492509050600061064883610f6f565b91905055505b600354610666906001600160a01b0316333085610bd9565b80546106729083610bcd565b808255600b5461068d9164e8d4a510009161037091906109e5565b600182015560405182815233907fe1fffcc4923d04b559f4d29a8bfc6cda04eb5b0d3c460751c2402c5c5cc9109c9060200160405180910390a25050565b336000818152600e60205260409020805460035491926106f4926001600160a01b031691610b6a565b805460405190815233907f5fafa99d0643513820be26656b45130b01e1c03062e1266bf36f88cbd3bd96959060200160405180910390a28054156107a657600154604051631db2c95560e21b81523360048201526001600160a01b03909116906376cb255490602401600060405180830381600087803b15801561077757600080fd5b505af115801561078b573d6000803e3d6000fd5b5050600d80549250905060006107a083610f58565b91905055505b6000808255600190910155565b600a5443116107be57565b6003546040516370a0823160e01b81523060048201526000916001600160a01b0316906370a082319060240160206040518083038186803b15801561080257600080fd5b505afa158015610816573d6000803e3d6000fd5b505050506040513d601f19601f8201168201806040525081019061083a9190610f8a565b90508061085a57600954431061085257600954610854565b435b600a5550565b600061086b60036007015443610405565b60065490915060009061087f9083906109e5565b90506108a0610897846103708464e8d4a510006109e5565b600b5490610bcd565b600b5560095443106108b4576009546108b6565b435b600a55505050565b6001600160a01b038181166000908152600e6020526040808220600b5460035492516370a0823160e01b8152306004820152939491939092859216906370a082319060240160206040518083038186803b15801561091b57600080fd5b505afa15801561092f573d6000803e3d6000fd5b505050506040513d601f19601f820116820180604052508101906109539190610f8a565b600a549091504311801561096657508015155b156109b457600061097c60036007015443610405565b6006549091506000906109909083906109e5565b90506109af6109a8846103708464e8d4a510006109e5565b8590610bcd565b935050505b6109dc836001015461037664e8d4a510006103708688600001546109e590919063ffffffff16565b95945050505050565b60006109f18284610fa3565b9392505050565b60006109f18284610fc2565b60006109f18284610fe4565b600480546040516370a0823160e01b815230928101929092526000916001600160a01b03909116906370a082319060240160206040518083038186803b158015610a5957600080fd5b505afa158015610a6d573d6000803e3d6000fd5b505050506040513d601f19601f82011682018060405250810190610a919190610f8a565b905080821115610b2a576004805460405163a9059cbb60e01b81526001600160a01b03868116938201939093526024810184905291169063a9059cbb906044015b602060405180830381600087803b158015610aec57600080fd5b505af1158015610b00573d6000803e3d6000fd5b505050506040513d601f19601f82011682018060405250810190610b249190610ffb565b50505050565b6004805460405163a9059cbb60e01b81526001600160a01b03868116938201939093526024810185905291169063a9059cbb90604401610ad2565b505050565b6040516001600160a01b038316602482015260448101829052610b6590849063a9059cbb60e01b906064015b60408051601f198184030181529190526020810180516001600160e01b03166001600160e01b031990931692909217909152610c11565b60006109f1828461101d565b6040516001600160a01b0380851660248301528316604482015260648101829052610b249085906323b872dd60e01b90608401610b96565b6000610c66826040518060400160405280602081526020017f5361666545524332303a206c6f772d6c6576656c2063616c6c206661696c6564815250856001600160a01b0316610ce39092919063ffffffff16565b805190915015610b655780806020019051810190610c849190610ffb565b610b655760405162461bcd60e51b815260206004820152602a60248201527f5361666545524332303a204552433230206f7065726174696f6e20646964206e6044820152691bdd081cdd58d8d9595960b21b60648201526084016102a7565b6060610cf28484600085610cfa565b949350505050565b606082471015610d5b5760405162461bcd60e51b815260206004820152602660248201527f416464726573733a20696e73756666696369656e742062616c616e636520666f6044820152651c8818d85b1b60d21b60648201526084016102a7565b6001600160a01b0385163b610db25760405162461bcd60e51b815260206004820152601d60248201527f416464726573733a2063616c6c20746f206e6f6e2d636f6e747261637400000060448201526064016102a7565b600080866001600160a01b03168587604051610dce9190611061565b60006040518083038185875af1925050503d8060008114610e0b576040519150601f19603f3d011682016040523d82523d6000602084013e610e10565b606091505b5091509150610e20828286610e2b565b979650505050505050565b60608315610e3a5750816109f1565b825115610e4a5782518084602001fd5b8160405162461bcd60e51b81526004016102a7919061107d565b6001600160a01b0381168114610e7957600080fd5b50565b600060208284031215610e8e57600080fd5b81356109f181610e64565b600060208284031215610eab57600080fd5b5035919050565b60008060408385031215610ec557600080fd5b50508035926020909101359150565b600080600080600080600080610100898b031215610ef157600080fd5b8835610efc81610e64565b9750602089013596506040890135610f1381610e64565b979a96995096976060810135975060808101359660a0820135965060c0820135955060e0909101359350915050565b634e487b7160e01b600052601160045260246000fd5b600081610f6757610f67610f42565b506000190190565b6000600019821415610f8357610f83610f42565b5060010190565b600060208284031215610f9c57600080fd5b5051919050565b6000816000190483118215151615610fbd57610fbd610f42565b500290565b600082610fdf57634e487b7160e01b600052601260045260246000fd5b500490565b600082821015610ff657610ff6610f42565b500390565b60006020828403121561100d57600080fd5b815180151581146109f157600080fd5b6000821982111561103057611030610f42565b500190565b60005b83811015611050578181015183820152602001611038565b83811115610b245750506000910152565b60008251611073818460208701611035565b9190910192915050565b602081526000825180602084015261109c816040850160208701611035565b601f01601f1916919091016040019291505056fea2646970667358221220342b63999da6bbbc0c5edde6779df5579823eb97735859e12dd43000960956fe64736f6c63430008090033a264697066735822122092a655c331beeb453b09262e25f852bd9477185451e572686c199fb9aa3a0a3564736f6c63430008090033",
  "linkReferences": {},
  "deployedLinkReferences": {}
}