{
  "_format": "hh-sol-artifact-1",
  "contractName": "FarmGenerator",
  "sourceName": "contracts/FarmGenerator.sol",
  "abi": [
    {
      "inputs": [
        {
          "internalType": "contract IFactory",
          "name": "_factory",
          "type": "address"
        },
        {
          "internalType": "contract IUniFactory",
          "name": "_uniswapFactory",
          "type": "address"
        }
      ],
      "stateMutability": "nonpayable",
      "type": "constructor"
    },
    {
      "anonymous": false,
      "inputs": [
        {
          "indexed": true,
          "internalType": "address",
          "name": "previousOwner",
          "type": "address"
        },
        {
          "indexed": true,
          "internalType": "address",
          "name": "newOwner",
          "type": "address"
        }
      ],
      "name": "OwnershipTransferred",
      "type": "event"
    },
    {
      "inputs": [
        {
          "internalType": "address",
          "name": "_signer",
          "type": "address"
        },
        {
          "internalType": "address",
          "name": "_token",
          "type": "address"
        },
        {
          "internalType": "uint256",
          "name": "_amount",
          "type": "uint256"
        },
        {
          "internalType": "string",
          "name": "_code",
          "type": "string"
        }
      ],
      "name": "claimReferral",
      "outputs": [],
      "stateMutability": "nonpayable",
      "type": "function"
    },
    {
      "inputs": [
        {
          "internalType": "contract IERC20",
          "name": "_rewardToken",
          "type": "address"
        },
        {
          "internalType": "uint256",
          "name": "_amount",
          "type": "uint256"
        },
        {
          "internalType": "contract IERC20",
          "name": "_lpToken",
          "type": "address"
        },
        {
          "internalType": "uint256",
          "name": "_blockReward",
          "type": "uint256"
        },
        {
          "internalType": "uint256",
          "name": "_startBlock",
          "type": "uint256"
        },
        {
          "internalType": "uint256",
          "name": "_bonusEndBlock",
          "type": "uint256"
        },
        {
          "internalType": "uint256",
          "name": "_bonus",
          "type": "uint256"
        },
        {
          "internalType": "bool",
          "name": "_withReferral",
          "type": "bool"
        }
      ],
      "name": "createFarm",
      "outputs": [
        {
          "internalType": "address",
          "name": "",
          "type": "address"
        }
      ],
      "stateMutability": "payable",
      "type": "function"
    },
    {
      "inputs": [
        {
          "internalType": "uint256",
          "name": "_amount",
          "type": "uint256"
        },
        {
          "internalType": "uint256",
          "name": "_startBlock",
          "type": "uint256"
        },
        {
          "internalType": "uint256",
          "name": "_bonusEndBlock",
          "type": "uint256"
        },
        {
          "internalType": "uint256",
          "name": "_bonus",
          "type": "uint256"
        },
        {
          "internalType": "uint256",
          "name": "_endBlock",
          "type": "uint256"
        }
      ],
      "name": "determineBlockReward",
      "outputs": [
        {
          "internalType": "uint256",
          "name": "",
          "type": "uint256"
        },
        {
          "internalType": "uint256",
          "name": "",
          "type": "uint256"
        },
        {
          "internalType": "uint256",
          "name": "",
          "type": "uint256"
        }
      ],
      "stateMutability": "view",
      "type": "function"
    },
    {
      "inputs": [
        {
          "internalType": "uint256",
          "name": "_amount",
          "type": "uint256"
        },
        {
          "internalType": "uint256",
          "name": "_blockReward",
          "type": "uint256"
        },
        {
          "internalType": "uint256",
          "name": "_startBlock",
          "type": "uint256"
        },
        {
          "internalType": "uint256",
          "name": "_bonusEndBlock",
          "type": "uint256"
        },
        {
          "internalType": "uint256",
          "name": "_bonus",
          "type": "uint256"
        },
        {
          "internalType": "bool",
          "name": "_withReferral",
          "type": "bool"
        }
      ],
      "name": "determineEndBlock",
      "outputs": [
        {
          "internalType": "uint256",
          "name": "",
          "type": "uint256"
        },
        {
          "internalType": "uint256",
          "name": "",
          "type": "uint256"
        },
        {
          "internalType": "uint256",
          "name": "",
          "type": "uint256"
        },
        {
          "internalType": "uint256",
          "name": "",
          "type": "uint256"
        }
      ],
      "stateMutability": "view",
      "type": "function"
    },
    {
      "inputs": [],
      "name": "factory",
      "outputs": [
        {
          "internalType": "contract IFactory",
          "name": "",
          "type": "address"
        }
      ],
      "stateMutability": "view",
      "type": "function"
    },
    {
      "inputs": [],
      "name": "gFees",
      "outputs": [
        {
          "internalType": "contract IERCBurn",
          "name": "gasToken",
          "type": "address"
        },
        {
          "internalType": "bool",
          "name": "useGasToken",
          "type": "bool"
        },
        {
          "internalType": "uint256",
          "name": "gasFee",
          "type": "uint256"
        },
        {
          "internalType": "uint256",
          "name": "ethFee",
          "type": "uint256"
        },
        {
          "internalType": "uint256",
          "name": "tokenFee",
          "type": "uint256"
        },
        {
          "internalType": "uint256",
          "name": "referralFee",
          "type": "uint256"
        }
      ],
      "stateMutability": "view",
      "type": "function"
    },
    {
      "inputs": [
        {
          "internalType": "bytes32",
          "name": "_messageHash",
          "type": "bytes32"
        }
      ],
      "name": "getEthSignedMessageHash",
      "outputs": [
        {
          "internalType": "bytes32",
          "name": "",
          "type": "bytes32"
        }
      ],
      "stateMutability": "pure",
      "type": "function"
    },
    {
      "inputs": [
        {
          "internalType": "address",
          "name": "_signer",
          "type": "address"
        },
        {
          "internalType": "address",
          "name": "_token",
          "type": "address"
        },
        {
          "internalType": "uint256",
          "name": "_amount",
          "type": "uint256"
        },
        {
          "internalType": "string",
          "name": "_code",
          "type": "string"
        }
      ],
      "name": "getMessageHash",
      "outputs": [
        {
          "internalType": "bytes32",
          "name": "",
          "type": "bytes32"
        }
      ],
      "stateMutability": "pure",
      "type": "function"
    },
    {
      "inputs": [],
      "name": "owner",
      "outputs": [
        {
          "internalType": "address",
          "name": "",
          "type": "address"
        }
      ],
      "stateMutability": "view",
      "type": "function"
    },
    {
      "inputs": [
        {
          "internalType": "bytes32",
          "name": "_ethSignedMessageHash",
          "type": "bytes32"
        },
        {
          "internalType": "bytes",
          "name": "_signature",
          "type": "bytes"
        }
      ],
      "name": "recoverSigner",
      "outputs": [
        {
          "internalType": "address",
          "name": "",
          "type": "address"
        }
      ],
      "stateMutability": "pure",
      "type": "function"
    },
    {
      "inputs": [
        {
          "internalType": "address",
          "name": "",
          "type": "address"
        },
        {
          "internalType": "address",
          "name": "",
          "type": "address"
        }
      ],
      "name": "referralFund",
      "outputs": [
        {
          "internalType": "uint256",
          "name": "",
          "type": "uint256"
        }
      ],
      "stateMutability": "view",
      "type": "function"
    },
    {
      "inputs": [],
      "name": "renounceOwnership",
      "outputs": [],
      "stateMutability": "nonpayable",
      "type": "function"
    },
    {
      "inputs": [
        {
          "internalType": "address payable",
          "name": "_devaddr",
          "type": "address"
        }
      ],
      "name": "setDev",
      "outputs": [],
      "stateMutability": "nonpayable",
      "type": "function"
    },
    {
      "inputs": [
        {
          "internalType": "uint256",
          "name": "_amount",
          "type": "uint256"
        }
      ],
      "name": "setEthFee",
      "outputs": [],
      "stateMutability": "nonpayable",
      "type": "function"
    },
    {
      "inputs": [
        {
          "internalType": "uint256",
          "name": "_amount",
          "type": "uint256"
        }
      ],
      "name": "setGasFee",
      "outputs": [],
      "stateMutability": "nonpayable",
      "type": "function"
    },
    {
      "inputs": [
        {
          "internalType": "contract IERCBurn",
          "name": "_gasToken",
          "type": "address"
        }
      ],
      "name": "setGasToken",
      "outputs": [],
      "stateMutability": "nonpayable",
      "type": "function"
    },
    {
      "inputs": [
        {
          "internalType": "bool",
          "name": "_useGasToken",
          "type": "bool"
        }
      ],
      "name": "setRequireGasToken",
      "outputs": [],
      "stateMutability": "nonpayable",
      "type": "function"
    },
    {
      "inputs": [
        {
          "internalType": "uint256",
          "name": "_amount",
          "type": "uint256"
        }
      ],
      "name": "setTokenFee",
      "outputs": [],
      "stateMutability": "nonpayable",
      "type": "function"
    },
    {
      "inputs": [
        {
          "internalType": "bytes",
          "name": "sig",
          "type": "bytes"
        }
      ],
      "name": "splitSignature",
      "outputs": [
        {
          "internalType": "bytes32",
          "name": "r",
          "type": "bytes32"
        },
        {
          "internalType": "bytes32",
          "name": "s",
          "type": "bytes32"
        },
        {
          "internalType": "uint8",
          "name": "v",
          "type": "uint8"
        }
      ],
      "stateMutability": "pure",
      "type": "function"
    },
    {
      "inputs": [
        {
          "internalType": "address",
          "name": "_receiver",
          "type": "address"
        },
        {
          "internalType": "bytes",
          "name": "signature",
          "type": "bytes"
        }
      ],
      "name": "storeSignature",
      "outputs": [],
      "stateMutability": "nonpayable",
      "type": "function"
    },
    {
      "inputs": [
        {
          "internalType": "address",
          "name": "newOwner",
          "type": "address"
        }
      ],
      "name": "transferOwnership",
      "outputs": [],
      "stateMutability": "nonpayable",
      "type": "function"
    },
    {
      "inputs": [],
      "name": "uniswapFactory",
      "outputs": [
        {
          "internalType": "contract IUniFactory",
          "name": "",
          "type": "address"
        }
      ],
      "stateMutability": "view",
      "type": "function"
    }
  ],
  "bytecode": "0x60806040523480156200001157600080fd5b5060405162006043380380620060438339818101604052810190620000379190620002c7565b620000576200004b6200013860201b60201c565b6200014060201b60201c565b81600160006101000a81548173ffffffffffffffffffffffffffffffffffffffff021916908373ffffffffffffffffffffffffffffffffffffffff16021790555033600360006101000a81548173ffffffffffffffffffffffffffffffffffffffff021916908373ffffffffffffffffffffffffffffffffffffffff160217905550603260066003018190555080600260006101000a81548173ffffffffffffffffffffffffffffffffffffffff021916908373ffffffffffffffffffffffffffffffffffffffff160217905550600a60066004018190555050506200030e565b600033905090565b60008060009054906101000a900473ffffffffffffffffffffffffffffffffffffffff169050816000806101000a81548173ffffffffffffffffffffffffffffffffffffffff021916908373ffffffffffffffffffffffffffffffffffffffff1602179055508173ffffffffffffffffffffffffffffffffffffffff168173ffffffffffffffffffffffffffffffffffffffff167f8be0079c531659141344cd1fd0a4f28419497f9722a3daafe3b4186f6b6457e060405160405180910390a35050565b600080fd5b600073ffffffffffffffffffffffffffffffffffffffff82169050919050565b6000620002368262000209565b9050919050565b60006200024a8262000229565b9050919050565b6200025c816200023d565b81146200026857600080fd5b50565b6000815190506200027c8162000251565b92915050565b60006200028f8262000229565b9050919050565b620002a18162000282565b8114620002ad57600080fd5b50565b600081519050620002c18162000296565b92915050565b60008060408385031215620002e157620002e062000204565b5b6000620002f1858286016200026b565b92505060206200030485828601620002b0565b9150509250929050565b615d25806200031e6000396000f3fe608060405260043610620001525760003560e01c80638da5cb5b11620000bb578063d477f05f1162000079578063d477f05f14620004ad578063e02123e114620004db578063e6f1fca6146200051f578063f2eb6b5f146200054d578063f2fde38b146200057b578063fa54080114620005a95762000152565b80638da5cb5b146200038e57806390e1a00314620003be57806397aba7f914620003f3578063a7bb58031462000437578063c45a0155146200047d5762000152565b8063678edca31162000115578063678edca31462000253578063715018a6146200028157806371c4f07c146200029b57806381f4683914620002d15780638bdb2afa14620003185780638c40b59014620003485762000152565b80631e9f8aad146200015757806331b31b8814620001855780633f6738a914620001b3578063541375df14620001e157806356c124c81462000225575b600080fd5b3480156200016457600080fd5b506200018360048036038101906200017d91906200213a565b620005ed565b005b3480156200019257600080fd5b50620001b16004803603810190620001ab9190620021a7565b6200063e565b005b348015620001c057600080fd5b50620001df6004803603810190620001d99190620021a7565b62000655565b005b348015620001ee57600080fd5b506200020d60048036038101906200020791906200236c565b6200066c565b6040516200021c919062002418565b60405180910390f35b3480156200023257600080fd5b506200025160048036038101906200024b91906200236c565b620006a7565b005b3480156200026057600080fd5b506200027f6004803603810190620002799190620021a7565b62000a1d565b005b3480156200028e57600080fd5b506200029962000a34565b005b620002b96004803603810190620002b39190620024b7565b62000a4c565b604051620002c8919062002591565b60405180910390f35b348015620002de57600080fd5b50620002fd6004803603810190620002f79190620025ae565b620011c6565b6040516200030f94939291906200265b565b60405180910390f35b3480156200032557600080fd5b50620003306200144a565b6040516200033f919062002713565b60405180910390f35b3480156200035557600080fd5b506200037460048036038101906200036e919062002730565b62001470565b6040516200038593929190620027b8565b60405180910390f35b3480156200039b57600080fd5b50620003a66200159c565b604051620003b5919062002591565b60405180910390f35b348015620003cb57600080fd5b50620003d6620015c5565b604051620003ea969594939291906200282b565b60405180910390f35b3480156200040057600080fd5b506200041f60048036038101906200041991906200297d565b6200161c565b6040516200042e919062002591565b60405180910390f35b3480156200044457600080fd5b506200046360048036038101906200045d9190620029e3565b62001690565b604051620004749392919062002a52565b60405180910390f35b3480156200048a57600080fd5b5062000495620016fb565b604051620004a4919062002ab4565b60405180910390f35b348015620004ba57600080fd5b50620004d96004803603810190620004d3919062002b16565b62001721565b005b348015620004e857600080fd5b5062000507600480360381019062000501919062002b48565b6200176f565b60405162000516919062002b8f565b60405180910390f35b3480156200052c57600080fd5b506200054b600480360381019062000545919062002bac565b62001794565b005b3480156200055a57600080fd5b5062000579600480360381019062000573919062002c12565b620017ee565b005b3480156200058857600080fd5b50620005a76004803603810190620005a1919062002c44565b62001818565b005b348015620005b657600080fd5b50620005d56004803603810190620005cf919062002c76565b620018a3565b604051620005e4919062002418565b60405180910390f35b620005f7620018d5565b80600660000160006101000a81548173ffffffffffffffffffffffffffffffffffffffff021916908373ffffffffffffffffffffffffffffffffffffffff16021790555050565b62000648620018d5565b8060066003018190555050565b6200065f620018d5565b8060066002018190555050565b60008484848460405160200162000687949392919062002da0565b604051602081830303815290604052805190602001209050949350505050565b6000620006b7858585856200066c565b90506000620006c682620018a3565b90508573ffffffffffffffffffffffffffffffffffffffff16620007ba82600560003373ffffffffffffffffffffffffffffffffffffffff1673ffffffffffffffffffffffffffffffffffffffff1681526020019081526020016000208054620007309062002e21565b80601f01602080910402602001604051908101604052809291908181526020018280546200075e9062002e21565b8015620007af5780601f106200078357610100808354040283529160200191620007af565b820191906000526020600020905b8154815290600101906020018083116200079157829003601f168201915b50505050506200161c565b73ffffffffffffffffffffffffffffffffffffffff161462000813576040517f08c379a00000000000000000000000000000000000000000000000000000000081526004016200080a9062002eb8565b60405180910390fd5b600460008773ffffffffffffffffffffffffffffffffffffffff1673ffffffffffffffffffffffffffffffffffffffff16815260200190815260200160002060008673ffffffffffffffffffffffffffffffffffffffff1673ffffffffffffffffffffffffffffffffffffffff16815260200190815260200160002054841115620008d5576040517f08c379a0000000000000000000000000000000000000000000000000000000008152600401620008cc9062002f2a565b60405180910390fd5b6200096684600460008973ffffffffffffffffffffffffffffffffffffffff1673ffffffffffffffffffffffffffffffffffffffff16815260200190815260200160002060008873ffffffffffffffffffffffffffffffffffffffff1673ffffffffffffffffffffffffffffffffffffffff168152602001908152602001600020546200195a90919063ffffffff16565b600460008873ffffffffffffffffffffffffffffffffffffffff1673ffffffffffffffffffffffffffffffffffffffff16815260200190815260200160002060008773ffffffffffffffffffffffffffffffffffffffff1673ffffffffffffffffffffffffffffffffffffffff1681526020019081526020016000208190555062000a153033868873ffffffffffffffffffffffffffffffffffffffff1662001972909392919063ffffffff16565b505050505050565b62000a27620018d5565b8060066001018190555050565b62000a3e620018d5565b62000a4a6000620019ff565b565b600043851162000a93576040517f08c379a000000000000000000000000000000000000000000000000000000000815260040162000a8a9062002f9c565b60405180910390fd5b6000831162000ad9576040517f08c379a000000000000000000000000000000000000000000000000000000000815260040162000ad0906200300e565b60405180910390fd5b600073ffffffffffffffffffffffffffffffffffffffff168973ffffffffffffffffffffffffffffffffffffffff16141562000b4c576040517f08c379a000000000000000000000000000000000000000000000000000000000815260040162000b439062003080565b60405180910390fd5b6103e8861162000b93576040517f08c379a000000000000000000000000000000000000000000000000000000000815260040162000b8a90620030f2565b60405180910390fd5b60008790506000600260009054906101000a900473ffffffffffffffffffffffffffffffffffffffff1673ffffffffffffffffffffffffffffffffffffffff1663e6a439058373ffffffffffffffffffffffffffffffffffffffff16630dfe16816040518163ffffffff1660e01b815260040160206040518083038186803b15801562000c1f57600080fd5b505afa15801562000c34573d6000803e3d6000fd5b505050506040513d601f19601f8201168201806040525081019062000c5a91906200312b565b8473ffffffffffffffffffffffffffffffffffffffff1663d21220a76040518163ffffffff1660e01b815260040160206040518083038186803b15801562000ca157600080fd5b505afa15801562000cb6573d6000803e3d6000fd5b505050506040513d601f19601f8201168201806040525081019062000cdc91906200312b565b6040518363ffffffff1660e01b815260040162000cfb9291906200315d565b60206040518083038186803b15801562000d1457600080fd5b505afa15801562000d29573d6000803e3d6000fd5b505050506040513d601f19601f8201168201806040525081019062000d4f91906200312b565b90508873ffffffffffffffffffffffffffffffffffffffff168173ffffffffffffffffffffffffffffffffffffffff161462000dc2576040517f08c379a000000000000000000000000000000000000000000000000000000000815260040162000db990620031da565b60405180910390fd5b62000dcc62001fa3565b62000ddc8b8a8a8a8a8a620011c6565b8460a0018560c0018660e0018761010001848152508481525084815250848152505050505062000e4d333062000e258461010001518560c0015162001ac390919063ffffffff16565b8f73ffffffffffffffffffffffffffffffffffffffff1662001972909392919063ffffffff16565b62000ea233600360009054906101000a900473ffffffffffffffffffffffffffffffffffffffff168360e001518f73ffffffffffffffffffffffffffffffffffffffff1662001972909392919063ffffffff16565b62000f38816101000151600460003373ffffffffffffffffffffffffffffffffffffffff1673ffffffffffffffffffffffffffffffffffffffff16815260200190815260200160002060008f73ffffffffffffffffffffffffffffffffffffffff1673ffffffffffffffffffffffffffffffffffffffff1681526020019081526020016000205462001ac390919063ffffffff16565b600460003373ffffffffffffffffffffffffffffffffffffffff1673ffffffffffffffffffffffffffffffffffffffff16815260200190815260200160002060008e73ffffffffffffffffffffffffffffffffffffffff1673ffffffffffffffffffffffffffffffffffffffff168152602001908152602001600020819055506000600160009054906101000a900473ffffffffffffffffffffffffffffffffffffffff163060405162000fec9062001fef565b62000ff99291906200315d565b604051809103906000f08015801562001016573d6000803e3d6000fd5b5090506200104a818360c001518f73ffffffffffffffffffffffffffffffffffffffff1662001adb9092919063ffffffff16565b8073ffffffffffffffffffffffffffffffffffffffff1663b20268c28e8460c001518e8e8e8860a001518f8f6040518963ffffffff1660e01b81526004016200109b98979695949392919062003221565b600060405180830381600087803b158015620010b657600080fd5b505af1158015620010cb573d6000803e3d6000fd5b5050505062001122600360009054906101000a900473ffffffffffffffffffffffffffffffffffffffff168360e001518f73ffffffffffffffffffffffffffffffffffffffff1662001c479092919063ffffffff16565b600160009054906101000a900473ffffffffffffffffffffffffffffffffffffffff1673ffffffffffffffffffffffffffffffffffffffff1663edcd5d17826040518263ffffffff1660e01b81526004016200117f919062002591565b600060405180830381600087803b1580156200119a57600080fd5b505af1158015620011af573d6000803e3d6000fd5b505050508094505050505098975050505050505050565b600080600080620011d662001fa3565b620012066103e8620011f76006600301548e62001cd190919063ffffffff16565b62001ce990919063ffffffff16565b8160000181815250506200122881600001518c6200195a90919063ffffffff16565b8160200181815250506200124689896200195a90919063ffffffff16565b8160400181815250506200127c8a6200126d89846040015162001cd190919063ffffffff16565b62001cd190919063ffffffff16565b816060018181525050620012b68a620012a7836060015184602001516200195a90919063ffffffff16565b62001ce990919063ffffffff16565b816080018181525050620012f089620012e18360400151846080015162001ac390919063ffffffff16565b62001ac390919063ffffffff16565b8160a0018181525050600062001314898360a001516200195a90919063ffffffff16565b905060006200134582620013368b866040015162001cd190919063ffffffff16565b62001ac390919063ffffffff16565b905060006200135e828e62001cd190919063ffffffff16565b90508815620013f8578360a0015181620013b66103e8620013a7620013976006600401546006600301546200195a90919063ffffffff16565b8662001cd190919063ffffffff16565b62001ce990919063ffffffff16565b620013e66103e8620013d76006600401548762001cd190919063ffffffff16565b62001ce990919063ffffffff16565b9750975097509750505050506200143d565b8360a00151816200142e6103e86200141f6006600301548662001cd190919063ffffffff16565b62001ce990919063ffffffff16565b60009750975097509750505050505b9650965096509692505050565b600260009054906101000a900473ffffffffffffffffffffffffffffffffffffffff1681565b600080600080620014a66103e8620014976006600301548c62001cd190919063ffffffff16565b62001ce990919063ffffffff16565b90506000620014bf828b6200195a90919063ffffffff16565b90506000620014d88a8a6200195a90919063ffffffff16565b90506000620014f18a896200195a90919063ffffffff16565b905060006200151e826200150f8c8662001cd190919063ffffffff16565b62001ac390919063ffffffff16565b9050600062001537828662001ce990919063ffffffff16565b9050600062001550838362001cd190919063ffffffff16565b90508181620015846103e8620015756006600301548662001cd190919063ffffffff16565b62001ce990919063ffffffff16565b99509950995050505050505050955095509592505050565b60008060009054906101000a900473ffffffffffffffffffffffffffffffffffffffff16905090565b60068060000160009054906101000a900473ffffffffffffffffffffffffffffffffffffffff16908060000160149054906101000a900460ff16908060010154908060020154908060030154908060040154905086565b6000806000806200162d8562001690565b92509250925060018682858560405160008152602001604052604051620016589493929190620032af565b6020604051602081039080840390855afa1580156200167b573d6000803e3d6000fd5b50505060206040510351935050505092915050565b60008060006041845114620016dc576040517f08c379a0000000000000000000000000000000000000000000000000000000008152600401620016d3906200334c565b60405180910390fd5b6020840151925060408401519150606084015160001a90509193909250565b600160009054906101000a900473ffffffffffffffffffffffffffffffffffffffff1681565b6200172b620018d5565b80600360006101000a81548173ffffffffffffffffffffffffffffffffffffffff021916908373ffffffffffffffffffffffffffffffffffffffff16021790555050565b6004602052816000526040600020602052806000526040600020600091509150505481565b80600560008473ffffffffffffffffffffffffffffffffffffffff1673ffffffffffffffffffffffffffffffffffffffff1681526020019081526020016000209080519060200190620017e992919062001ffd565b505050565b620017f8620018d5565b80600660000160146101000a81548160ff02191690831515021790555050565b62001822620018d5565b600073ffffffffffffffffffffffffffffffffffffffff168173ffffffffffffffffffffffffffffffffffffffff16141562001895576040517f08c379a00000000000000000000000000000000000000000000000000000000081526004016200188c90620033e4565b60405180910390fd5b620018a081620019ff565b50565b600081604051602001620018b891906200347b565b604051602081830303815290604052805190602001209050919050565b620018df62001d01565b73ffffffffffffffffffffffffffffffffffffffff16620018ff6200159c565b73ffffffffffffffffffffffffffffffffffffffff161462001958576040517f08c379a00000000000000000000000000000000000000000000000000000000081526004016200194f90620034f5565b60405180910390fd5b565b600081836200196a919062003546565b905092915050565b620019f9846323b872dd60e01b858585604051602401620019969392919062003581565b604051602081830303815290604052907bffffffffffffffffffffffffffffffffffffffffffffffffffffffff19166020820180517bffffffffffffffffffffffffffffffffffffffffffffffffffffffff838183161783525050505062001d09565b50505050565b60008060009054906101000a900473ffffffffffffffffffffffffffffffffffffffff169050816000806101000a81548173ffffffffffffffffffffffffffffffffffffffff021916908373ffffffffffffffffffffffffffffffffffffffff1602179055508173ffffffffffffffffffffffffffffffffffffffff168173ffffffffffffffffffffffffffffffffffffffff167f8be0079c531659141344cd1fd0a4f28419497f9722a3daafe3b4186f6b6457e060405160405180910390a35050565b6000818362001ad39190620035be565b905092915050565b600081148062001b7b575060008373ffffffffffffffffffffffffffffffffffffffff1663dd62ed3e30856040518363ffffffff1660e01b815260040162001b259291906200315d565b60206040518083038186803b15801562001b3e57600080fd5b505afa15801562001b53573d6000803e3d6000fd5b505050506040513d601f19601f8201168201806040525081019062001b79919062003632565b145b62001bbd576040517f08c379a000000000000000000000000000000000000000000000000000000000815260040162001bb490620036da565b60405180910390fd5b62001c428363095ea7b360e01b848460405160240162001bdf929190620036fc565b604051602081830303815290604052907bffffffffffffffffffffffffffffffffffffffffffffffffffffffff19166020820180517bffffffffffffffffffffffffffffffffffffffffffffffffffffffff838183161783525050505062001d09565b505050565b62001ccc8363a9059cbb60e01b848460405160240162001c69929190620036fc565b604051602081830303815290604052907bffffffffffffffffffffffffffffffffffffffffffffffffffffffff19166020820180517bffffffffffffffffffffffffffffffffffffffffffffffffffffffff838183161783525050505062001d09565b505050565b6000818362001ce1919062003729565b905092915050565b6000818362001cf99190620037b9565b905092915050565b600033905090565b600062001d6d826040518060400160405280602081526020017f5361666545524332303a206c6f772d6c6576656c2063616c6c206661696c65648152508573ffffffffffffffffffffffffffffffffffffffff1662001dd89092919063ffffffff16565b905060008151111562001dd3578080602001905181019062001d90919062003808565b62001dd2576040517f08c379a000000000000000000000000000000000000000000000000000000000815260040162001dc990620038b0565b60405180910390fd5b5b505050565b606062001de9848460008562001df2565b90509392505050565b60608247101562001e3a576040517f08c379a000000000000000000000000000000000000000000000000000000000815260040162001e319062003948565b60405180910390fd5b62001e458562001f14565b62001e87576040517f08c379a000000000000000000000000000000000000000000000000000000000815260040162001e7e90620039ba565b60405180910390fd5b6000808673ffffffffffffffffffffffffffffffffffffffff16858760405162001eb2919062003a29565b60006040518083038185875af1925050503d806000811462001ef1576040519150601f19603f3d011682016040523d82523d6000602084013e62001ef6565b606091505b509150915062001f0882828662001f37565b92505050949350505050565b6000808273ffffffffffffffffffffffffffffffffffffffff163b119050919050565b6060831562001f495782905062001f9c565b60008351111562001f5d5782518084602001fd5b816040517f08c379a000000000000000000000000000000000000000000000000000000000815260040162001f93919062003a83565b60405180910390fd5b9392505050565b6040518061012001604052806000815260200160008152602001600081526020016000815260200160008152602001600081526020016000815260200160008152602001600081525090565b6122488062003aa883390190565b8280546200200b9062002e21565b90600052602060002090601f0160209004810192826200202f57600085556200207b565b82601f106200204a57805160ff19168380011785556200207b565b828001600101855582156200207b579182015b828111156200207a5782518255916020019190600101906200205d565b5b5090506200208a91906200208e565b5090565b5b80821115620020a95760008160009055506001016200208f565b5090565b6000604051905090565b600080fd5b600080fd5b600073ffffffffffffffffffffffffffffffffffffffff82169050919050565b6000620020ee82620020c1565b9050919050565b60006200210282620020e1565b9050919050565b6200211481620020f5565b81146200212057600080fd5b50565b600081359050620021348162002109565b92915050565b600060208284031215620021535762002152620020b7565b5b6000620021638482850162002123565b91505092915050565b6000819050919050565b62002181816200216c565b81146200218d57600080fd5b50565b600081359050620021a18162002176565b92915050565b600060208284031215620021c057620021bf620020b7565b5b6000620021d08482850162002190565b91505092915050565b620021e481620020e1565b8114620021f057600080fd5b50565b6000813590506200220481620021d9565b92915050565b600080fd5b600080fd5b6000601f19601f8301169050919050565b7f4e487b7100000000000000000000000000000000000000000000000000000000600052604160045260246000fd5b6200225f8262002214565b810181811067ffffffffffffffff8211171562002281576200228062002225565b5b80604052505050565b600062002296620020ad565b9050620022a4828262002254565b919050565b600067ffffffffffffffff821115620022c757620022c662002225565b5b620022d28262002214565b9050602081019050919050565b82818337600083830152505050565b600062002305620022ff84620022a9565b6200228a565b9050828152602081018484840111156200232457620023236200220f565b5b62002331848285620022df565b509392505050565b600082601f8301126200235157620023506200220a565b5b813562002363848260208601620022ee565b91505092915050565b60008060008060808587031215620023895762002388620020b7565b5b60006200239987828801620021f3565b9450506020620023ac87828801620021f3565b9350506040620023bf8782880162002190565b925050606085013567ffffffffffffffff811115620023e357620023e2620020bc565b5b620023f18782880162002339565b91505092959194509250565b6000819050919050565b6200241281620023fd565b82525050565b60006020820190506200242f600083018462002407565b92915050565b60006200244282620020e1565b9050919050565b620024548162002435565b81146200246057600080fd5b50565b600081359050620024748162002449565b92915050565b60008115159050919050565b62002491816200247a565b81146200249d57600080fd5b50565b600081359050620024b18162002486565b92915050565b600080600080600080600080610100898b031215620024db57620024da620020b7565b5b6000620024eb8b828c0162002463565b9850506020620024fe8b828c0162002190565b9750506040620025118b828c0162002463565b9650506060620025248b828c0162002190565b9550506080620025378b828c0162002190565b94505060a06200254a8b828c0162002190565b93505060c06200255d8b828c0162002190565b92505060e0620025708b828c01620024a0565b9150509295985092959890939650565b6200258b81620020e1565b82525050565b6000602082019050620025a8600083018462002580565b92915050565b60008060008060008060c08789031215620025ce57620025cd620020b7565b5b6000620025de89828a0162002190565b9650506020620025f189828a0162002190565b95505060406200260489828a0162002190565b94505060606200261789828a0162002190565b93505060806200262a89828a0162002190565b92505060a06200263d89828a01620024a0565b9150509295509295509295565b62002655816200216c565b82525050565b60006080820190506200267260008301876200264a565b6200268160208301866200264a565b6200269060408301856200264a565b6200269f60608301846200264a565b95945050505050565b6000819050919050565b6000620026d3620026cd620026c784620020c1565b620026a8565b620020c1565b9050919050565b6000620026e782620026b2565b9050919050565b6000620026fb82620026da565b9050919050565b6200270d81620026ee565b82525050565b60006020820190506200272a600083018462002702565b92915050565b600080600080600060a086880312156200274f576200274e620020b7565b5b60006200275f8882890162002190565b9550506020620027728882890162002190565b9450506040620027858882890162002190565b9350506060620027988882890162002190565b9250506080620027ab8882890162002190565b9150509295509295909350565b6000606082019050620027cf60008301866200264a565b620027de60208301856200264a565b620027ed60408301846200264a565b949350505050565b60006200280282620026da565b9050919050565b6200281481620027f5565b82525050565b62002825816200247a565b82525050565b600060c08201905062002842600083018962002809565b6200285160208301886200281a565b6200286060408301876200264a565b6200286f60608301866200264a565b6200287e60808301856200264a565b6200288d60a08301846200264a565b979650505050505050565b620028a381620023fd565b8114620028af57600080fd5b50565b600081359050620028c38162002898565b92915050565b600067ffffffffffffffff821115620028e757620028e662002225565b5b620028f28262002214565b9050602081019050919050565b6000620029166200291084620028c9565b6200228a565b9050828152602081018484840111156200293557620029346200220f565b5b62002942848285620022df565b509392505050565b600082601f8301126200296257620029616200220a565b5b813562002974848260208601620028ff565b91505092915050565b60008060408385031215620029975762002996620020b7565b5b6000620029a785828601620028b2565b925050602083013567ffffffffffffffff811115620029cb57620029ca620020bc565b5b620029d9858286016200294a565b9150509250929050565b600060208284031215620029fc57620029fb620020b7565b5b600082013567ffffffffffffffff81111562002a1d5762002a1c620020bc565b5b62002a2b848285016200294a565b91505092915050565b600060ff82169050919050565b62002a4c8162002a34565b82525050565b600060608201905062002a69600083018662002407565b62002a78602083018562002407565b62002a87604083018462002a41565b949350505050565b600062002a9c82620026da565b9050919050565b62002aae8162002a8f565b82525050565b600060208201905062002acb600083018462002aa3565b92915050565b600062002ade82620020c1565b9050919050565b62002af08162002ad1565b811462002afc57600080fd5b50565b60008135905062002b108162002ae5565b92915050565b60006020828403121562002b2f5762002b2e620020b7565b5b600062002b3f8482850162002aff565b91505092915050565b6000806040838503121562002b625762002b61620020b7565b5b600062002b7285828601620021f3565b925050602062002b8585828601620021f3565b9150509250929050565b600060208201905062002ba660008301846200264a565b92915050565b6000806040838503121562002bc65762002bc5620020b7565b5b600062002bd685828601620021f3565b925050602083013567ffffffffffffffff81111562002bfa5762002bf9620020bc565b5b62002c08858286016200294a565b9150509250929050565b60006020828403121562002c2b5762002c2a620020b7565b5b600062002c3b84828501620024a0565b91505092915050565b60006020828403121562002c5d5762002c5c620020b7565b5b600062002c6d84828501620021f3565b91505092915050565b60006020828403121562002c8f5762002c8e620020b7565b5b600062002c9f84828501620028b2565b91505092915050565b60008160601b9050919050565b600062002cc28262002ca8565b9050919050565b600062002cd68262002cb5565b9050919050565b62002cf262002cec82620020e1565b62002cc9565b82525050565b6000819050919050565b62002d1762002d11826200216c565b62002cf8565b82525050565b600081519050919050565b600081905092915050565b60005b8381101562002d5357808201518184015260208101905062002d36565b8381111562002d63576000848401525b50505050565b600062002d768262002d1d565b62002d82818562002d28565b935062002d9481856020860162002d33565b80840191505092915050565b600062002dae828762002cdd565b60148201915062002dc0828662002cdd565b60148201915062002dd2828562002d02565b60208201915062002de4828462002d69565b915081905095945050505050565b7f4e487b7100000000000000000000000000000000000000000000000000000000600052602260045260246000fd5b6000600282049050600182168062002e3a57607f821691505b6020821081141562002e515762002e5062002df2565b5b50919050565b600082825260208201905092915050565b7f596f75206469646e2774207369676e2e00000000000000000000000000000000600082015250565b600062002ea060108362002e57565b915062002ead8262002e68565b602082019050919050565b6000602082019050818103600083015262002ed38162002e91565b9050919050565b7f496e76616c696420616d6f756e74000000000000000000000000000000000000600082015250565b600062002f12600e8362002e57565b915062002f1f8262002eda565b602082019050919050565b6000602082019050818103600083015262002f458162002f03565b9050919050565b7f5354415254000000000000000000000000000000000000000000000000000000600082015250565b600062002f8460058362002e57565b915062002f918262002f4c565b602082019050919050565b6000602082019050818103600083015262002fb78162002f75565b9050919050565b7f424f4e5553000000000000000000000000000000000000000000000000000000600082015250565b600062002ff660058362002e57565b9150620030038262002fbe565b602082019050919050565b60006020820190508181036000830152620030298162002fe7565b9050919050565b7f544f4b454e000000000000000000000000000000000000000000000000000000600082015250565b60006200306860058362002e57565b9150620030758262003030565b602082019050919050565b600060208201905081810360008301526200309b8162003059565b9050919050565b7f4252000000000000000000000000000000000000000000000000000000000000600082015250565b6000620030da60028362002e57565b9150620030e782620030a2565b602082019050919050565b600060208201905081810360008301526200310d81620030cb565b9050919050565b6000815190506200312581620021d9565b92915050565b600060208284031215620031445762003143620020b7565b5b6000620031548482850162003114565b91505092915050565b600060408201905062003174600083018562002580565b62003183602083018462002580565b9392505050565b7f546869732070616972206973206e6f74206f6e20756e69737761700000000000600082015250565b6000620031c2601b8362002e57565b9150620031cf826200318a565b602082019050919050565b60006020820190508181036000830152620031f581620031b3565b9050919050565b60006200320982620026da565b9050919050565b6200321b81620031fc565b82525050565b60006101008201905062003239600083018b62003210565b62003248602083018a6200264a565b62003257604083018962003210565b6200326660608301886200264a565b6200327560808301876200264a565b6200328460a08301866200264a565b6200329360c08301856200264a565b620032a260e08301846200264a565b9998505050505050505050565b6000608082019050620032c6600083018762002407565b620032d5602083018662002a41565b620032e4604083018562002407565b620032f3606083018462002407565b95945050505050565b7f696e76616c6964207369676e6174757265206c656e6774680000000000000000600082015250565b60006200333460188362002e57565b91506200334182620032fc565b602082019050919050565b60006020820190508181036000830152620033678162003325565b9050919050565b7f4f776e61626c653a206e6577206f776e657220697320746865207a65726f206160008201527f6464726573730000000000000000000000000000000000000000000000000000602082015250565b6000620033cc60268362002e57565b9150620033d9826200336e565b604082019050919050565b60006020820190508181036000830152620033ff81620033bd565b9050919050565b7f19457468657265756d205369676e6564204d6573736167653a0a333200000000600082015250565b60006200343e601c8362002d28565b91506200344b8262003406565b601c82019050919050565b6000819050919050565b620034756200346f82620023fd565b62003456565b82525050565b600062003488826200342f565b915062003496828462003460565b60208201915081905092915050565b7f4f776e61626c653a2063616c6c6572206973206e6f7420746865206f776e6572600082015250565b6000620034dd60208362002e57565b9150620034ea82620034a5565b602082019050919050565b600060208201905081810360008301526200351081620034ce565b9050919050565b7f4e487b7100000000000000000000000000000000000000000000000000000000600052601160045260246000fd5b600062003553826200216c565b915062003560836200216c565b92508282101562003576576200357562003517565b5b828203905092915050565b600060608201905062003598600083018662002580565b620035a7602083018562002580565b620035b660408301846200264a565b949350505050565b6000620035cb826200216c565b9150620035d8836200216c565b9250827fffffffffffffffffffffffffffffffffffffffffffffffffffffffffffffffff0382111562003610576200360f62003517565b5b828201905092915050565b6000815190506200362c8162002176565b92915050565b6000602082840312156200364b576200364a620020b7565b5b60006200365b848285016200361b565b91505092915050565b7f5361666545524332303a20617070726f76652066726f6d206e6f6e2d7a65726f60008201527f20746f206e6f6e2d7a65726f20616c6c6f77616e636500000000000000000000602082015250565b6000620036c260368362002e57565b9150620036cf8262003664565b604082019050919050565b60006020820190508181036000830152620036f581620036b3565b9050919050565b600060408201905062003713600083018562002580565b6200372260208301846200264a565b9392505050565b600062003736826200216c565b915062003743836200216c565b9250817fffffffffffffffffffffffffffffffffffffffffffffffffffffffffffffffff04831182151516156200377f576200377e62003517565b5b828202905092915050565b7f4e487b7100000000000000000000000000000000000000000000000000000000600052601260045260246000fd5b6000620037c6826200216c565b9150620037d3836200216c565b925082620037e657620037e56200378a565b5b828204905092915050565b600081519050620038028162002486565b92915050565b600060208284031215620038215762003820620020b7565b5b60006200383184828501620037f1565b91505092915050565b7f5361666545524332303a204552433230206f7065726174696f6e20646964206e60008201527f6f74207375636365656400000000000000000000000000000000000000000000602082015250565b600062003898602a8362002e57565b9150620038a5826200383a565b604082019050919050565b60006020820190508181036000830152620038cb8162003889565b9050919050565b7f416464726573733a20696e73756666696369656e742062616c616e636520666f60008201527f722063616c6c0000000000000000000000000000000000000000000000000000602082015250565b60006200393060268362002e57565b91506200393d82620038d2565b604082019050919050565b60006020820190508181036000830152620039638162003921565b9050919050565b7f416464726573733a2063616c6c20746f206e6f6e2d636f6e7472616374000000600082015250565b6000620039a2601d8362002e57565b9150620039af826200396a565b602082019050919050565b60006020820190508181036000830152620039d58162003993565b9050919050565b600081519050919050565b600081905092915050565b6000620039ff82620039dc565b62003a0b8185620039e7565b935062003a1d81856020860162002d33565b80840191505092915050565b600062003a378284620039f2565b915081905092915050565b600062003a4f8262002d1d565b62003a5b818562002e57565b935062003a6d81856020860162002d33565b62003a788162002214565b840191505092915050565b6000602082019050818103600083015262003a9f818462003a42565b90509291505056fe608060405260016000553480156200001657600080fd5b50604051620022483803806200224883398181016040528101906200003c919062000130565b81600160006101000a81548173ffffffffffffffffffffffffffffffffffffffff021916908373ffffffffffffffffffffffffffffffffffffffff16021790555080600260006101000a81548173ffffffffffffffffffffffffffffffffffffffff021916908373ffffffffffffffffffffffffffffffffffffffff160217905550505062000177565b600080fd5b600073ffffffffffffffffffffffffffffffffffffffff82169050919050565b6000620000f882620000cb565b9050919050565b6200010a81620000eb565b81146200011657600080fd5b50565b6000815190506200012a81620000ff565b92915050565b600080604083850312156200014a5762000149620000c6565b5b60006200015a8582860162000119565b92505060206200016d8582860162000119565b9150509250929050565b6120c180620001876000396000f3fe608060405234801561001057600080fd5b50600436106100b45760003560e01c8063b20268c211610071578063b20268c21461019a578063b6b55f25146101b6578063c45a0155146101d2578063db2e21bc146101f0578063e3161ddd146101fa578063f40f0f5214610204576100b4565b80631959a002146100b95780631d49d66c146100ea5780632dd99996146101125780632e1a7d4d146101305780632ebed9ec1461014c5780638dbb1e3a1461016a575b600080fd5b6100d360048036038101906100ce9190611696565b610234565b6040516100e19291906116dc565b60405180910390f35b6100f2610258565b6040516101099b9a99989796959493929190611764565b60405180910390f35b61011a6102e0565b604051610127919061181e565b60405180910390f35b61014a60048036038101906101459190611865565b610306565b005b6101546105ad565b6040516101619190611892565b60405180910390f35b610184600480360381019061017f91906118ad565b6105b3565b6040516101919190611892565b60405180910390f35b6101b460048036038101906101af919061192b565b6106b9565b005b6101d060048036038101906101cb9190611865565b61086c565b005b6101da610add565b6040516101e79190611a02565b60405180910390f35b6101f8610b03565b005b610202610cb9565b005b61021e60048036038101906102199190611696565b610e4d565b60405161022b9190611892565b60405180910390f35b600e6020528060005260406000206000915090508060000154908060010154905082565b60038060000160009054906101000a900473ffffffffffffffffffffffffffffffffffffffff16908060010160009054906101000a900473ffffffffffffffffffffffffffffffffffffffff169080600201549080600301549080600401549080600501549080600601549080600701549080600801549080600901549080600a015490508b565b600260009054906101000a900473ffffffffffffffffffffffffffffffffffffffff1681565b6000600e60003373ffffffffffffffffffffffffffffffffffffffff1673ffffffffffffffffffffffffffffffffffffffff16815260200190815260200160002090508181600001541015610390576040517f08c379a000000000000000000000000000000000000000000000000000000000815260040161038790611a7a565b60405180910390fd5b610398610cb9565b8181600001541480156103ab5750600082115b1561045957600160009054906101000a900473ffffffffffffffffffffffffffffffffffffffff1673ffffffffffffffffffffffffffffffffffffffff166376cb2554336040518263ffffffff1660e01b815260040161040b919061181e565b600060405180830381600087803b15801561042557600080fd5b505af1158015610439573d6000803e3d6000fd5b505050506003600a01600081548092919061045390611ac9565b91905055505b60006104a4826001015461049664e8d4a51000610488600360080154876000015461102490919063ffffffff16565b61103a90919063ffffffff16565b61105090919063ffffffff16565b90506104b03382611066565b6104c783836000015461105090919063ffffffff16565b826000018190555061050264e8d4a510006104f4600360080154856000015461102490919063ffffffff16565b61103a90919063ffffffff16565b826001018190555061055a3384600360000160009054906101000a900473ffffffffffffffffffffffffffffffffffffffff1673ffffffffffffffffffffffffffffffffffffffff166112919092919063ffffffff16565b3373ffffffffffffffffffffffffffffffffffffffff167f884edad9ce6fa2440d8a54cc123490eb96d2768479d49ff9c7366125a9424364846040516105a09190611892565b60405180910390a2505050565b60005481565b6000806003600201548410156105ce576003600201546105d0565b835b9050600083600360060154116105eb576003600601546105ed565b835b9050600360040154811161062e57610625600360050154610617848461105090919063ffffffff16565b61102490919063ffffffff16565b925050506106b3565b60036004015482106106565761064d828261105090919063ffffffff16565b925050506106b3565b6106ae6106716003600401548361105090919063ffffffff16565b6106a06003600501546106928660036004015461105090919063ffffffff16565b61102490919063ffffffff16565b61131790919063ffffffff16565b925050505b92915050565b600260009054906101000a900473ffffffffffffffffffffffffffffffffffffffff1673ffffffffffffffffffffffffffffffffffffffff163373ffffffffffffffffffffffffffffffffffffffff1614610749576040517f08c379a000000000000000000000000000000000000000000000000000000000815260040161074090611b3f565b60405180910390fd5b6107763330898b73ffffffffffffffffffffffffffffffffffffffff1661132d909392919063ffffffff16565b87600360010160006101000a81548173ffffffffffffffffffffffffffffffffffffffff021916908373ffffffffffffffffffffffffffffffffffffffff16021790555083600360020181905550846003800181905550816003600401819055508060036005018190555060008443116107f057846107f2565b435b905086600360000160006101000a81548173ffffffffffffffffffffffffffffffffffffffff021916908373ffffffffffffffffffffffffffffffffffffffff1602179055508060036007018190555060006003600801819055508360036006018190555087600360090181905550505050505050505050565b6000600e60003373ffffffffffffffffffffffffffffffffffffffff1673ffffffffffffffffffffffffffffffffffffffff16815260200190815260200160002090506108b7610cb9565b60008160000154111561091d57600061090f826001015461090164e8d4a510006108f3600360080154876000015461102490919063ffffffff16565b61103a90919063ffffffff16565b61105090919063ffffffff16565b905061091b3382611066565b505b600081600001541480156109315750600082115b156109df57600160009054906101000a900473ffffffffffffffffffffffffffffffffffffffff1673ffffffffffffffffffffffffffffffffffffffff166379cdf99b336040518263ffffffff1660e01b8152600401610991919061181e565b600060405180830381600087803b1580156109ab57600080fd5b505af11580156109bf573d6000803e3d6000fd5b505050506003600a0160008154809291906109d990611b5f565b91905055505b610a31333084600360000160009054906101000a900473ffffffffffffffffffffffffffffffffffffffff1673ffffffffffffffffffffffffffffffffffffffff1661132d909392919063ffffffff16565b610a4882826000015461131790919063ffffffff16565b8160000181905550610a8364e8d4a51000610a75600360080154846000015461102490919063ffffffff16565b61103a90919063ffffffff16565b81600101819055503373ffffffffffffffffffffffffffffffffffffffff167fe1fffcc4923d04b559f4d29a8bfc6cda04eb5b0d3c460751c2402c5c5cc9109c83604051610ad19190611892565b60405180910390a25050565b600160009054906101000a900473ffffffffffffffffffffffffffffffffffffffff1681565b6000600e60003373ffffffffffffffffffffffffffffffffffffffff1673ffffffffffffffffffffffffffffffffffffffff1681526020019081526020016000209050610b9a338260000154600360000160009054906101000a900473ffffffffffffffffffffffffffffffffffffffff1673ffffffffffffffffffffffffffffffffffffffff166112919092919063ffffffff16565b3373ffffffffffffffffffffffffffffffffffffffff167f5fafa99d0643513820be26656b45130b01e1c03062e1266bf36f88cbd3bd96958260000154604051610be49190611892565b60405180910390a2600081600001541115610ca257600160009054906101000a900473ffffffffffffffffffffffffffffffffffffffff1673ffffffffffffffffffffffffffffffffffffffff166376cb2554336040518263ffffffff1660e01b8152600401610c54919061181e565b600060405180830381600087803b158015610c6e57600080fd5b505af1158015610c82573d6000803e3d6000fd5b505050506003600a016000815480929190610c9c90611ac9565b91905055505b600081600001819055506000816001018190555050565b6003600701544311610cca57610e4b565b6000600360000160009054906101000a900473ffffffffffffffffffffffffffffffffffffffff1673ffffffffffffffffffffffffffffffffffffffff166370a08231306040518263ffffffff1660e01b8152600401610d2a919061181e565b60206040518083038186803b158015610d4257600080fd5b505afa158015610d56573d6000803e3d6000fd5b505050506040513d601f19601f82011682018060405250810190610d7a9190611bbd565b90506000811415610dad576003600601544310610d9c57600360060154610d9e565b435b60036007018190555050610e4b565b6000610dbe600360070154436105b3565b90506000610dd960038001548361102490919063ffffffff16565b9050610e1c610e0884610dfa64e8d4a510008561102490919063ffffffff16565b61103a90919063ffffffff16565b60036008015461131790919063ffffffff16565b6003600801819055506003600601544310610e3c57600360060154610e3e565b435b6003600701819055505050505b565b600080600e60008473ffffffffffffffffffffffffffffffffffffffff1673ffffffffffffffffffffffffffffffffffffffff1681526020019081526020016000209050600060036008015490506000600360000160009054906101000a900473ffffffffffffffffffffffffffffffffffffffff1673ffffffffffffffffffffffffffffffffffffffff166370a08231306040518263ffffffff1660e01b8152600401610efb919061181e565b60206040518083038186803b158015610f1357600080fd5b505afa158015610f27573d6000803e3d6000fd5b505050506040513d601f19601f82011682018060405250810190610f4b9190611bbd565b905060036007015443118015610f62575060008114155b15610fd6576000610f78600360070154436105b3565b90506000610f9360038001548361102490919063ffffffff16565b9050610fd1610fc284610fb464e8d4a510008561102490919063ffffffff16565b61103a90919063ffffffff16565b8561131790919063ffffffff16565b935050505b61101a836001015461100c64e8d4a51000610ffe86886000015461102490919063ffffffff16565b61103a90919063ffffffff16565b61105090919063ffffffff16565b9350505050919050565b600081836110329190611bea565b905092915050565b600081836110489190611c73565b905092915050565b6000818361105e9190611ca4565b905092915050565b6000600360010160009054906101000a900473ffffffffffffffffffffffffffffffffffffffff1673ffffffffffffffffffffffffffffffffffffffff166370a08231306040518263ffffffff1660e01b81526004016110c6919061181e565b60206040518083038186803b1580156110de57600080fd5b505afa1580156110f2573d6000803e3d6000fd5b505050506040513d601f19601f820116820180604052508101906111169190611bbd565b9050808211156111d857600360010160009054906101000a900473ffffffffffffffffffffffffffffffffffffffff1673ffffffffffffffffffffffffffffffffffffffff1663a9059cbb84836040518363ffffffff1660e01b8152600401611180929190611cd8565b602060405180830381600087803b15801561119a57600080fd5b505af11580156111ae573d6000803e3d6000fd5b505050506040513d601f19601f820116820180604052508101906111d29190611d39565b5061128c565b600360010160009054906101000a900473ffffffffffffffffffffffffffffffffffffffff1673ffffffffffffffffffffffffffffffffffffffff1663a9059cbb84846040518363ffffffff1660e01b8152600401611238929190611cd8565b602060405180830381600087803b15801561125257600080fd5b505af1158015611266573d6000803e3d6000fd5b505050506040513d601f19601f8201168201806040525081019061128a9190611d39565b505b505050565b6113128363a9059cbb60e01b84846040516024016112b0929190611cd8565b604051602081830303815290604052907bffffffffffffffffffffffffffffffffffffffffffffffffffffffff19166020820180517bffffffffffffffffffffffffffffffffffffffffffffffffffffffff83818316178352505050506113b6565b505050565b600081836113259190611d66565b905092915050565b6113b0846323b872dd60e01b85858560405160240161134e93929190611dbc565b604051602081830303815290604052907bffffffffffffffffffffffffffffffffffffffffffffffffffffffff19166020820180517bffffffffffffffffffffffffffffffffffffffffffffffffffffffff83818316178352505050506113b6565b50505050565b6000611418826040518060400160405280602081526020017f5361666545524332303a206c6f772d6c6576656c2063616c6c206661696c65648152508573ffffffffffffffffffffffffffffffffffffffff1661147d9092919063ffffffff16565b905060008151111561147857808060200190518101906114389190611d39565b611477576040517f08c379a000000000000000000000000000000000000000000000000000000000815260040161146e90611e65565b60405180910390fd5b5b505050565b606061148c8484600085611495565b90509392505050565b6060824710156114da576040517f08c379a00000000000000000000000000000000000000000000000000000000081526004016114d190611ef7565b60405180910390fd5b6114e3856115a9565b611522576040517f08c379a000000000000000000000000000000000000000000000000000000000815260040161151990611f63565b60405180910390fd5b6000808673ffffffffffffffffffffffffffffffffffffffff16858760405161154b9190611ffd565b60006040518083038185875af1925050503d8060008114611588576040519150601f19603f3d011682016040523d82523d6000602084013e61158d565b606091505b509150915061159d8282866115cc565b92505050949350505050565b6000808273ffffffffffffffffffffffffffffffffffffffff163b119050919050565b606083156115dc5782905061162c565b6000835111156115ef5782518084602001fd5b816040517f08c379a00000000000000000000000000000000000000000000000000000000081526004016116239190612069565b60405180910390fd5b9392505050565b600080fd5b600073ffffffffffffffffffffffffffffffffffffffff82169050919050565b600061166382611638565b9050919050565b61167381611658565b811461167e57600080fd5b50565b6000813590506116908161166a565b92915050565b6000602082840312156116ac576116ab611633565b5b60006116ba84828501611681565b91505092915050565b6000819050919050565b6116d6816116c3565b82525050565b60006040820190506116f160008301856116cd565b6116fe60208301846116cd565b9392505050565b6000819050919050565b600061172a61172561172084611638565b611705565b611638565b9050919050565b600061173c8261170f565b9050919050565b600061174e82611731565b9050919050565b61175e81611743565b82525050565b60006101608201905061177a600083018e611755565b611787602083018d611755565b611794604083018c6116cd565b6117a1606083018b6116cd565b6117ae608083018a6116cd565b6117bb60a08301896116cd565b6117c860c08301886116cd565b6117d560e08301876116cd565b6117e36101008301866116cd565b6117f16101208301856116cd565b6117ff6101408301846116cd565b9c9b505050505050505050505050565b61181881611658565b82525050565b6000602082019050611833600083018461180f565b92915050565b611842816116c3565b811461184d57600080fd5b50565b60008135905061185f81611839565b92915050565b60006020828403121561187b5761187a611633565b5b600061188984828501611850565b91505092915050565b60006020820190506118a760008301846116cd565b92915050565b600080604083850312156118c4576118c3611633565b5b60006118d285828601611850565b92505060206118e385828601611850565b9150509250929050565b60006118f882611658565b9050919050565b611908816118ed565b811461191357600080fd5b50565b600081359050611925816118ff565b92915050565b600080600080600080600080610100898b03121561194c5761194b611633565b5b600061195a8b828c01611916565b985050602061196b8b828c01611850565b975050604061197c8b828c01611916565b965050606061198d8b828c01611850565b955050608061199e8b828c01611850565b94505060a06119af8b828c01611850565b93505060c06119c08b828c01611850565b92505060e06119d18b828c01611850565b9150509295985092959890939650565b60006119ec82611731565b9050919050565b6119fc816119e1565b82525050565b6000602082019050611a1760008301846119f3565b92915050565b600082825260208201905092915050565b7f494e53554646494349454e540000000000000000000000000000000000000000600082015250565b6000611a64600c83611a1d565b9150611a6f82611a2e565b602082019050919050565b60006020820190508181036000830152611a9381611a57565b9050919050565b7f4e487b7100000000000000000000000000000000000000000000000000000000600052601160045260246000fd5b6000611ad4826116c3565b91506000821415611ae857611ae7611a9a565b5b600182039050919050565b7f464f5242494444454e0000000000000000000000000000000000000000000000600082015250565b6000611b29600983611a1d565b9150611b3482611af3565b602082019050919050565b60006020820190508181036000830152611b5881611b1c565b9050919050565b6000611b6a826116c3565b91507fffffffffffffffffffffffffffffffffffffffffffffffffffffffffffffffff821415611b9d57611b9c611a9a565b5b600182019050919050565b600081519050611bb781611839565b92915050565b600060208284031215611bd357611bd2611633565b5b6000611be184828501611ba8565b91505092915050565b6000611bf5826116c3565b9150611c00836116c3565b9250817fffffffffffffffffffffffffffffffffffffffffffffffffffffffffffffffff0483118215151615611c3957611c38611a9a565b5b828202905092915050565b7f4e487b7100000000000000000000000000000000000000000000000000000000600052601260045260246000fd5b6000611c7e826116c3565b9150611c89836116c3565b925082611c9957611c98611c44565b5b828204905092915050565b6000611caf826116c3565b9150611cba836116c3565b925082821015611ccd57611ccc611a9a565b5b828203905092915050565b6000604082019050611ced600083018561180f565b611cfa60208301846116cd565b9392505050565b60008115159050919050565b611d1681611d01565b8114611d2157600080fd5b50565b600081519050611d3381611d0d565b92915050565b600060208284031215611d4f57611d4e611633565b5b6000611d5d84828501611d24565b91505092915050565b6000611d71826116c3565b9150611d7c836116c3565b9250827fffffffffffffffffffffffffffffffffffffffffffffffffffffffffffffffff03821115611db157611db0611a9a565b5b828201905092915050565b6000606082019050611dd1600083018661180f565b611dde602083018561180f565b611deb60408301846116cd565b949350505050565b7f5361666545524332303a204552433230206f7065726174696f6e20646964206e60008201527f6f74207375636365656400000000000000000000000000000000000000000000602082015250565b6000611e4f602a83611a1d565b9150611e5a82611df3565b604082019050919050565b60006020820190508181036000830152611e7e81611e42565b9050919050565b7f416464726573733a20696e73756666696369656e742062616c616e636520666f60008201527f722063616c6c0000000000000000000000000000000000000000000000000000602082015250565b6000611ee1602683611a1d565b9150611eec82611e85565b604082019050919050565b60006020820190508181036000830152611f1081611ed4565b9050919050565b7f416464726573733a2063616c6c20746f206e6f6e2d636f6e7472616374000000600082015250565b6000611f4d601d83611a1d565b9150611f5882611f17565b602082019050919050565b60006020820190508181036000830152611f7c81611f40565b9050919050565b600081519050919050565b600081905092915050565b60005b83811015611fb7578082015181840152602081019050611f9c565b83811115611fc6576000848401525b50505050565b6000611fd782611f83565b611fe18185611f8e565b9350611ff1818560208601611f99565b80840191505092915050565b60006120098284611fcc565b915081905092915050565b600081519050919050565b6000601f19601f8301169050919050565b600061203b82612014565b6120458185611a1d565b9350612055818560208601611f99565b61205e8161201f565b840191505092915050565b600060208201905081810360008301526120838184612030565b90509291505056fea2646970667358221220c4fd56d1fc2298c6ff9673fd57f6a9a9a808c41862e3b83bdc1bb4be3e5b2fe264736f6c63430008090033a26469706673582212209778c6fffd2745d5f425369fd49a1a08bc8a51b8cfce46537601cb52f2a1d8e164736f6c63430008090033",
  "linkReferences": {},
  "deployedLinkReferences": {}
}