{
  "_format": "hh-sol-artifact-1",
  "contractName": "PoolGenerator",
  "sourceName": "contracts/PoolGenerator.sol",
  "abi": [
    {
      "inputs": [
        {
          "internalType": "contract IPoolFactory",
          "name": "_factory",
          "type": "address"
        },
        {
          "internalType": "address",
          "name": "_devAddr",
          "type": "address"
        },
        {
          "internalType": "uint256",
          "name": "_ethFee",
          "type": "uint256"
        }
      ],
      "stateMutability": "nonpayable",
      "type": "constructor"
    },
    {
      "anonymous": false,
      "inputs": [
        {
          "indexed": true,
          "internalType": "address",
          "name": "previousOwner",
          "type": "address"
        },
        {
          "indexed": true,
          "internalType": "address",
          "name": "newOwner",
          "type": "address"
        }
      ],
      "name": "OwnershipTransferred",
      "type": "event"
    },
    {
      "inputs": [
        {
          "internalType": "address",
          "name": "_rewardToken",
          "type": "address"
        },
        {
          "internalType": "address",
          "name": "_lpToken",
          "type": "address"
        },
        {
          "internalType": "uint256",
          "name": "_aprPercent",
          "type": "uint256"
        },
        {
          "internalType": "uint256",
          "name": "_amount",
          "type": "uint256"
        }
      ],
      "name": "createPool",
      "outputs": [
        {
          "internalType": "address",
          "name": "",
          "type": "address"
        }
      ],
      "stateMutability": "payable",
      "type": "function"
    },
    {
      "inputs": [],
      "name": "devaddr",
      "outputs": [
        {
          "internalType": "address",
          "name": "",
          "type": "address"
        }
      ],
      "stateMutability": "view",
      "type": "function"
    },
    {
      "inputs": [],
      "name": "ethFee",
      "outputs": [
        {
          "internalType": "uint256",
          "name": "",
          "type": "uint256"
        }
      ],
      "stateMutability": "view",
      "type": "function"
    },
    {
      "inputs": [],
      "name": "factory",
      "outputs": [
        {
          "internalType": "contract IPoolFactory",
          "name": "",
          "type": "address"
        }
      ],
      "stateMutability": "view",
      "type": "function"
    },
    {
      "inputs": [],
      "name": "owner",
      "outputs": [
        {
          "internalType": "address",
          "name": "",
          "type": "address"
        }
      ],
      "stateMutability": "view",
      "type": "function"
    },
    {
      "inputs": [],
      "name": "renounceOwnership",
      "outputs": [],
      "stateMutability": "nonpayable",
      "type": "function"
    },
    {
      "inputs": [
        {
          "internalType": "address",
          "name": "_devaddr",
          "type": "address"
        }
      ],
      "name": "setDev",
      "outputs": [],
      "stateMutability": "nonpayable",
      "type": "function"
    },
    {
      "inputs": [
        {
          "internalType": "uint256",
          "name": "_ethFee",
          "type": "uint256"
        }
      ],
      "name": "setEthFee",
      "outputs": [],
      "stateMutability": "nonpayable",
      "type": "function"
    },
    {
      "inputs": [
        {
          "internalType": "uint256",
          "name": "_tokenFee",
          "type": "uint256"
        }
      ],
      "name": "setTokenFee",
      "outputs": [],
      "stateMutability": "nonpayable",
      "type": "function"
    },
    {
      "inputs": [],
      "name": "tokenFee",
      "outputs": [
        {
          "internalType": "uint256",
          "name": "",
          "type": "uint256"
        }
      ],
      "stateMutability": "view",
      "type": "function"
    },
    {
      "inputs": [
        {
          "internalType": "address",
          "name": "newOwner",
          "type": "address"
        }
      ],
      "name": "transferOwnership",
      "outputs": [],
      "stateMutability": "nonpayable",
      "type": "function"
    },
    {
      "inputs": [],
      "name": "withdraw",
      "outputs": [],
      "stateMutability": "nonpayable",
      "type": "function"
    },
    {
      "stateMutability": "payable",
      "type": "receive"
    }
  ],
  "bytecode": "0x6080604052603260035534801561001557600080fd5b50604051611714380380611714833981016040819052610034916100dd565b61003d33610075565b600180546001600160a01b039485166001600160a01b0319918216179091556002805493909416921691909117909155600455610120565b600080546001600160a01b038381166001600160a01b0319831681178455604051919092169283917f8be0079c531659141344cd1fd0a4f28419497f9722a3daafe3b4186f6b6457e09190a35050565b6001600160a01b03811681146100da57600080fd5b50565b6000806000606084860312156100f257600080fd5b83516100fd816100c5565b602085015190935061010e816100c5565b80925050604084015190509250925092565b6115e58061012f6000396000f3fe6080604052600436106100ab5760003560e01c8063884db06311610064578063884db063146101625780638da5cb5b1461018d578063c45a0155146101ab578063d477f05f146101cb578063d49e77cd146101eb578063f2fde38b1461020b57600080fd5b806331b31b88146100b75780633ccfd60b146100d95780633f6738a9146100ee578063455991361461010e5780634cf1115d14610137578063715018a61461014d57600080fd5b366100b257005b600080fd5b3480156100c357600080fd5b506100d76100d236600461088b565b61022b565b005b3480156100e557600080fd5b506100d7610238565b3480156100fa57600080fd5b506100d761010936600461088b565b610326565b34801561011a57600080fd5b5061012460035481565b6040519081526020015b60405180910390f35b34801561014357600080fd5b5061012460045481565b34801561015957600080fd5b506100d7610333565b6101756101703660046108c0565b610347565b6040516001600160a01b03909116815260200161012e565b34801561019957600080fd5b506000546001600160a01b0316610175565b3480156101b757600080fd5b50600154610175906001600160a01b031681565b3480156101d757600080fd5b506100d76101e6366004610902565b6104bb565b3480156101f757600080fd5b50600254610175906001600160a01b031681565b34801561021757600080fd5b506100d7610226366004610902565b6104e5565b61023361055e565b600355565b61024061055e565b47806102895760405162461bcd60e51b8152602060048201526013602482015272125b9cdd59999a58da595b9d08185b5bdd5b9d606a1b60448201526064015b60405180910390fd5b6002546040516000916001600160a01b03169083908381818185875af1925050503d80600081146102d6576040519150601f19603f3d011682016040523d82523d6000602084013e6102db565b606091505b50509050806103225760405162461bcd60e51b81526020600482015260136024820152722330b4b632b2103332b2903a3930b739b332b960691b6044820152606401610280565b5050565b61032e61055e565b600455565b61033b61055e565b61034560006105b8565b565b60006004543410156103915760405162461bcd60e51b8152602060048201526013602482015272125b9cdd59999a58da595b9d08185b5bdd5b9d606a1b6044820152606401610280565b6000848633866040516103a39061087e565b6001600160a01b0394851681529284166020840152921660408201526060810191909152608001604051809103906000f0801580156103e6573d6000803e3d6000fd5b5060025460035491925061042b9133916001600160a01b031690610419906103e890610413908990610608565b9061061b565b6001600160a01b038a16929190610627565b61045033826104196103e86104136003546103e86104499190610933565b8990610608565b6001546040516355ec842360e11b81526001600160a01b0383811660048301529091169063abd9084690602401600060405180830381600087803b15801561049757600080fd5b505af11580156104ab573d6000803e3d6000fd5b509293505050505b949350505050565b6104c361055e565b600280546001600160a01b0319166001600160a01b0392909216919091179055565b6104ed61055e565b6001600160a01b0381166105525760405162461bcd60e51b815260206004820152602660248201527f4f776e61626c653a206e6577206f776e657220697320746865207a65726f206160448201526564647265737360d01b6064820152608401610280565b61055b816105b8565b50565b6000546001600160a01b031633146103455760405162461bcd60e51b815260206004820181905260248201527f4f776e61626c653a2063616c6c6572206973206e6f7420746865206f776e65726044820152606401610280565b600080546001600160a01b038381166001600160a01b0319831681178455604051919092169283917f8be0079c531659141344cd1fd0a4f28419497f9722a3daafe3b4186f6b6457e09190a35050565b6000610614828461094a565b9392505050565b60006106148284610969565b604080516001600160a01b0385811660248301528416604482015260648082018490528251808303909101815260849091019091526020810180516001600160e01b03166323b872dd60e01b179052610681908590610687565b50505050565b60006106dc826040518060400160405280602081526020017f5361666545524332303a206c6f772d6c6576656c2063616c6c206661696c6564815250856001600160a01b031661075e9092919063ffffffff16565b80519091501561075957808060200190518101906106fa919061098b565b6107595760405162461bcd60e51b815260206004820152602a60248201527f5361666545524332303a204552433230206f7065726174696f6e20646964206e6044820152691bdd081cdd58d8d9595960b21b6064820152608401610280565b505050565b60606104b3848460008585600080866001600160a01b0316858760405161078591906109d9565b60006040518083038185875af1925050503d80600081146107c2576040519150601f19603f3d011682016040523d82523d6000602084013e6107c7565b606091505b50915091506107d8878383876107e3565b979650505050505050565b6060831561084f578251610848576001600160a01b0385163b6108485760405162461bcd60e51b815260206004820152601d60248201527f416464726573733a2063616c6c20746f206e6f6e2d636f6e74726163740000006044820152606401610280565b50816104b3565b6104b383838151156108645781518083602001fd5b8060405162461bcd60e51b815260040161028091906109f5565b610b8780610a2983390190565b60006020828403121561089d57600080fd5b5035919050565b80356001600160a01b03811681146108bb57600080fd5b919050565b600080600080608085870312156108d657600080fd5b6108df856108a4565b93506108ed602086016108a4565b93969395505050506040820135916060013590565b60006020828403121561091457600080fd5b610614826108a4565b634e487b7160e01b600052601160045260246000fd5b6000828210156109455761094561091d565b500390565b60008160001904831182151516156109645761096461091d565b500290565b60008261098657634e487b7160e01b600052601260045260246000fd5b500490565b60006020828403121561099d57600080fd5b8151801515811461061457600080fd5b60005b838110156109c85781810151838201526020016109b0565b838111156106815750506000910152565b600082516109eb8184602087016109ad565b9190910192915050565b6020815260008251806020840152610a148160408501602087016109ad565b601f01601f1916919091016040019291505056fe6080604052600a600355600f60075534801561001a57600080fd5b50604051610b87380380610b878339810160408190526100399161009f565b6001600081905580546001600160a01b03199081166001600160a01b03968716179091556002805482169486169490941790935560048054909316919093161790556007556100ea565b80516001600160a01b038116811461009a57600080fd5b919050565b600080600080608085870312156100b557600080fd5b6100be85610083565b93506100cc60208601610083565b92506100da60408601610083565b6060959095015193969295505050565b610a8e806100f96000396000f3fe608060405234801561001057600080fd5b50600436106100ea5760003560e01c8063a694fc3a1161008c578063f40f0f5211610066578063f40f0f52146101af578063f7c618c1146101c2578063fc0c546a146101d5578063fc7e286d146101e857600080fd5b8063a694fc3a14610173578063cb03fb1e14610186578063ddca3f43146101a657600080fd5b80634641257d116100c85780634641257d1461014657806357a0a1401461014e57806370a0823114610157578063a2e80c5e1461016a57600080fd5b80631319649d146100ef5780632bd10d02146101065780632e17de7814610131575b600080fd5b6008545b6040519081526020015b60405180910390f35b600454610119906001600160a01b031681565b6040516001600160a01b0390911681526020016100fd565b61014461013f3660046108f3565b610208565b005b610144610325565b6100f360075481565b6100f361016536600461090c565b610428565b6100f360085481565b6101446101813660046108f3565b61045c565b6100f361019436600461090c565b60066020526000908152604090205481565b6100f360035481565b6100f36101bd36600461090c565b610550565b600254610119906001600160a01b031681565b600154610119906001600160a01b031681565b6100f36101f636600461090c565b60056020526000908152604090205481565b336000908152600560205260409020548111156102785760405162461bcd60e51b815260206004820152602360248201527f4e6f7420656e6f75676820757365722062616c616e636520746f20776974686460448201526272617760e81b60648201526084015b60405180910390fd5b600061028333610550565b905080156102a2576002546102a2906001600160a01b031633836105cf565b336000908152600560205260409020548214156102d2576001600860008282546102cc919061094b565b90915550505b33600090815260056020526040812080548492906102f190849061094b565b9091555050336000818152600660205260409020429055600154610321916001600160a01b0390911690846105cf565b5050565b3360009081526005602052604090205461037a5760405162461bcd60e51b81526020600482015260166024820152754e6f2062616c616e636520746f20776974686472617760501b604482015260640161026f565b600061038533610550565b905080156104135760025460405163a9059cbb60e01b8152336004820152602481018390526001600160a01b039091169063a9059cbb90604401602060405180830381600087803b1580156103d957600080fd5b505af11580156103ed573d6000803e3d6000fd5b505050506040513d601f19601f820116820180604052508101906104119190610962565b505b50336000908152600660205260409020429055565b600061043382610550565b6001600160a01b0383166000908152600560205260409020546104569190610984565b92915050565b600061046733610550565b9050801561048657600254610486906001600160a01b031633836105cf565b336000908152600560205260409020546104a08382610984565b33600081815260056020908152604080832094909455600690529190912042905560045460035461050392916001600160a01b0316906104ef906103e8906104e9908990610632565b9061063e565b6001546001600160a01b031692919061064a565b61052d33306104ef6105266103e86104e96003548a61063290919063ffffffff16565b8790610688565b8061054b576001600860008282546105459190610984565b90915550505b505050565b6001600160a01b0381166000908152600660205260408120548190610575904261094b565b90506105c862278d006104e9836105c26103e86104e9600754600560008c6001600160a01b03166001600160a01b031681526020019081526020016000205461063290919063ffffffff16565b90610632565b9392505050565b6040516001600160a01b03831660248201526044810182905261054b90849063a9059cbb60e01b906064015b60408051601f198184030181529190526020810180516001600160e01b03166001600160e01b031990931692909217909152610694565b60006105c8828461099c565b60006105c882846109bb565b6040516001600160a01b03808516602483015283166044820152606481018290526106829085906323b872dd60e01b906084016105fb565b50505050565b60006105c8828461094b565b60006106e9826040518060400160405280602081526020017f5361666545524332303a206c6f772d6c6576656c2063616c6c206661696c6564815250856001600160a01b03166107669092919063ffffffff16565b80519091501561054b57808060200190518101906107079190610962565b61054b5760405162461bcd60e51b815260206004820152602a60248201527f5361666545524332303a204552433230206f7065726174696f6e20646964206e6044820152691bdd081cdd58d8d9595960b21b606482015260840161026f565b6060610775848460008561077d565b949350505050565b6060824710156107de5760405162461bcd60e51b815260206004820152602660248201527f416464726573733a20696e73756666696369656e742062616c616e636520666f6044820152651c8818d85b1b60d21b606482015260840161026f565b600080866001600160a01b031685876040516107fa9190610a09565b60006040518083038185875af1925050503d8060008114610837576040519150601f19603f3d011682016040523d82523d6000602084013e61083c565b606091505b509150915061084d87838387610858565b979650505050505050565b606083156108c45782516108bd576001600160a01b0385163b6108bd5760405162461bcd60e51b815260206004820152601d60248201527f416464726573733a2063616c6c20746f206e6f6e2d636f6e7472616374000000604482015260640161026f565b5081610775565b61077583838151156108d95781518083602001fd5b8060405162461bcd60e51b815260040161026f9190610a25565b60006020828403121561090557600080fd5b5035919050565b60006020828403121561091e57600080fd5b81356001600160a01b03811681146105c857600080fd5b634e487b7160e01b600052601160045260246000fd5b60008282101561095d5761095d610935565b500390565b60006020828403121561097457600080fd5b815180151581146105c857600080fd5b6000821982111561099757610997610935565b500190565b60008160001904831182151516156109b6576109b6610935565b500290565b6000826109d857634e487b7160e01b600052601260045260246000fd5b500490565b60005b838110156109f85781810151838201526020016109e0565b838111156106825750506000910152565b60008251610a1b8184602087016109dd565b9190910192915050565b6020815260008251806020840152610a448160408501602087016109dd565b601f01601f1916919091016040019291505056fea2646970667358221220d1fd497f5870130aa6237a76be07df6177d359694ab78f024a5357decab6d5a464736f6c63430008090033a26469706673582212202068eccf64ba7fcbcff6e4346de00905d404863303a75b11ab3fa561591eab7064736f6c63430008090033",
  "linkReferences": {},
  "deployedLinkReferences": {}
}