{
  "_format": "hh-sol-artifact-1",
  "contractName": "Farm",
  "sourceName": "contracts/Farm.sol",
  "abi": [
    {
      "inputs": [
        {
          "internalType": "address",
          "name": "_factory",
          "type": "address"
        },
        {
          "internalType": "address",
          "name": "_farmGenerator",
          "type": "address"
        }
      ],
      "stateMutability": "nonpayable",
      "type": "constructor"
    },
    {
      "anonymous": false,
      "inputs": [
        {
          "indexed": true,
          "internalType": "address",
          "name": "user",
          "type": "address"
        },
        {
          "indexed": false,
          "internalType": "uint256",
          "name": "amount",
          "type": "uint256"
        }
      ],
      "name": "Deposit",
      "type": "event"
    },
    {
      "anonymous": false,
      "inputs": [
        {
          "indexed": true,
          "internalType": "address",
          "name": "user",
          "type": "address"
        },
        {
          "indexed": false,
          "internalType": "uint256",
          "name": "amount",
          "type": "uint256"
        }
      ],
      "name": "EmergencyWithdraw",
      "type": "event"
    },
    {
      "anonymous": false,
      "inputs": [
        {
          "indexed": true,
          "internalType": "address",
          "name": "user",
          "type": "address"
        },
        {
          "indexed": false,
          "internalType": "uint256",
          "name": "amount",
          "type": "uint256"
        }
      ],
      "name": "Withdraw",
      "type": "event"
    },
    {
      "inputs": [
        {
          "internalType": "uint256",
          "name": "_amount",
          "type": "uint256"
        }
      ],
      "name": "deposit",
      "outputs": [],
      "stateMutability": "nonpayable",
      "type": "function"
    },
    {
      "inputs": [],
      "name": "emergencyWithdraw",
      "outputs": [],
      "stateMutability": "nonpayable",
      "type": "function"
    },
    {
      "inputs": [],
      "name": "factory",
      "outputs": [
        {
          "internalType": "contract IFactory",
          "name": "",
          "type": "address"
        }
      ],
      "stateMutability": "view",
      "type": "function"
    },
    {
      "inputs": [],
      "name": "farmGenerator",
      "outputs": [
        {
          "internalType": "address",
          "name": "",
          "type": "address"
        }
      ],
      "stateMutability": "view",
      "type": "function"
    },
    {
      "inputs": [],
      "name": "farmInfo",
      "outputs": [
        {
          "internalType": "contract IERC20",
          "name": "lpToken",
          "type": "address"
        },
        {
          "internalType": "contract IERC20",
          "name": "rewardToken",
          "type": "address"
        },
        {
          "internalType": "uint256",
          "name": "startBlock",
          "type": "uint256"
        },
        {
          "internalType": "uint256",
          "name": "blockReward",
          "type": "uint256"
        },
        {
          "internalType": "uint256",
          "name": "bonusEndBlock",
          "type": "uint256"
        },
        {
          "internalType": "uint256",
          "name": "bonus",
          "type": "uint256"
        },
        {
          "internalType": "uint256",
          "name": "endBlock",
          "type": "uint256"
        },
        {
          "internalType": "uint256",
          "name": "lastRewardBlock",
          "type": "uint256"
        },
        {
          "internalType": "uint256",
          "name": "accRewardPerShare",
          "type": "uint256"
        },
        {
          "internalType": "uint256",
          "name": "farmableSupply",
          "type": "uint256"
        },
        {
          "internalType": "uint256",
          "name": "numFarmers",
          "type": "uint256"
        }
      ],
      "stateMutability": "view",
      "type": "function"
    },
    {
      "inputs": [],
      "name": "farmType",
      "outputs": [
        {
          "internalType": "uint256",
          "name": "",
          "type": "uint256"
        }
      ],
      "stateMutability": "view",
      "type": "function"
    },
    {
      "inputs": [
        {
          "internalType": "uint256",
          "name": "_from_block",
          "type": "uint256"
        },
        {
          "internalType": "uint256",
          "name": "_to",
          "type": "uint256"
        }
      ],
      "name": "getMultiplier",
      "outputs": [
        {
          "internalType": "uint256",
          "name": "",
          "type": "uint256"
        }
      ],
      "stateMutability": "view",
      "type": "function"
    },
    {
      "inputs": [
        {
          "internalType": "contract IERC20",
          "name": "_rewardToken",
          "type": "address"
        },
        {
          "internalType": "uint256",
          "name": "_amount",
          "type": "uint256"
        },
        {
          "internalType": "contract IERC20",
          "name": "_lpToken",
          "type": "address"
        },
        {
          "internalType": "uint256",
          "name": "_blockReward",
          "type": "uint256"
        },
        {
          "internalType": "uint256",
          "name": "_startBlock",
          "type": "uint256"
        },
        {
          "internalType": "uint256",
          "name": "_endBlock",
          "type": "uint256"
        },
        {
          "internalType": "uint256",
          "name": "_bonusEndBlock",
          "type": "uint256"
        },
        {
          "internalType": "uint256",
          "name": "_bonus",
          "type": "uint256"
        }
      ],
      "name": "init",
      "outputs": [],
      "stateMutability": "nonpayable",
      "type": "function"
    },
    {
      "inputs": [
        {
          "internalType": "address",
          "name": "_user",
          "type": "address"
        }
      ],
      "name": "pendingReward",
      "outputs": [
        {
          "internalType": "uint256",
          "name": "",
          "type": "uint256"
        }
      ],
      "stateMutability": "view",
      "type": "function"
    },
    {
      "inputs": [],
      "name": "updatePool",
      "outputs": [],
      "stateMutability": "nonpayable",
      "type": "function"
    },
    {
      "inputs": [
        {
          "internalType": "address",
          "name": "",
          "type": "address"
        }
      ],
      "name": "userInfo",
      "outputs": [
        {
          "internalType": "uint256",
          "name": "amount",
          "type": "uint256"
        },
        {
          "internalType": "uint256",
          "name": "rewardDebt",
          "type": "uint256"
        }
      ],
      "stateMutability": "view",
      "type": "function"
    },
    {
      "inputs": [
        {
          "internalType": "uint256",
          "name": "_amount",
          "type": "uint256"
        }
      ],
      "name": "withdraw",
      "outputs": [],
      "stateMutability": "nonpayable",
      "type": "function"
    }
  ],
  "bytecode": "0x608060405260016000553480156200001657600080fd5b50604051620022483803806200224883398181016040528101906200003c919062000130565b81600160006101000a81548173ffffffffffffffffffffffffffffffffffffffff021916908373ffffffffffffffffffffffffffffffffffffffff16021790555080600260006101000a81548173ffffffffffffffffffffffffffffffffffffffff021916908373ffffffffffffffffffffffffffffffffffffffff160217905550505062000177565b600080fd5b600073ffffffffffffffffffffffffffffffffffffffff82169050919050565b6000620000f882620000cb565b9050919050565b6200010a81620000eb565b81146200011657600080fd5b50565b6000815190506200012a81620000ff565b92915050565b600080604083850312156200014a5762000149620000c6565b5b60006200015a8582860162000119565b92505060206200016d8582860162000119565b9150509250929050565b6120c180620001876000396000f3fe608060405234801561001057600080fd5b50600436106100b45760003560e01c8063b20268c211610071578063b20268c21461019a578063b6b55f25146101b6578063c45a0155146101d2578063db2e21bc146101f0578063e3161ddd146101fa578063f40f0f5214610204576100b4565b80631959a002146100b95780631d49d66c146100ea5780632dd99996146101125780632e1a7d4d146101305780632ebed9ec1461014c5780638dbb1e3a1461016a575b600080fd5b6100d360048036038101906100ce9190611696565b610234565b6040516100e19291906116dc565b60405180910390f35b6100f2610258565b6040516101099b9a99989796959493929190611764565b60405180910390f35b61011a6102e0565b604051610127919061181e565b60405180910390f35b61014a60048036038101906101459190611865565b610306565b005b6101546105ad565b6040516101619190611892565b60405180910390f35b610184600480360381019061017f91906118ad565b6105b3565b6040516101919190611892565b60405180910390f35b6101b460048036038101906101af919061192b565b6106b9565b005b6101d060048036038101906101cb9190611865565b61086c565b005b6101da610add565b6040516101e79190611a02565b60405180910390f35b6101f8610b03565b005b610202610cb9565b005b61021e60048036038101906102199190611696565b610e4d565b60405161022b9190611892565b60405180910390f35b600e6020528060005260406000206000915090508060000154908060010154905082565b60038060000160009054906101000a900473ffffffffffffffffffffffffffffffffffffffff16908060010160009054906101000a900473ffffffffffffffffffffffffffffffffffffffff169080600201549080600301549080600401549080600501549080600601549080600701549080600801549080600901549080600a015490508b565b600260009054906101000a900473ffffffffffffffffffffffffffffffffffffffff1681565b6000600e60003373ffffffffffffffffffffffffffffffffffffffff1673ffffffffffffffffffffffffffffffffffffffff16815260200190815260200160002090508181600001541015610390576040517f08c379a000000000000000000000000000000000000000000000000000000000815260040161038790611a7a565b60405180910390fd5b610398610cb9565b8181600001541480156103ab5750600082115b1561045957600160009054906101000a900473ffffffffffffffffffffffffffffffffffffffff1673ffffffffffffffffffffffffffffffffffffffff166376cb2554336040518263ffffffff1660e01b815260040161040b919061181e565b600060405180830381600087803b15801561042557600080fd5b505af1158015610439573d6000803e3d6000fd5b505050506003600a01600081548092919061045390611ac9565b91905055505b60006104a4826001015461049664e8d4a51000610488600360080154876000015461102490919063ffffffff16565b61103a90919063ffffffff16565b61105090919063ffffffff16565b90506104b03382611066565b6104c783836000015461105090919063ffffffff16565b826000018190555061050264e8d4a510006104f4600360080154856000015461102490919063ffffffff16565b61103a90919063ffffffff16565b826001018190555061055a3384600360000160009054906101000a900473ffffffffffffffffffffffffffffffffffffffff1673ffffffffffffffffffffffffffffffffffffffff166112919092919063ffffffff16565b3373ffffffffffffffffffffffffffffffffffffffff167f884edad9ce6fa2440d8a54cc123490eb96d2768479d49ff9c7366125a9424364846040516105a09190611892565b60405180910390a2505050565b60005481565b6000806003600201548410156105ce576003600201546105d0565b835b9050600083600360060154116105eb576003600601546105ed565b835b9050600360040154811161062e57610625600360050154610617848461105090919063ffffffff16565b61102490919063ffffffff16565b925050506106b3565b60036004015482106106565761064d828261105090919063ffffffff16565b925050506106b3565b6106ae6106716003600401548361105090919063ffffffff16565b6106a06003600501546106928660036004015461105090919063ffffffff16565b61102490919063ffffffff16565b61131790919063ffffffff16565b925050505b92915050565b600260009054906101000a900473ffffffffffffffffffffffffffffffffffffffff1673ffffffffffffffffffffffffffffffffffffffff163373ffffffffffffffffffffffffffffffffffffffff1614610749576040517f08c379a000000000000000000000000000000000000000000000000000000000815260040161074090611b3f565b60405180910390fd5b6107763330898b73ffffffffffffffffffffffffffffffffffffffff1661132d909392919063ffffffff16565b87600360010160006101000a81548173ffffffffffffffffffffffffffffffffffffffff021916908373ffffffffffffffffffffffffffffffffffffffff16021790555083600360020181905550846003800181905550816003600401819055508060036005018190555060008443116107f057846107f2565b435b905086600360000160006101000a81548173ffffffffffffffffffffffffffffffffffffffff021916908373ffffffffffffffffffffffffffffffffffffffff1602179055508060036007018190555060006003600801819055508360036006018190555087600360090181905550505050505050505050565b6000600e60003373ffffffffffffffffffffffffffffffffffffffff1673ffffffffffffffffffffffffffffffffffffffff16815260200190815260200160002090506108b7610cb9565b60008160000154111561091d57600061090f826001015461090164e8d4a510006108f3600360080154876000015461102490919063ffffffff16565b61103a90919063ffffffff16565b61105090919063ffffffff16565b905061091b3382611066565b505b600081600001541480156109315750600082115b156109df57600160009054906101000a900473ffffffffffffffffffffffffffffffffffffffff1673ffffffffffffffffffffffffffffffffffffffff166379cdf99b336040518263ffffffff1660e01b8152600401610991919061181e565b600060405180830381600087803b1580156109ab57600080fd5b505af11580156109bf573d6000803e3d6000fd5b505050506003600a0160008154809291906109d990611b5f565b91905055505b610a31333084600360000160009054906101000a900473ffffffffffffffffffffffffffffffffffffffff1673ffffffffffffffffffffffffffffffffffffffff1661132d909392919063ffffffff16565b610a4882826000015461131790919063ffffffff16565b8160000181905550610a8364e8d4a51000610a75600360080154846000015461102490919063ffffffff16565b61103a90919063ffffffff16565b81600101819055503373ffffffffffffffffffffffffffffffffffffffff167fe1fffcc4923d04b559f4d29a8bfc6cda04eb5b0d3c460751c2402c5c5cc9109c83604051610ad19190611892565b60405180910390a25050565b600160009054906101000a900473ffffffffffffffffffffffffffffffffffffffff1681565b6000600e60003373ffffffffffffffffffffffffffffffffffffffff1673ffffffffffffffffffffffffffffffffffffffff1681526020019081526020016000209050610b9a338260000154600360000160009054906101000a900473ffffffffffffffffffffffffffffffffffffffff1673ffffffffffffffffffffffffffffffffffffffff166112919092919063ffffffff16565b3373ffffffffffffffffffffffffffffffffffffffff167f5fafa99d0643513820be26656b45130b01e1c03062e1266bf36f88cbd3bd96958260000154604051610be49190611892565b60405180910390a2600081600001541115610ca257600160009054906101000a900473ffffffffffffffffffffffffffffffffffffffff1673ffffffffffffffffffffffffffffffffffffffff166376cb2554336040518263ffffffff1660e01b8152600401610c54919061181e565b600060405180830381600087803b158015610c6e57600080fd5b505af1158015610c82573d6000803e3d6000fd5b505050506003600a016000815480929190610c9c90611ac9565b91905055505b600081600001819055506000816001018190555050565b6003600701544311610cca57610e4b565b6000600360000160009054906101000a900473ffffffffffffffffffffffffffffffffffffffff1673ffffffffffffffffffffffffffffffffffffffff166370a08231306040518263ffffffff1660e01b8152600401610d2a919061181e565b60206040518083038186803b158015610d4257600080fd5b505afa158015610d56573d6000803e3d6000fd5b505050506040513d601f19601f82011682018060405250810190610d7a9190611bbd565b90506000811415610dad576003600601544310610d9c57600360060154610d9e565b435b60036007018190555050610e4b565b6000610dbe600360070154436105b3565b90506000610dd960038001548361102490919063ffffffff16565b9050610e1c610e0884610dfa64e8d4a510008561102490919063ffffffff16565b61103a90919063ffffffff16565b60036008015461131790919063ffffffff16565b6003600801819055506003600601544310610e3c57600360060154610e3e565b435b6003600701819055505050505b565b600080600e60008473ffffffffffffffffffffffffffffffffffffffff1673ffffffffffffffffffffffffffffffffffffffff1681526020019081526020016000209050600060036008015490506000600360000160009054906101000a900473ffffffffffffffffffffffffffffffffffffffff1673ffffffffffffffffffffffffffffffffffffffff166370a08231306040518263ffffffff1660e01b8152600401610efb919061181e565b60206040518083038186803b158015610f1357600080fd5b505afa158015610f27573d6000803e3d6000fd5b505050506040513d601f19601f82011682018060405250810190610f4b9190611bbd565b905060036007015443118015610f62575060008114155b15610fd6576000610f78600360070154436105b3565b90506000610f9360038001548361102490919063ffffffff16565b9050610fd1610fc284610fb464e8d4a510008561102490919063ffffffff16565b61103a90919063ffffffff16565b8561131790919063ffffffff16565b935050505b61101a836001015461100c64e8d4a51000610ffe86886000015461102490919063ffffffff16565b61103a90919063ffffffff16565b61105090919063ffffffff16565b9350505050919050565b600081836110329190611bea565b905092915050565b600081836110489190611c73565b905092915050565b6000818361105e9190611ca4565b905092915050565b6000600360010160009054906101000a900473ffffffffffffffffffffffffffffffffffffffff1673ffffffffffffffffffffffffffffffffffffffff166370a08231306040518263ffffffff1660e01b81526004016110c6919061181e565b60206040518083038186803b1580156110de57600080fd5b505afa1580156110f2573d6000803e3d6000fd5b505050506040513d601f19601f820116820180604052508101906111169190611bbd565b9050808211156111d857600360010160009054906101000a900473ffffffffffffffffffffffffffffffffffffffff1673ffffffffffffffffffffffffffffffffffffffff1663a9059cbb84836040518363ffffffff1660e01b8152600401611180929190611cd8565b602060405180830381600087803b15801561119a57600080fd5b505af11580156111ae573d6000803e3d6000fd5b505050506040513d601f19601f820116820180604052508101906111d29190611d39565b5061128c565b600360010160009054906101000a900473ffffffffffffffffffffffffffffffffffffffff1673ffffffffffffffffffffffffffffffffffffffff1663a9059cbb84846040518363ffffffff1660e01b8152600401611238929190611cd8565b602060405180830381600087803b15801561125257600080fd5b505af1158015611266573d6000803e3d6000fd5b505050506040513d601f19601f8201168201806040525081019061128a9190611d39565b505b505050565b6113128363a9059cbb60e01b84846040516024016112b0929190611cd8565b604051602081830303815290604052907bffffffffffffffffffffffffffffffffffffffffffffffffffffffff19166020820180517bffffffffffffffffffffffffffffffffffffffffffffffffffffffff83818316178352505050506113b6565b505050565b600081836113259190611d66565b905092915050565b6113b0846323b872dd60e01b85858560405160240161134e93929190611dbc565b604051602081830303815290604052907bffffffffffffffffffffffffffffffffffffffffffffffffffffffff19166020820180517bffffffffffffffffffffffffffffffffffffffffffffffffffffffff83818316178352505050506113b6565b50505050565b6000611418826040518060400160405280602081526020017f5361666545524332303a206c6f772d6c6576656c2063616c6c206661696c65648152508573ffffffffffffffffffffffffffffffffffffffff1661147d9092919063ffffffff16565b905060008151111561147857808060200190518101906114389190611d39565b611477576040517f08c379a000000000000000000000000000000000000000000000000000000000815260040161146e90611e65565b60405180910390fd5b5b505050565b606061148c8484600085611495565b90509392505050565b6060824710156114da576040517f08c379a00000000000000000000000000000000000000000000000000000000081526004016114d190611ef7565b60405180910390fd5b6114e3856115a9565b611522576040517f08c379a000000000000000000000000000000000000000000000000000000000815260040161151990611f63565b60405180910390fd5b6000808673ffffffffffffffffffffffffffffffffffffffff16858760405161154b9190611ffd565b60006040518083038185875af1925050503d8060008114611588576040519150601f19603f3d011682016040523d82523d6000602084013e61158d565b606091505b509150915061159d8282866115cc565b92505050949350505050565b6000808273ffffffffffffffffffffffffffffffffffffffff163b119050919050565b606083156115dc5782905061162c565b6000835111156115ef5782518084602001fd5b816040517f08c379a00000000000000000000000000000000000000000000000000000000081526004016116239190612069565b60405180910390fd5b9392505050565b600080fd5b600073ffffffffffffffffffffffffffffffffffffffff82169050919050565b600061166382611638565b9050919050565b61167381611658565b811461167e57600080fd5b50565b6000813590506116908161166a565b92915050565b6000602082840312156116ac576116ab611633565b5b60006116ba84828501611681565b91505092915050565b6000819050919050565b6116d6816116c3565b82525050565b60006040820190506116f160008301856116cd565b6116fe60208301846116cd565b9392505050565b6000819050919050565b600061172a61172561172084611638565b611705565b611638565b9050919050565b600061173c8261170f565b9050919050565b600061174e82611731565b9050919050565b61175e81611743565b82525050565b60006101608201905061177a600083018e611755565b611787602083018d611755565b611794604083018c6116cd565b6117a1606083018b6116cd565b6117ae608083018a6116cd565b6117bb60a08301896116cd565b6117c860c08301886116cd565b6117d560e08301876116cd565b6117e36101008301866116cd565b6117f16101208301856116cd565b6117ff6101408301846116cd565b9c9b505050505050505050505050565b61181881611658565b82525050565b6000602082019050611833600083018461180f565b92915050565b611842816116c3565b811461184d57600080fd5b50565b60008135905061185f81611839565b92915050565b60006020828403121561187b5761187a611633565b5b600061188984828501611850565b91505092915050565b60006020820190506118a760008301846116cd565b92915050565b600080604083850312156118c4576118c3611633565b5b60006118d285828601611850565b92505060206118e385828601611850565b9150509250929050565b60006118f882611658565b9050919050565b611908816118ed565b811461191357600080fd5b50565b600081359050611925816118ff565b92915050565b600080600080600080600080610100898b03121561194c5761194b611633565b5b600061195a8b828c01611916565b985050602061196b8b828c01611850565b975050604061197c8b828c01611916565b965050606061198d8b828c01611850565b955050608061199e8b828c01611850565b94505060a06119af8b828c01611850565b93505060c06119c08b828c01611850565b92505060e06119d18b828c01611850565b9150509295985092959890939650565b60006119ec82611731565b9050919050565b6119fc816119e1565b82525050565b6000602082019050611a1760008301846119f3565b92915050565b600082825260208201905092915050565b7f494e53554646494349454e540000000000000000000000000000000000000000600082015250565b6000611a64600c83611a1d565b9150611a6f82611a2e565b602082019050919050565b60006020820190508181036000830152611a9381611a57565b9050919050565b7f4e487b7100000000000000000000000000000000000000000000000000000000600052601160045260246000fd5b6000611ad4826116c3565b91506000821415611ae857611ae7611a9a565b5b600182039050919050565b7f464f5242494444454e0000000000000000000000000000000000000000000000600082015250565b6000611b29600983611a1d565b9150611b3482611af3565b602082019050919050565b60006020820190508181036000830152611b5881611b1c565b9050919050565b6000611b6a826116c3565b91507fffffffffffffffffffffffffffffffffffffffffffffffffffffffffffffffff821415611b9d57611b9c611a9a565b5b600182019050919050565b600081519050611bb781611839565b92915050565b600060208284031215611bd357611bd2611633565b5b6000611be184828501611ba8565b91505092915050565b6000611bf5826116c3565b9150611c00836116c3565b9250817fffffffffffffffffffffffffffffffffffffffffffffffffffffffffffffffff0483118215151615611c3957611c38611a9a565b5b828202905092915050565b7f4e487b7100000000000000000000000000000000000000000000000000000000600052601260045260246000fd5b6000611c7e826116c3565b9150611c89836116c3565b925082611c9957611c98611c44565b5b828204905092915050565b6000611caf826116c3565b9150611cba836116c3565b925082821015611ccd57611ccc611a9a565b5b828203905092915050565b6000604082019050611ced600083018561180f565b611cfa60208301846116cd565b9392505050565b60008115159050919050565b611d1681611d01565b8114611d2157600080fd5b50565b600081519050611d3381611d0d565b92915050565b600060208284031215611d4f57611d4e611633565b5b6000611d5d84828501611d24565b91505092915050565b6000611d71826116c3565b9150611d7c836116c3565b9250827fffffffffffffffffffffffffffffffffffffffffffffffffffffffffffffffff03821115611db157611db0611a9a565b5b828201905092915050565b6000606082019050611dd1600083018661180f565b611dde602083018561180f565b611deb60408301846116cd565b949350505050565b7f5361666545524332303a204552433230206f7065726174696f6e20646964206e60008201527f6f74207375636365656400000000000000000000000000000000000000000000602082015250565b6000611e4f602a83611a1d565b9150611e5a82611df3565b604082019050919050565b60006020820190508181036000830152611e7e81611e42565b9050919050565b7f416464726573733a20696e73756666696369656e742062616c616e636520666f60008201527f722063616c6c0000000000000000000000000000000000000000000000000000602082015250565b6000611ee1602683611a1d565b9150611eec82611e85565b604082019050919050565b60006020820190508181036000830152611f1081611ed4565b9050919050565b7f416464726573733a2063616c6c20746f206e6f6e2d636f6e7472616374000000600082015250565b6000611f4d601d83611a1d565b9150611f5882611f17565b602082019050919050565b60006020820190508181036000830152611f7c81611f40565b9050919050565b600081519050919050565b600081905092915050565b60005b83811015611fb7578082015181840152602081019050611f9c565b83811115611fc6576000848401525b50505050565b6000611fd782611f83565b611fe18185611f8e565b9350611ff1818560208601611f99565b80840191505092915050565b60006120098284611fcc565b915081905092915050565b600081519050919050565b6000601f19601f8301169050919050565b600061203b82612014565b6120458185611a1d565b9350612055818560208601611f99565b61205e8161201f565b840191505092915050565b600060208201905081810360008301526120838184612030565b90509291505056fea2646970667358221220c4fd56d1fc2298c6ff9673fd57f6a9a9a808c41862e3b83bdc1bb4be3e5b2fe264736f6c63430008090033",
  "linkReferences": {},
  "deployedLinkReferences": {}
}