{
  "_format": "hh-sol-artifact-1",
  "contractName": "Farm",
  "sourceName": "contracts/Farm.sol",
  "abi": [
    {
      "inputs": [
        {
          "internalType": "address",
          "name": "_factory",
          "type": "address"
        },
        {
          "internalType": "address",
          "name": "_farmGenerator",
          "type": "address"
        }
      ],
      "stateMutability": "nonpayable",
      "type": "constructor"
    },
    {
      "anonymous": false,
      "inputs": [
        {
          "indexed": true,
          "internalType": "address",
          "name": "user",
          "type": "address"
        },
        {
          "indexed": false,
          "internalType": "uint256",
          "name": "amount",
          "type": "uint256"
        }
      ],
      "name": "Deposit",
      "type": "event"
    },
    {
      "anonymous": false,
      "inputs": [
        {
          "indexed": true,
          "internalType": "address",
          "name": "user",
          "type": "address"
        },
        {
          "indexed": false,
          "internalType": "uint256",
          "name": "amount",
          "type": "uint256"
        }
      ],
      "name": "EmergencyWithdraw",
      "type": "event"
    },
    {
      "anonymous": false,
      "inputs": [
        {
          "indexed": true,
          "internalType": "address",
          "name": "user",
          "type": "address"
        },
        {
          "indexed": false,
          "internalType": "uint256",
          "name": "amount",
          "type": "uint256"
        }
      ],
      "name": "Withdraw",
      "type": "event"
    },
    {
      "inputs": [
        {
          "internalType": "uint256",
          "name": "_amount",
          "type": "uint256"
        }
      ],
      "name": "deposit",
      "outputs": [],
      "stateMutability": "nonpayable",
      "type": "function"
    },
    {
      "inputs": [],
      "name": "emergencyWithdraw",
      "outputs": [],
      "stateMutability": "nonpayable",
      "type": "function"
    },
    {
      "inputs": [],
      "name": "factory",
      "outputs": [
        {
          "internalType": "contract IFactory",
          "name": "",
          "type": "address"
        }
      ],
      "stateMutability": "view",
      "type": "function"
    },
    {
      "inputs": [],
      "name": "farmGenerator",
      "outputs": [
        {
          "internalType": "address",
          "name": "",
          "type": "address"
        }
      ],
      "stateMutability": "view",
      "type": "function"
    },
    {
      "inputs": [],
      "name": "farmInfo",
      "outputs": [
        {
          "internalType": "contract IERC20",
          "name": "lpToken",
          "type": "address"
        },
        {
          "internalType": "contract IERC20",
          "name": "rewardToken",
          "type": "address"
        },
        {
          "internalType": "uint256",
          "name": "startBlock",
          "type": "uint256"
        },
        {
          "internalType": "uint256",
          "name": "blockReward",
          "type": "uint256"
        },
        {
          "internalType": "uint256",
          "name": "bonusEndBlock",
          "type": "uint256"
        },
        {
          "internalType": "uint256",
          "name": "bonus",
          "type": "uint256"
        },
        {
          "internalType": "uint256",
          "name": "endBlock",
          "type": "uint256"
        },
        {
          "internalType": "uint256",
          "name": "lastRewardBlock",
          "type": "uint256"
        },
        {
          "internalType": "uint256",
          "name": "accRewardPerShare",
          "type": "uint256"
        },
        {
          "internalType": "uint256",
          "name": "farmableSupply",
          "type": "uint256"
        },
        {
          "internalType": "uint256",
          "name": "numFarmers",
          "type": "uint256"
        }
      ],
      "stateMutability": "view",
      "type": "function"
    },
    {
      "inputs": [],
      "name": "farmType",
      "outputs": [
        {
          "internalType": "uint256",
          "name": "",
          "type": "uint256"
        }
      ],
      "stateMutability": "view",
      "type": "function"
    },
    {
      "inputs": [
        {
          "internalType": "uint256",
          "name": "_from_block",
          "type": "uint256"
        },
        {
          "internalType": "uint256",
          "name": "_to",
          "type": "uint256"
        }
      ],
      "name": "getMultiplier",
      "outputs": [
        {
          "internalType": "uint256",
          "name": "",
          "type": "uint256"
        }
      ],
      "stateMutability": "view",
      "type": "function"
    },
    {
      "inputs": [
        {
          "internalType": "contract IERC20",
          "name": "_rewardToken",
          "type": "address"
        },
        {
          "internalType": "uint256",
          "name": "_amount",
          "type": "uint256"
        },
        {
          "internalType": "contract IERC20",
          "name": "_lpToken",
          "type": "address"
        },
        {
          "internalType": "uint256",
          "name": "_blockReward",
          "type": "uint256"
        },
        {
          "internalType": "uint256",
          "name": "_startBlock",
          "type": "uint256"
        },
        {
          "internalType": "uint256",
          "name": "_endBlock",
          "type": "uint256"
        },
        {
          "internalType": "uint256",
          "name": "_bonusEndBlock",
          "type": "uint256"
        },
        {
          "internalType": "uint256",
          "name": "_bonus",
          "type": "uint256"
        }
      ],
      "name": "init",
      "outputs": [],
      "stateMutability": "nonpayable",
      "type": "function"
    },
    {
      "inputs": [
        {
          "internalType": "address",
          "name": "_user",
          "type": "address"
        }
      ],
      "name": "pendingReward",
      "outputs": [
        {
          "internalType": "uint256",
          "name": "",
          "type": "uint256"
        }
      ],
      "stateMutability": "view",
      "type": "function"
    },
    {
      "inputs": [],
      "name": "updatePool",
      "outputs": [],
      "stateMutability": "nonpayable",
      "type": "function"
    },
    {
      "inputs": [
        {
          "internalType": "address",
          "name": "",
          "type": "address"
        }
      ],
      "name": "userInfo",
      "outputs": [
        {
          "internalType": "uint256",
          "name": "amount",
          "type": "uint256"
        },
        {
          "internalType": "uint256",
          "name": "rewardDebt",
          "type": "uint256"
        }
      ],
      "stateMutability": "view",
      "type": "function"
    },
    {
      "inputs": [
        {
          "internalType": "uint256",
          "name": "_amount",
          "type": "uint256"
        }
      ],
      "name": "withdraw",
      "outputs": [],
      "stateMutability": "nonpayable",
      "type": "function"
    }
  ],
  "bytecode": "0x6080604052600160005534801561001557600080fd5b506040516111a93803806111a983398101604081905261003491610081565b600180546001600160a01b039384166001600160a01b031991821617909155600280549290931691161790556100b4565b80516001600160a01b038116811461007c57600080fd5b919050565b6000806040838503121561009457600080fd5b61009d83610065565b91506100ab60208401610065565b90509250929050565b6110e6806100c36000396000f3fe608060405234801561001057600080fd5b50600436106100b45760003560e01c8063b20268c211610071578063b20268c214610200578063b6b55f2514610213578063c45a015514610226578063db2e21bc14610239578063e3161ddd14610241578063f40f0f521461024957600080fd5b80631959a002146100b95780631d49d66c146100fa5780632dd99996146101965780632e1a7d4d146101c15780632ebed9ec146101d65780638dbb1e3a146101ed575b600080fd5b6100e06100c7366004610e7c565b600e602052600090815260409020805460019091015482565b604080519283526020830191909152015b60405180910390f35b600354600454600554600654600754600854600954600a54600b54600c54600d546101389a6001600160a01b039081169a169897969594939291908b565b604080516001600160a01b039c8d1681529b909a1660208c0152988a01979097526060890195909552608088019390935260a087019190915260c086015260e0850152610100840152610120830152610140820152610160016100f1565b6002546101a9906001600160a01b031681565b6040516001600160a01b0390911681526020016100f1565b6101d46101cf366004610e99565b61025c565b005b6101df60005481565b6040519081526020016100f1565b6101df6101fb366004610eb2565b610405565b6101d461020e366004610ed4565b6104ab565b6101d4610221366004610e99565b61056b565b6001546101a9906001600160a01b031681565b6101d46106cb565b6101d46107b3565b6101df610257366004610e7c565b6108be565b336000908152600e6020526040902080548211156102b05760405162461bcd60e51b815260206004820152600c60248201526b125394d551919250d251539560a21b60448201526064015b60405180910390fd5b6102b86107b3565b8054821480156102c85750600082115b1561034157600154604051631db2c95560e21b81523360048201526001600160a01b03909116906376cb255490602401600060405180830381600087803b15801561031257600080fd5b505af1158015610326573d6000803e3d6000fd5b5050600d805492509050600061033b83610f58565b91905055505b600061037c826001015461037664e8d4a5100061037060036008015487600001546109e590919063ffffffff16565b906109f8565b90610a04565b90506103883382610a10565b81546103949084610a04565b808355600b546103af9164e8d4a510009161037091906109e5565b60018301556003546103cb906001600160a01b03163385610b6a565b60405183815233907f884edad9ce6fa2440d8a54cc123490eb96d2768479d49ff9c7366125a94243649060200160405180910390a2505050565b60008060036002015484101561041d5760055461041f565b835b90506000836003600601541161043757600954610439565b835b60075490915081116104655760085461045c906104568385610a04565b906109e5565b925050506104a5565b60075482106104785761045c8183610a04565b60075461045c9061048a908390610a04565b60085460075461049f91906104569087610a04565b90610bcd565b92915050565b6002546001600160a01b031633146104f15760405162461bcd60e51b81526020600482015260096024820152682327a92124a22222a760b91b60448201526064016102a7565b600480546001600160a01b0319166001600160a01b038a161790556005849055600685905560078290556008819055600043851061052f5784610531565b435b600380546001600160a01b0319166001600160a01b039990991698909817909755505050600a9390935550506000600b55600955600c5550565b336000908152600e602052604090206105826107b3565b8054156105c65760006105b8826001015461037664e8d4a5100061037060036008015487600001546109e590919063ffffffff16565b90506105c43382610a10565b505b80541580156105d55750600082115b1561064e576001546040516379cdf99b60e01b81523360048201526001600160a01b03909116906379cdf99b90602401600060405180830381600087803b15801561061f57600080fd5b505af1158015610633573d6000803e3d6000fd5b5050600d805492509050600061064883610f6f565b91905055505b600354610666906001600160a01b0316333085610bd9565b80546106729083610bcd565b808255600b5461068d9164e8d4a510009161037091906109e5565b600182015560405182815233907fe1fffcc4923d04b559f4d29a8bfc6cda04eb5b0d3c460751c2402c5c5cc9109c9060200160405180910390a25050565b336000818152600e60205260409020805460035491926106f4926001600160a01b031691610b6a565b805460405190815233907f5fafa99d0643513820be26656b45130b01e1c03062e1266bf36f88cbd3bd96959060200160405180910390a28054156107a657600154604051631db2c95560e21b81523360048201526001600160a01b03909116906376cb255490602401600060405180830381600087803b15801561077757600080fd5b505af115801561078b573d6000803e3d6000fd5b5050600d80549250905060006107a083610f58565b91905055505b6000808255600190910155565b600a5443116107be57565b6003546040516370a0823160e01b81523060048201526000916001600160a01b0316906370a082319060240160206040518083038186803b15801561080257600080fd5b505afa158015610816573d6000803e3d6000fd5b505050506040513d601f19601f8201168201806040525081019061083a9190610f8a565b90508061085a57600954431061085257600954610854565b435b600a5550565b600061086b60036007015443610405565b60065490915060009061087f9083906109e5565b90506108a0610897846103708464e8d4a510006109e5565b600b5490610bcd565b600b5560095443106108b4576009546108b6565b435b600a55505050565b6001600160a01b038181166000908152600e6020526040808220600b5460035492516370a0823160e01b8152306004820152939491939092859216906370a082319060240160206040518083038186803b15801561091b57600080fd5b505afa15801561092f573d6000803e3d6000fd5b505050506040513d601f19601f820116820180604052508101906109539190610f8a565b600a549091504311801561096657508015155b156109b457600061097c60036007015443610405565b6006549091506000906109909083906109e5565b90506109af6109a8846103708464e8d4a510006109e5565b8590610bcd565b935050505b6109dc836001015461037664e8d4a510006103708688600001546109e590919063ffffffff16565b95945050505050565b60006109f18284610fa3565b9392505050565b60006109f18284610fc2565b60006109f18284610fe4565b600480546040516370a0823160e01b815230928101929092526000916001600160a01b03909116906370a082319060240160206040518083038186803b158015610a5957600080fd5b505afa158015610a6d573d6000803e3d6000fd5b505050506040513d601f19601f82011682018060405250810190610a919190610f8a565b905080821115610b2a576004805460405163a9059cbb60e01b81526001600160a01b03868116938201939093526024810184905291169063a9059cbb906044015b602060405180830381600087803b158015610aec57600080fd5b505af1158015610b00573d6000803e3d6000fd5b505050506040513d601f19601f82011682018060405250810190610b249190610ffb565b50505050565b6004805460405163a9059cbb60e01b81526001600160a01b03868116938201939093526024810185905291169063a9059cbb90604401610ad2565b505050565b6040516001600160a01b038316602482015260448101829052610b6590849063a9059cbb60e01b906064015b60408051601f198184030181529190526020810180516001600160e01b03166001600160e01b031990931692909217909152610c11565b60006109f1828461101d565b6040516001600160a01b0380851660248301528316604482015260648101829052610b249085906323b872dd60e01b90608401610b96565b6000610c66826040518060400160405280602081526020017f5361666545524332303a206c6f772d6c6576656c2063616c6c206661696c6564815250856001600160a01b0316610ce39092919063ffffffff16565b805190915015610b655780806020019051810190610c849190610ffb565b610b655760405162461bcd60e51b815260206004820152602a60248201527f5361666545524332303a204552433230206f7065726174696f6e20646964206e6044820152691bdd081cdd58d8d9595960b21b60648201526084016102a7565b6060610cf28484600085610cfa565b949350505050565b606082471015610d5b5760405162461bcd60e51b815260206004820152602660248201527f416464726573733a20696e73756666696369656e742062616c616e636520666f6044820152651c8818d85b1b60d21b60648201526084016102a7565b6001600160a01b0385163b610db25760405162461bcd60e51b815260206004820152601d60248201527f416464726573733a2063616c6c20746f206e6f6e2d636f6e747261637400000060448201526064016102a7565b600080866001600160a01b03168587604051610dce9190611061565b60006040518083038185875af1925050503d8060008114610e0b576040519150601f19603f3d011682016040523d82523d6000602084013e610e10565b606091505b5091509150610e20828286610e2b565b979650505050505050565b60608315610e3a5750816109f1565b825115610e4a5782518084602001fd5b8160405162461bcd60e51b81526004016102a7919061107d565b6001600160a01b0381168114610e7957600080fd5b50565b600060208284031215610e8e57600080fd5b81356109f181610e64565b600060208284031215610eab57600080fd5b5035919050565b60008060408385031215610ec557600080fd5b50508035926020909101359150565b600080600080600080600080610100898b031215610ef157600080fd5b8835610efc81610e64565b9750602089013596506040890135610f1381610e64565b979a96995096976060810135975060808101359660a0820135965060c0820135955060e0909101359350915050565b634e487b7160e01b600052601160045260246000fd5b600081610f6757610f67610f42565b506000190190565b6000600019821415610f8357610f83610f42565b5060010190565b600060208284031215610f9c57600080fd5b5051919050565b6000816000190483118215151615610fbd57610fbd610f42565b500290565b600082610fdf57634e487b7160e01b600052601260045260246000fd5b500490565b600082821015610ff657610ff6610f42565b500390565b60006020828403121561100d57600080fd5b815180151581146109f157600080fd5b6000821982111561103057611030610f42565b500190565b60005b83811015611050578181015183820152602001611038565b83811115610b245750506000910152565b60008251611073818460208701611035565b9190910192915050565b602081526000825180602084015261109c816040850160208701611035565b601f01601f1916919091016040019291505056fea26469706673582212200ea2293c1bd8b249c2f6eff8ac14d436035554802226737b1f97c7ca8d16b94964736f6c63430008090033",
  "linkReferences": {},
  "deployedLinkReferences": {}
}