{
  "_format": "hh-sol-artifact-1",
  "contractName": "Farm",
  "sourceName": "contracts/Farm.sol",
  "abi": [
    {
      "inputs": [
        {
          "internalType": "contract IERC20",
          "name": "_erc20",
          "type": "address"
        },
        {
          "internalType": "uint256",
          "name": "_rewardPerBlock",
          "type": "uint256"
        },
        {
          "internalType": "uint256",
          "name": "_startBlock",
          "type": "uint256"
        },
        {
          "internalType": "address",
          "name": "_devaddr",
          "type": "address"
        },
        {
          "internalType": "address",
          "name": "_owner",
          "type": "address"
        },
        {
          "internalType": "uint256",
          "name": "_devfee",
          "type": "uint256"
        },
        {
          "internalType": "uint256",
          "name": "_referralfee",
          "type": "uint256"
        }
      ],
      "stateMutability": "nonpayable",
      "type": "constructor"
    },
    {
      "anonymous": false,
      "inputs": [
        {
          "indexed": true,
          "internalType": "address",
          "name": "user",
          "type": "address"
        },
        {
          "indexed": true,
          "internalType": "uint256",
          "name": "pid",
          "type": "uint256"
        },
        {
          "indexed": false,
          "internalType": "uint256",
          "name": "amount",
          "type": "uint256"
        }
      ],
      "name": "Deposit",
      "type": "event"
    },
    {
      "anonymous": false,
      "inputs": [
        {
          "indexed": true,
          "internalType": "address",
          "name": "user",
          "type": "address"
        },
        {
          "indexed": true,
          "internalType": "uint256",
          "name": "pid",
          "type": "uint256"
        },
        {
          "indexed": false,
          "internalType": "uint256",
          "name": "amount",
          "type": "uint256"
        }
      ],
      "name": "EmergencyWithdraw",
      "type": "event"
    },
    {
      "anonymous": false,
      "inputs": [
        {
          "indexed": true,
          "internalType": "address",
          "name": "user",
          "type": "address"
        },
        {
          "indexed": true,
          "internalType": "uint256",
          "name": "pid",
          "type": "uint256"
        },
        {
          "indexed": false,
          "internalType": "uint256",
          "name": "amount",
          "type": "uint256"
        }
      ],
      "name": "Withdraw",
      "type": "event"
    },
    {
      "inputs": [
        {
          "internalType": "uint256",
          "name": "_allocPoint",
          "type": "uint256"
        },
        {
          "internalType": "contract IERC20",
          "name": "_lpToken",
          "type": "address"
        },
        {
          "internalType": "bool",
          "name": "_withUpdate",
          "type": "bool"
        }
      ],
      "name": "add",
      "outputs": [],
      "stateMutability": "nonpayable",
      "type": "function"
    },
    {
      "inputs": [
        {
          "internalType": "address",
          "name": "_signer",
          "type": "address"
        },
        {
          "internalType": "uint256",
          "name": "_amount",
          "type": "uint256"
        },
        {
          "internalType": "string",
          "name": "_code",
          "type": "string"
        }
      ],
      "name": "claimReferral",
      "outputs": [],
      "stateMutability": "nonpayable",
      "type": "function"
    },
    {
      "inputs": [
        {
          "internalType": "uint256",
          "name": "_pid",
          "type": "uint256"
        },
        {
          "internalType": "uint256",
          "name": "_amount",
          "type": "uint256"
        }
      ],
      "name": "deposit",
      "outputs": [],
      "stateMutability": "nonpayable",
      "type": "function"
    },
    {
      "inputs": [
        {
          "internalType": "uint256",
          "name": "_pid",
          "type": "uint256"
        },
        {
          "internalType": "address",
          "name": "_user",
          "type": "address"
        }
      ],
      "name": "deposited",
      "outputs": [
        {
          "internalType": "uint256",
          "name": "",
          "type": "uint256"
        }
      ],
      "stateMutability": "view",
      "type": "function"
    },
    {
      "inputs": [],
      "name": "devaddr",
      "outputs": [
        {
          "internalType": "address",
          "name": "",
          "type": "address"
        }
      ],
      "stateMutability": "view",
      "type": "function"
    },
    {
      "inputs": [],
      "name": "devfee",
      "outputs": [
        {
          "internalType": "uint256",
          "name": "",
          "type": "uint256"
        }
      ],
      "stateMutability": "view",
      "type": "function"
    },
    {
      "inputs": [
        {
          "internalType": "uint256",
          "name": "_pid",
          "type": "uint256"
        }
      ],
      "name": "emergencyWithdraw",
      "outputs": [],
      "stateMutability": "nonpayable",
      "type": "function"
    },
    {
      "inputs": [],
      "name": "endBlock",
      "outputs": [
        {
          "internalType": "uint256",
          "name": "",
          "type": "uint256"
        }
      ],
      "stateMutability": "view",
      "type": "function"
    },
    {
      "inputs": [],
      "name": "erc20",
      "outputs": [
        {
          "internalType": "contract IERC20",
          "name": "",
          "type": "address"
        }
      ],
      "stateMutability": "view",
      "type": "function"
    },
    {
      "inputs": [
        {
          "internalType": "uint256",
          "name": "_amount",
          "type": "uint256"
        },
        {
          "internalType": "bool",
          "name": "withReferral",
          "type": "bool"
        }
      ],
      "name": "fund",
      "outputs": [],
      "stateMutability": "nonpayable",
      "type": "function"
    },
    {
      "inputs": [
        {
          "internalType": "bytes32",
          "name": "_messageHash",
          "type": "bytes32"
        }
      ],
      "name": "getEthSignedMessageHash",
      "outputs": [
        {
          "internalType": "bytes32",
          "name": "",
          "type": "bytes32"
        }
      ],
      "stateMutability": "pure",
      "type": "function"
    },
    {
      "inputs": [
        {
          "internalType": "address",
          "name": "_signer",
          "type": "address"
        },
        {
          "internalType": "uint256",
          "name": "_amount",
          "type": "uint256"
        },
        {
          "internalType": "string",
          "name": "_code",
          "type": "string"
        }
      ],
      "name": "getMessageHash",
      "outputs": [
        {
          "internalType": "bytes32",
          "name": "",
          "type": "bytes32"
        }
      ],
      "stateMutability": "pure",
      "type": "function"
    },
    {
      "inputs": [],
      "name": "massUpdatePools",
      "outputs": [],
      "stateMutability": "nonpayable",
      "type": "function"
    },
    {
      "inputs": [],
      "name": "owner",
      "outputs": [
        {
          "internalType": "address",
          "name": "",
          "type": "address"
        }
      ],
      "stateMutability": "view",
      "type": "function"
    },
    {
      "inputs": [],
      "name": "paidOut",
      "outputs": [
        {
          "internalType": "uint256",
          "name": "",
          "type": "uint256"
        }
      ],
      "stateMutability": "view",
      "type": "function"
    },
    {
      "inputs": [
        {
          "internalType": "uint256",
          "name": "_pid",
          "type": "uint256"
        },
        {
          "internalType": "address",
          "name": "_user",
          "type": "address"
        }
      ],
      "name": "pending",
      "outputs": [
        {
          "internalType": "uint256",
          "name": "",
          "type": "uint256"
        }
      ],
      "stateMutability": "view",
      "type": "function"
    },
    {
      "inputs": [
        {
          "internalType": "uint256",
          "name": "",
          "type": "uint256"
        }
      ],
      "name": "poolInfo",
      "outputs": [
        {
          "internalType": "contract IERC20",
          "name": "lpToken",
          "type": "address"
        },
        {
          "internalType": "uint256",
          "name": "allocPoint",
          "type": "uint256"
        },
        {
          "internalType": "uint256",
          "name": "lastRewardBlock",
          "type": "uint256"
        },
        {
          "internalType": "uint256",
          "name": "accERC20PerShare",
          "type": "uint256"
        }
      ],
      "stateMutability": "view",
      "type": "function"
    },
    {
      "inputs": [],
      "name": "poolLength",
      "outputs": [
        {
          "internalType": "uint256",
          "name": "",
          "type": "uint256"
        }
      ],
      "stateMutability": "view",
      "type": "function"
    },
    {
      "inputs": [
        {
          "internalType": "bytes32",
          "name": "_ethSignedMessageHash",
          "type": "bytes32"
        },
        {
          "internalType": "bytes",
          "name": "_signature",
          "type": "bytes"
        }
      ],
      "name": "recoverSigner",
      "outputs": [
        {
          "internalType": "address",
          "name": "",
          "type": "address"
        }
      ],
      "stateMutability": "pure",
      "type": "function"
    },
    {
      "inputs": [],
      "name": "referralFund",
      "outputs": [
        {
          "internalType": "uint256",
          "name": "",
          "type": "uint256"
        }
      ],
      "stateMutability": "view",
      "type": "function"
    },
    {
      "inputs": [],
      "name": "referralfee",
      "outputs": [
        {
          "internalType": "uint256",
          "name": "",
          "type": "uint256"
        }
      ],
      "stateMutability": "view",
      "type": "function"
    },
    {
      "inputs": [],
      "name": "rewardPerBlock",
      "outputs": [
        {
          "internalType": "uint256",
          "name": "",
          "type": "uint256"
        }
      ],
      "stateMutability": "view",
      "type": "function"
    },
    {
      "inputs": [
        {
          "internalType": "uint256",
          "name": "_pid",
          "type": "uint256"
        },
        {
          "internalType": "uint256",
          "name": "_allocPoint",
          "type": "uint256"
        },
        {
          "internalType": "bool",
          "name": "_withUpdate",
          "type": "bool"
        }
      ],
      "name": "set",
      "outputs": [],
      "stateMutability": "nonpayable",
      "type": "function"
    },
    {
      "inputs": [
        {
          "internalType": "bytes",
          "name": "sig",
          "type": "bytes"
        }
      ],
      "name": "splitSignature",
      "outputs": [
        {
          "internalType": "bytes32",
          "name": "r",
          "type": "bytes32"
        },
        {
          "internalType": "bytes32",
          "name": "s",
          "type": "bytes32"
        },
        {
          "internalType": "uint8",
          "name": "v",
          "type": "uint8"
        }
      ],
      "stateMutability": "pure",
      "type": "function"
    },
    {
      "inputs": [],
      "name": "startBlock",
      "outputs": [
        {
          "internalType": "uint256",
          "name": "",
          "type": "uint256"
        }
      ],
      "stateMutability": "view",
      "type": "function"
    },
    {
      "inputs": [
        {
          "internalType": "address",
          "name": "_receiver",
          "type": "address"
        },
        {
          "internalType": "bytes",
          "name": "signature",
          "type": "bytes"
        }
      ],
      "name": "storeSignature",
      "outputs": [],
      "stateMutability": "nonpayable",
      "type": "function"
    },
    {
      "inputs": [],
      "name": "totalAllocPoint",
      "outputs": [
        {
          "internalType": "uint256",
          "name": "",
          "type": "uint256"
        }
      ],
      "stateMutability": "view",
      "type": "function"
    },
    {
      "inputs": [],
      "name": "totalPending",
      "outputs": [
        {
          "internalType": "uint256",
          "name": "",
          "type": "uint256"
        }
      ],
      "stateMutability": "view",
      "type": "function"
    },
    {
      "inputs": [
        {
          "internalType": "uint256",
          "name": "_pid",
          "type": "uint256"
        }
      ],
      "name": "updatePool",
      "outputs": [],
      "stateMutability": "nonpayable",
      "type": "function"
    },
    {
      "inputs": [
        {
          "internalType": "uint256",
          "name": "",
          "type": "uint256"
        },
        {
          "internalType": "address",
          "name": "",
          "type": "address"
        }
      ],
      "name": "userInfo",
      "outputs": [
        {
          "internalType": "uint256",
          "name": "amount",
          "type": "uint256"
        },
        {
          "internalType": "uint256",
          "name": "rewardDebt",
          "type": "uint256"
        }
      ],
      "stateMutability": "view",
      "type": "function"
    },
    {
      "inputs": [
        {
          "internalType": "uint256",
          "name": "_pid",
          "type": "uint256"
        },
        {
          "internalType": "uint256",
          "name": "_amount",
          "type": "uint256"
        }
      ],
      "name": "withdraw",
      "outputs": [],
      "stateMutability": "nonpayable",
      "type": "function"
    }
  ],
  "bytecode": "0x6080604052600060015560006005553480156200001b57600080fd5b50604051620035473803806200354783398181016040528101906200004191906200021d565b866000806101000a81548173ffffffffffffffffffffffffffffffffffffffff021916908373ffffffffffffffffffffffffffffffffffffffff16021790555085600281905550846006819055508460078190555083600960006101000a81548173ffffffffffffffffffffffffffffffffffffffff021916908373ffffffffffffffffffffffffffffffffffffffff16021790555082600860006101000a81548173ffffffffffffffffffffffffffffffffffffffff021916908373ffffffffffffffffffffffffffffffffffffffff16021790555081600a8190555080600b8190555050505050505050620002d0565b600080fd5b600073ffffffffffffffffffffffffffffffffffffffff82169050919050565b6000620001658262000138565b9050919050565b6000620001798262000158565b9050919050565b6200018b816200016c565b81146200019757600080fd5b50565b600081519050620001ab8162000180565b92915050565b6000819050919050565b620001c681620001b1565b8114620001d257600080fd5b50565b600081519050620001e681620001bb565b92915050565b620001f78162000158565b81146200020357600080fd5b50565b6000815190506200021781620001ec565b92915050565b600080600080600080600060e0888a0312156200023f576200023e62000133565b5b60006200024f8a828b016200019a565b9750506020620002628a828b01620001d5565b9650506040620002758a828b01620001d5565b9550506060620002888a828b0162000206565b94505060806200029b8a828b0162000206565b93505060a0620002ae8a828b01620001d5565b92505060c0620002c18a828b01620001d5565b91505092959891949750929550565b61326780620002e06000396000f3fe608060405234801561001057600080fd5b50600436106101e55760003560e01c806364482f791161010f578063a7bb5803116100a2578063e2bbb15811610071578063e2bbb15814610564578063e4c75c2714610580578063e6f1fca6146105b0578063fa540801146105cc576101e5565b8063a7bb5803146104c8578063c6437286146104fa578063d0978d681461052a578063d49e77cd14610546576101e5565b80638da5cb5b116100de5780638da5cb5b1461041957806393f1a40b1461043757806397aba7f914610468578063a238310614610498576101e5565b806364482f79146103a35780636d0ed29a146103bf578063785e9e86146103dd5780638ae39cac146103fb576101e5565b8063393286c21161018757806351eb05a61161015657806351eb05a6146103435780635312ea8e1461035f5780635c76ca2d1461037b578063630b5ba114610399576101e5565b8063393286c2146102cf5780633f90916a146102eb578063441a3e701461030957806348cd4cb114610325576101e5565b806317caf6f1116101c357806317caf6f1146102595780631eaaa045146102775780632cf8363114610293578063314094c2146102b1576101e5565b8063081e3eda146101ea578063083c6323146102085780631526fe2714610226575b600080fd5b6101f26105fc565b6040516101ff9190611fd4565b60405180910390f35b610210610609565b60405161021d9190611fd4565b60405180910390f35b610240600480360381019061023b919061202f565b61060f565b60405161025094939291906120db565b60405180910390f35b61026161066f565b60405161026e9190611fd4565b60405180910390f35b610291600480360381019061028c91906121a8565b610675565b005b61029b610786565b6040516102a89190611fd4565b60405180910390f35b6102b961078c565b6040516102c69190611fd4565b60405180910390f35b6102e960048036038101906102e491906121fb565b610792565b005b6102f3610a35565b6040516103009190611fd4565b60405180910390f35b610323600480360381019061031e919061223b565b610a9d565b005b61032d610ccf565b60405161033a9190611fd4565b60405180910390f35b61035d6004803603810190610358919061202f565b610cd5565b005b6103796004803603810190610374919061202f565b610eb1565b005b610383610fea565b6040516103909190611fd4565b60405180910390f35b6103a1610ff0565b005b6103bd60048036038101906103b8919061227b565b611023565b005b6103c7611143565b6040516103d49190611fd4565b60405180910390f35b6103e5611149565b6040516103f291906122ce565b60405180910390f35b61040361116d565b6040516104109190611fd4565b60405180910390f35b610421611173565b60405161042e91906122f8565b60405180910390f35b610451600480360381019061044c919061233f565b611199565b60405161045f92919061237f565b60405180910390f35b610482600480360381019061047d9190612524565b6111ca565b60405161048f91906122f8565b60405180910390f35b6104b260048036038101906104ad919061233f565b611239565b6040516104bf9190611fd4565b60405180910390f35b6104e260048036038101906104dd9190612580565b61129c565b6040516104f1939291906125f4565b60405180910390f35b610514600480360381019061050f91906126cc565b611304565b604051610521919061273b565b60405180910390f35b610544600480360381019061053f91906126cc565b61133a565b005b61054e611548565b60405161055b91906122f8565b60405180910390f35b61057e6004803603810190610579919061223b565b61156e565b005b61059a6004803603810190610595919061233f565b611769565b6040516105a79190611fd4565b60405180910390f35b6105ca60048036038101906105c59190612756565b6119e1565b005b6105e660048036038101906105e191906127b2565b611a39565b6040516105f3919061273b565b60405180910390f35b6000600380549050905090565b60075481565b6003818154811061061f57600080fd5b90600052602060002090600402016000915090508060000160009054906101000a900473ffffffffffffffffffffffffffffffffffffffff16908060010154908060020154908060030154905084565b60055481565b801561068457610683610ff0565b5b6000600654431161069757600654610699565b435b90506106b084600554611a6990919063ffffffff16565b600581905550600360405180608001604052808573ffffffffffffffffffffffffffffffffffffffff1681526020018681526020018381526020016000815250908060018154018082558091505060019003906000526020600020906004020160009091909190915060008201518160000160006101000a81548173ffffffffffffffffffffffffffffffffffffffff021916908373ffffffffffffffffffffffffffffffffffffffff160217905550602082015181600101556040820151816002015560608201518160030155505050505050565b600b5481565b600a5481565b60075443106107d6576040517f08c379a00000000000000000000000000000000000000000000000000000000081526004016107cd90612862565b60405180910390fd5b60008290508161089657600061080a60646107fc600a5485611a7f90919063ffffffff16565b611a9590919063ffffffff16565b905061087b33600960009054906101000a900473ffffffffffffffffffffffffffffffffffffffff168360008054906101000a900473ffffffffffffffffffffffffffffffffffffffff1673ffffffffffffffffffffffffffffffffffffffff16611aab909392919063ffffffff16565b61088e8183611b3490919063ffffffff16565b9150506109b6565b60006108d460646108c66108b7600b54600a54611b3490919063ffffffff16565b85611a7f90919063ffffffff16565b611a9590919063ffffffff16565b9050600061090060646108f2600b5486611a7f90919063ffffffff16565b611a9590919063ffffffff16565b905061097133600960009054906101000a900473ffffffffffffffffffffffffffffffffffffffff168460008054906101000a900473ffffffffffffffffffffffffffffffffffffffff1673ffffffffffffffffffffffffffffffffffffffff16611aab909392919063ffffffff16565b61098681600c54611a6990919063ffffffff16565b600c819055506109b1816109a38486611b3490919063ffffffff16565b611b3490919063ffffffff16565b925050505b610a0333308360008054906101000a900473ffffffffffffffffffffffffffffffffffffffff1673ffffffffffffffffffffffffffffffffffffffff16611aab909392919063ffffffff16565b610a1860025482611a9590919063ffffffff16565b60076000828254610a2991906128b1565b92505081905550505050565b60006006544311610a495760009050610a9a565b60006007544310610a5c57600754610a5e565b435b9050610a96600154610a8860065484610a779190612907565b600254611a7f90919063ffffffff16565b611b3490919063ffffffff16565b9150505b90565b600060038381548110610ab357610ab261293b565b5b9060005260206000209060040201905060006004600085815260200190815260200160002060003373ffffffffffffffffffffffffffffffffffffffff1673ffffffffffffffffffffffffffffffffffffffff16815260200190815260200160002090508281600001541015610b5e576040517f08c379a0000000000000000000000000000000000000000000000000000000008152600401610b55906129dc565b60405180910390fd5b610b6784610cd5565b6000610bbb8260010154610bad6ec097ce7bc90715b34b9f1000000000610b9f87600301548760000154611a7f90919063ffffffff16565b611a9590919063ffffffff16565b611b3490919063ffffffff16565b9050610bc73382611b4a565b610bde848360000154611b3490919063ffffffff16565b8260000181905550610c226ec097ce7bc90715b34b9f1000000000610c1485600301548560000154611a7f90919063ffffffff16565b611a9590919063ffffffff16565b8260010181905550610c7933858560000160009054906101000a900473ffffffffffffffffffffffffffffffffffffffff1673ffffffffffffffffffffffffffffffffffffffff16611c159092919063ffffffff16565b843373ffffffffffffffffffffffffffffffffffffffff167ff279e6a1f5e320cca91135676d9cb6e44ca8a08c0b88342bcdb1144f6511b56886604051610cc09190611fd4565b60405180910390a35050505050565b60065481565b600060038281548110610ceb57610cea61293b565b5b9060005260206000209060040201905060006007544310610d0e57600754610d10565b435b905081600201548111610d24575050610eae565b60008260000160009054906101000a900473ffffffffffffffffffffffffffffffffffffffff1673ffffffffffffffffffffffffffffffffffffffff166370a08231306040518263ffffffff1660e01b8152600401610d8391906122f8565b60206040518083038186803b158015610d9b57600080fd5b505afa158015610daf573d6000803e3d6000fd5b505050506040513d601f19601f82011682018060405250810190610dd39190612a11565b90506000811415610def57818360020181905550505050610eae565b6000610e08846002015484611b3490919063ffffffff16565b90506000610e4b600554610e3d8760010154610e2f60025487611a7f90919063ffffffff16565b611a7f90919063ffffffff16565b611a9590919063ffffffff16565b9050610e97610e8484610e766ec097ce7bc90715b34b9f100000000085611a7f90919063ffffffff16565b611a9590919063ffffffff16565b8660030154611a6990919063ffffffff16565b856003018190555043856002018190555050505050505b50565b600060038281548110610ec757610ec661293b565b5b9060005260206000209060040201905060006004600084815260200190815260200160002060003373ffffffffffffffffffffffffffffffffffffffff1673ffffffffffffffffffffffffffffffffffffffff1681526020019081526020016000209050610f7e3382600001548460000160009054906101000a900473ffffffffffffffffffffffffffffffffffffffff1673ffffffffffffffffffffffffffffffffffffffff16611c159092919063ffffffff16565b823373ffffffffffffffffffffffffffffffffffffffff167fbb757047c2b5f3974fe26b7c10f732e7bce710b0952a71082702781e62ae05958360000154604051610fc99190611fd4565b60405180910390a36000816000018190555060008160010181905550505050565b60015481565b6000600380549050905060005b8181101561101f5761100e81610cd5565b8061101890612a3e565b9050610ffd565b5050565b600860009054906101000a900473ffffffffffffffffffffffffffffffffffffffff1673ffffffffffffffffffffffffffffffffffffffff163373ffffffffffffffffffffffffffffffffffffffff16146110b3576040517f08c379a00000000000000000000000000000000000000000000000000000000081526004016110aa90612ad3565b60405180910390fd5b80156110c2576110c1610ff0565b5b61110e82611100600386815481106110dd576110dc61293b565b5b906000526020600020906004020160010154600554611b3490919063ffffffff16565b611a6990919063ffffffff16565b60058190555081600384815481106111295761112861293b565b5b906000526020600020906004020160010181905550505050565b600c5481565b60008054906101000a900473ffffffffffffffffffffffffffffffffffffffff1681565b60025481565b600860009054906101000a900473ffffffffffffffffffffffffffffffffffffffff1681565b6004602052816000526040600020602052806000526040600020600091509150508060000154908060010154905082565b6000806000806111d98561129c565b925092509250600186828585604051600081526020016040526040516112029493929190612af3565b6020604051602081039080840390855afa158015611224573d6000803e3d6000fd5b50505060206040510351935050505092915050565b6000806004600085815260200190815260200160002060008473ffffffffffffffffffffffffffffffffffffffff1673ffffffffffffffffffffffffffffffffffffffff1681526020019081526020016000209050806000015491505092915050565b600080600060418451146112e5576040517f08c379a00000000000000000000000000000000000000000000000000000000081526004016112dc90612b84565b60405180910390fd5b6020840151925060408401519150606084015160001a90509193909250565b600083838360405160200161131b93929190612c87565b6040516020818303038152906040528051906020012090509392505050565b6000611347848484611304565b9050600061135482611a39565b90508473ffffffffffffffffffffffffffffffffffffffff1661143e82600d60003373ffffffffffffffffffffffffffffffffffffffff1673ffffffffffffffffffffffffffffffffffffffff16815260200190815260200160002080546113bb90612cef565b80601f01602080910402602001604051908101604052809291908181526020018280546113e790612cef565b80156114345780601f1061140957610100808354040283529160200191611434565b820191906000526020600020905b81548152906001019060200180831161141757829003601f168201915b50505050506111ca565b73ffffffffffffffffffffffffffffffffffffffff1614611494576040517f08c379a000000000000000000000000000000000000000000000000000000000815260040161148b90612d6d565b60405180910390fd5b600c548411156114d9576040517f08c379a00000000000000000000000000000000000000000000000000000000081526004016114d090612dd9565b60405180910390fd5b6114ee84600c54611b3490919063ffffffff16565b600c8190555061154130338660008054906101000a900473ffffffffffffffffffffffffffffffffffffffff1673ffffffffffffffffffffffffffffffffffffffff16611aab909392919063ffffffff16565b5050505050565b600960009054906101000a900473ffffffffffffffffffffffffffffffffffffffff1681565b6000600383815481106115845761158361293b565b5b9060005260206000209060040201905060006004600085815260200190815260200160002060003373ffffffffffffffffffffffffffffffffffffffff1673ffffffffffffffffffffffffffffffffffffffff16815260200190815260200160002090506115f184610cd5565b60008160000154111561166057600061165282600101546116446ec097ce7bc90715b34b9f100000000061163687600301548760000154611a7f90919063ffffffff16565b611a9590919063ffffffff16565b611b3490919063ffffffff16565b905061165e3382611b4a565b505b6116b13330858560000160009054906101000a900473ffffffffffffffffffffffffffffffffffffffff1673ffffffffffffffffffffffffffffffffffffffff16611aab909392919063ffffffff16565b6116c8838260000154611a6990919063ffffffff16565b816000018190555061170c6ec097ce7bc90715b34b9f10000000006116fe84600301548460000154611a7f90919063ffffffff16565b611a9590919063ffffffff16565b8160010181905550833373ffffffffffffffffffffffffffffffffffffffff167f90890809c654f11d6e72a28fa60149770a0d11ec6c92319d6ceb2bb0a4ea1a158560405161175b9190611fd4565b60405180910390a350505050565b600080600384815481106117805761177f61293b565b5b9060005260206000209060040201905060006004600086815260200190815260200160002060008573ffffffffffffffffffffffffffffffffffffffff1673ffffffffffffffffffffffffffffffffffffffff168152602001908152602001600020905060008260030154905060008360000160009054906101000a900473ffffffffffffffffffffffffffffffffffffffff1673ffffffffffffffffffffffffffffffffffffffff166370a08231306040518263ffffffff1660e01b815260040161184c91906122f8565b60206040518083038186803b15801561186457600080fd5b505afa158015611878573d6000803e3d6000fd5b505050506040513d601f19601f8201168201806040525081019061189c9190612a11565b9050600060075443106118b1576007546118b3565b435b90508460020154811180156118cb5750846002015443115b80156118d8575060008214155b156119865760006118f6866002015483611b3490919063ffffffff16565b9050600061193960055461192b896001015461191d60025487611a7f90919063ffffffff16565b611a7f90919063ffffffff16565b611a9590919063ffffffff16565b9050611981611972856119646ec097ce7bc90715b34b9f100000000085611a7f90919063ffffffff16565b611a9590919063ffffffff16565b86611a6990919063ffffffff16565b945050505b6119d484600101546119c66ec097ce7bc90715b34b9f10000000006119b8878960000154611a7f90919063ffffffff16565b611a9590919063ffffffff16565b611b3490919063ffffffff16565b9550505050505092915050565b80600d60008473ffffffffffffffffffffffffffffffffffffffff1673ffffffffffffffffffffffffffffffffffffffff1681526020019081526020016000209080519060200190611a34929190611f18565b505050565b600081604051602001611a4c9190612e66565b604051602081830303815290604052805190602001209050919050565b60008183611a7791906128b1565b905092915050565b60008183611a8d9190612e8c565b905092915050565b60008183611aa39190612f15565b905092915050565b611b2e846323b872dd60e01b858585604051602401611acc93929190612f46565b604051602081830303815290604052907bffffffffffffffffffffffffffffffffffffffffffffffffffffffff19166020820180517bffffffffffffffffffffffffffffffffffffffffffffffffffffffff8381831617835250505050611c9b565b50505050565b60008183611b429190612907565b905092915050565b60008054906101000a900473ffffffffffffffffffffffffffffffffffffffff1673ffffffffffffffffffffffffffffffffffffffff1663a9059cbb83836040518363ffffffff1660e01b8152600401611ba5929190612f7d565b602060405180830381600087803b158015611bbf57600080fd5b505af1158015611bd3573d6000803e3d6000fd5b505050506040513d601f19601f82011682018060405250810190611bf79190612fbb565b508060016000828254611c0a91906128b1565b925050819055505050565b611c968363a9059cbb60e01b8484604051602401611c34929190612f7d565b604051602081830303815290604052907bffffffffffffffffffffffffffffffffffffffffffffffffffffffff19166020820180517bffffffffffffffffffffffffffffffffffffffffffffffffffffffff8381831617835250505050611c9b565b505050565b6000611cfd826040518060400160405280602081526020017f5361666545524332303a206c6f772d6c6576656c2063616c6c206661696c65648152508573ffffffffffffffffffffffffffffffffffffffff16611d629092919063ffffffff16565b9050600081511115611d5d5780806020019051810190611d1d9190612fbb565b611d5c576040517f08c379a0000000000000000000000000000000000000000000000000000000008152600401611d539061305a565b60405180910390fd5b5b505050565b6060611d718484600085611d7a565b90509392505050565b606082471015611dbf576040517f08c379a0000000000000000000000000000000000000000000000000000000008152600401611db6906130ec565b60405180910390fd5b611dc885611e8e565b611e07576040517f08c379a0000000000000000000000000000000000000000000000000000000008152600401611dfe90613158565b60405180910390fd5b6000808673ffffffffffffffffffffffffffffffffffffffff168587604051611e3091906131bf565b60006040518083038185875af1925050503d8060008114611e6d576040519150601f19603f3d011682016040523d82523d6000602084013e611e72565b606091505b5091509150611e82828286611eb1565b92505050949350505050565b6000808273ffffffffffffffffffffffffffffffffffffffff163b119050919050565b60608315611ec157829050611f11565b600083511115611ed45782518084602001fd5b816040517f08c379a0000000000000000000000000000000000000000000000000000000008152600401611f08919061320f565b60405180910390fd5b9392505050565b828054611f2490612cef565b90600052602060002090601f016020900481019282611f465760008555611f8d565b82601f10611f5f57805160ff1916838001178555611f8d565b82800160010185558215611f8d579182015b82811115611f8c578251825591602001919060010190611f71565b5b509050611f9a9190611f9e565b5090565b5b80821115611fb7576000816000905550600101611f9f565b5090565b6000819050919050565b611fce81611fbb565b82525050565b6000602082019050611fe96000830184611fc5565b92915050565b6000604051905090565b600080fd5b600080fd5b61200c81611fbb565b811461201757600080fd5b50565b60008135905061202981612003565b92915050565b60006020828403121561204557612044611ff9565b5b60006120538482850161201a565b91505092915050565b600073ffffffffffffffffffffffffffffffffffffffff82169050919050565b6000819050919050565b60006120a161209c6120978461205c565b61207c565b61205c565b9050919050565b60006120b382612086565b9050919050565b60006120c5826120a8565b9050919050565b6120d5816120ba565b82525050565b60006080820190506120f060008301876120cc565b6120fd6020830186611fc5565b61210a6040830185611fc5565b6121176060830184611fc5565b95945050505050565b600061212b8261205c565b9050919050565b600061213d82612120565b9050919050565b61214d81612132565b811461215857600080fd5b50565b60008135905061216a81612144565b92915050565b60008115159050919050565b61218581612170565b811461219057600080fd5b50565b6000813590506121a28161217c565b92915050565b6000806000606084860312156121c1576121c0611ff9565b5b60006121cf8682870161201a565b93505060206121e08682870161215b565b92505060406121f186828701612193565b9150509250925092565b6000806040838503121561221257612211611ff9565b5b60006122208582860161201a565b925050602061223185828601612193565b9150509250929050565b6000806040838503121561225257612251611ff9565b5b60006122608582860161201a565b92505060206122718582860161201a565b9150509250929050565b60008060006060848603121561229457612293611ff9565b5b60006122a28682870161201a565b93505060206122b38682870161201a565b92505060406122c486828701612193565b9150509250925092565b60006020820190506122e360008301846120cc565b92915050565b6122f281612120565b82525050565b600060208201905061230d60008301846122e9565b92915050565b61231c81612120565b811461232757600080fd5b50565b60008135905061233981612313565b92915050565b6000806040838503121561235657612355611ff9565b5b60006123648582860161201a565b92505060206123758582860161232a565b9150509250929050565b60006040820190506123946000830185611fc5565b6123a16020830184611fc5565b9392505050565b6000819050919050565b6123bb816123a8565b81146123c657600080fd5b50565b6000813590506123d8816123b2565b92915050565b600080fd5b600080fd5b6000601f19601f8301169050919050565b7f4e487b7100000000000000000000000000000000000000000000000000000000600052604160045260246000fd5b612431826123e8565b810181811067ffffffffffffffff821117156124505761244f6123f9565b5b80604052505050565b6000612463611fef565b905061246f8282612428565b919050565b600067ffffffffffffffff82111561248f5761248e6123f9565b5b612498826123e8565b9050602081019050919050565b82818337600083830152505050565b60006124c76124c284612474565b612459565b9050828152602081018484840111156124e3576124e26123e3565b5b6124ee8482856124a5565b509392505050565b600082601f83011261250b5761250a6123de565b5b813561251b8482602086016124b4565b91505092915050565b6000806040838503121561253b5761253a611ff9565b5b6000612549858286016123c9565b925050602083013567ffffffffffffffff81111561256a57612569611ffe565b5b612576858286016124f6565b9150509250929050565b60006020828403121561259657612595611ff9565b5b600082013567ffffffffffffffff8111156125b4576125b3611ffe565b5b6125c0848285016124f6565b91505092915050565b6125d2816123a8565b82525050565b600060ff82169050919050565b6125ee816125d8565b82525050565b600060608201905061260960008301866125c9565b61261660208301856125c9565b61262360408301846125e5565b949350505050565b600067ffffffffffffffff821115612646576126456123f9565b5b61264f826123e8565b9050602081019050919050565b600061266f61266a8461262b565b612459565b90508281526020810184848401111561268b5761268a6123e3565b5b6126968482856124a5565b509392505050565b600082601f8301126126b3576126b26123de565b5b81356126c384826020860161265c565b91505092915050565b6000806000606084860312156126e5576126e4611ff9565b5b60006126f38682870161232a565b93505060206127048682870161201a565b925050604084013567ffffffffffffffff81111561272557612724611ffe565b5b6127318682870161269e565b9150509250925092565b600060208201905061275060008301846125c9565b92915050565b6000806040838503121561276d5761276c611ff9565b5b600061277b8582860161232a565b925050602083013567ffffffffffffffff81111561279c5761279b611ffe565b5b6127a8858286016124f6565b9150509250929050565b6000602082840312156127c8576127c7611ff9565b5b60006127d6848285016123c9565b91505092915050565b600082825260208201905092915050565b7f66756e643a20746f6f206c6174652c20746865206661726d20697320636c6f7360008201527f6564000000000000000000000000000000000000000000000000000000000000602082015250565b600061284c6022836127df565b9150612857826127f0565b604082019050919050565b6000602082019050818103600083015261287b8161283f565b9050919050565b7f4e487b7100000000000000000000000000000000000000000000000000000000600052601160045260246000fd5b60006128bc82611fbb565b91506128c783611fbb565b9250827fffffffffffffffffffffffffffffffffffffffffffffffffffffffffffffffff038211156128fc576128fb612882565b5b828201905092915050565b600061291282611fbb565b915061291d83611fbb565b9250828210156129305761292f612882565b5b828203905092915050565b7f4e487b7100000000000000000000000000000000000000000000000000000000600052603260045260246000fd5b7f77697468647261773a2063616e2774207769746864726177206d6f726520746860008201527f616e206465706f73697400000000000000000000000000000000000000000000602082015250565b60006129c6602a836127df565b91506129d18261296a565b604082019050919050565b600060208201905081810360008301526129f5816129b9565b9050919050565b600081519050612a0b81612003565b92915050565b600060208284031215612a2757612a26611ff9565b5b6000612a35848285016129fc565b91505092915050565b6000612a4982611fbb565b91507fffffffffffffffffffffffffffffffffffffffffffffffffffffffffffffffff821415612a7c57612a7b612882565b5b600182019050919050565b7f596f75277265206e6f74206f776e65722e000000000000000000000000000000600082015250565b6000612abd6011836127df565b9150612ac882612a87565b602082019050919050565b60006020820190508181036000830152612aec81612ab0565b9050919050565b6000608082019050612b0860008301876125c9565b612b1560208301866125e5565b612b2260408301856125c9565b612b2f60608301846125c9565b95945050505050565b7f696e76616c6964207369676e6174757265206c656e6774680000000000000000600082015250565b6000612b6e6018836127df565b9150612b7982612b38565b602082019050919050565b60006020820190508181036000830152612b9d81612b61565b9050919050565b60008160601b9050919050565b6000612bbc82612ba4565b9050919050565b6000612bce82612bb1565b9050919050565b612be6612be182612120565b612bc3565b82525050565b6000819050919050565b612c07612c0282611fbb565b612bec565b82525050565b600081519050919050565b600081905092915050565b60005b83811015612c41578082015181840152602081019050612c26565b83811115612c50576000848401525b50505050565b6000612c6182612c0d565b612c6b8185612c18565b9350612c7b818560208601612c23565b80840191505092915050565b6000612c938286612bd5565b601482019150612ca38285612bf6565b602082019150612cb38284612c56565b9150819050949350505050565b7f4e487b7100000000000000000000000000000000000000000000000000000000600052602260045260246000fd5b60006002820490506001821680612d0757607f821691505b60208210811415612d1b57612d1a612cc0565b5b50919050565b7f596f75206469646e2774207369676e2e00000000000000000000000000000000600082015250565b6000612d576010836127df565b9150612d6282612d21565b602082019050919050565b60006020820190508181036000830152612d8681612d4a565b9050919050565b7f496e76616c696420616d6f756e74000000000000000000000000000000000000600082015250565b6000612dc3600e836127df565b9150612dce82612d8d565b602082019050919050565b60006020820190508181036000830152612df281612db6565b9050919050565b7f19457468657265756d205369676e6564204d6573736167653a0a333200000000600082015250565b6000612e2f601c83612c18565b9150612e3a82612df9565b601c82019050919050565b6000819050919050565b612e60612e5b826123a8565b612e45565b82525050565b6000612e7182612e22565b9150612e7d8284612e4f565b60208201915081905092915050565b6000612e9782611fbb565b9150612ea283611fbb565b9250817fffffffffffffffffffffffffffffffffffffffffffffffffffffffffffffffff0483118215151615612edb57612eda612882565b5b828202905092915050565b7f4e487b7100000000000000000000000000000000000000000000000000000000600052601260045260246000fd5b6000612f2082611fbb565b9150612f2b83611fbb565b925082612f3b57612f3a612ee6565b5b828204905092915050565b6000606082019050612f5b60008301866122e9565b612f6860208301856122e9565b612f756040830184611fc5565b949350505050565b6000604082019050612f9260008301856122e9565b612f9f6020830184611fc5565b9392505050565b600081519050612fb58161217c565b92915050565b600060208284031215612fd157612fd0611ff9565b5b6000612fdf84828501612fa6565b91505092915050565b7f5361666545524332303a204552433230206f7065726174696f6e20646964206e60008201527f6f74207375636365656400000000000000000000000000000000000000000000602082015250565b6000613044602a836127df565b915061304f82612fe8565b604082019050919050565b6000602082019050818103600083015261307381613037565b9050919050565b7f416464726573733a20696e73756666696369656e742062616c616e636520666f60008201527f722063616c6c0000000000000000000000000000000000000000000000000000602082015250565b60006130d66026836127df565b91506130e18261307a565b604082019050919050565b60006020820190508181036000830152613105816130c9565b9050919050565b7f416464726573733a2063616c6c20746f206e6f6e2d636f6e7472616374000000600082015250565b6000613142601d836127df565b915061314d8261310c565b602082019050919050565b6000602082019050818103600083015261317181613135565b9050919050565b600081519050919050565b600081905092915050565b600061319982613178565b6131a38185613183565b93506131b3818560208601612c23565b80840191505092915050565b60006131cb828461318e565b915081905092915050565b60006131e182612c0d565b6131eb81856127df565b93506131fb818560208601612c23565b613204816123e8565b840191505092915050565b6000602082019050818103600083015261322981846131d6565b90509291505056fea2646970667358221220db071ffaaf54ae613a7d46d88ed74ad3c8b363506a151610b096fc38f0dfe4e764736f6c63430008090033",
  "linkReferences": {},
  "deployedLinkReferences": {}
}