{
  "_format": "hh-sol-artifact-1",
  "contractName": "Pool",
  "sourceName": "contracts/Pool.sol",
  "abi": [
    {
      "inputs": [
        {
          "internalType": "address",
          "name": "_token",
          "type": "address"
        },
        {
          "internalType": "address",
          "name": "_rewardToken",
          "type": "address"
        },
        {
          "internalType": "address",
          "name": "_owner",
          "type": "address"
        },
        {
          "internalType": "uint256",
          "name": "_aprPercent",
          "type": "uint256"
        },
        {
          "internalType": "uint256",
          "name": "_lockPeriod",
          "type": "uint256"
        },
        {
          "internalType": "uint256",
          "name": "_bonus",
          "type": "uint256"
        },
        {
          "internalType": "uint256",
          "name": "_bonusEndBlock",
          "type": "uint256"
        }
      ],
      "stateMutability": "nonpayable",
      "type": "constructor"
    },
    {
      "inputs": [],
      "name": "aprPercent",
      "outputs": [
        {
          "internalType": "uint256",
          "name": "",
          "type": "uint256"
        }
      ],
      "stateMutability": "view",
      "type": "function"
    },
    {
      "inputs": [
        {
          "internalType": "address",
          "name": "account",
          "type": "address"
        }
      ],
      "name": "balanceOf",
      "outputs": [
        {
          "internalType": "uint256",
          "name": "",
          "type": "uint256"
        }
      ],
      "stateMutability": "view",
      "type": "function"
    },
    {
      "inputs": [],
      "name": "bonus",
      "outputs": [
        {
          "internalType": "uint256",
          "name": "",
          "type": "uint256"
        }
      ],
      "stateMutability": "view",
      "type": "function"
    },
    {
      "inputs": [],
      "name": "bonusEndBlock",
      "outputs": [
        {
          "internalType": "uint256",
          "name": "",
          "type": "uint256"
        }
      ],
      "stateMutability": "view",
      "type": "function"
    },
    {
      "inputs": [
        {
          "internalType": "address",
          "name": "",
          "type": "address"
        }
      ],
      "name": "depositTime",
      "outputs": [
        {
          "internalType": "uint256",
          "name": "",
          "type": "uint256"
        }
      ],
      "stateMutability": "view",
      "type": "function"
    },
    {
      "inputs": [
        {
          "internalType": "address",
          "name": "",
          "type": "address"
        }
      ],
      "name": "deposits",
      "outputs": [
        {
          "internalType": "uint256",
          "name": "",
          "type": "uint256"
        }
      ],
      "stateMutability": "view",
      "type": "function"
    },
    {
      "inputs": [],
      "name": "fee",
      "outputs": [
        {
          "internalType": "uint256",
          "name": "",
          "type": "uint256"
        }
      ],
      "stateMutability": "view",
      "type": "function"
    },
    {
      "inputs": [],
      "name": "getStakerCount",
      "outputs": [
        {
          "internalType": "uint256",
          "name": "",
          "type": "uint256"
        }
      ],
      "stateMutability": "view",
      "type": "function"
    },
    {
      "inputs": [],
      "name": "harvest",
      "outputs": [],
      "stateMutability": "nonpayable",
      "type": "function"
    },
    {
      "inputs": [
        {
          "internalType": "address",
          "name": "",
          "type": "address"
        }
      ],
      "name": "lastUpdate",
      "outputs": [
        {
          "internalType": "uint256",
          "name": "",
          "type": "uint256"
        }
      ],
      "stateMutability": "view",
      "type": "function"
    },
    {
      "inputs": [],
      "name": "lockPeriod",
      "outputs": [
        {
          "internalType": "uint256",
          "name": "",
          "type": "uint256"
        }
      ],
      "stateMutability": "view",
      "type": "function"
    },
    {
      "inputs": [],
      "name": "ownAddr",
      "outputs": [
        {
          "internalType": "address",
          "name": "",
          "type": "address"
        }
      ],
      "stateMutability": "view",
      "type": "function"
    },
    {
      "inputs": [
        {
          "internalType": "address",
          "name": "account",
          "type": "address"
        }
      ],
      "name": "pendingReward",
      "outputs": [
        {
          "internalType": "uint256",
          "name": "",
          "type": "uint256"
        }
      ],
      "stateMutability": "view",
      "type": "function"
    },
    {
      "inputs": [],
      "name": "rewardToken",
      "outputs": [
        {
          "internalType": "contract IERC20",
          "name": "",
          "type": "address"
        }
      ],
      "stateMutability": "view",
      "type": "function"
    },
    {
      "inputs": [
        {
          "internalType": "uint256",
          "name": "amount",
          "type": "uint256"
        }
      ],
      "name": "stake",
      "outputs": [],
      "stateMutability": "nonpayable",
      "type": "function"
    },
    {
      "inputs": [],
      "name": "stakersCount",
      "outputs": [
        {
          "internalType": "uint256",
          "name": "",
          "type": "uint256"
        }
      ],
      "stateMutability": "view",
      "type": "function"
    },
    {
      "inputs": [],
      "name": "token",
      "outputs": [
        {
          "internalType": "contract IERC20",
          "name": "",
          "type": "address"
        }
      ],
      "stateMutability": "view",
      "type": "function"
    },
    {
      "inputs": [
        {
          "internalType": "uint256",
          "name": "amount",
          "type": "uint256"
        }
      ],
      "name": "unstake",
      "outputs": [],
      "stateMutability": "nonpayable",
      "type": "function"
    }
  ],
  "bytecode": "0x6080604052600a600355600f6008556064600a5534801561001f57600080fd5b50604051610dac380380610dac83398101604081905261003e916100b4565b6001600081905580546001600160a01b03199081166001600160a01b03998a161790915560028054821697891697909717909655600480549096169490961693909317909355600855600991909155600a55600b5561011e565b80516001600160a01b03811681146100af57600080fd5b919050565b600080600080600080600060e0888a0312156100cf57600080fd5b6100d888610098565b96506100e660208901610098565b95506100f460408901610098565b9450606088015193506080880151925060a0880151915060c0880151905092959891949750929550565b610c7f8061012d6000396000f3fe608060405234801561001057600080fd5b50600436106101165760003560e01c806375b4d78c116100a2578063ddca3f4311610071578063ddca3f431461020d578063f40f0f5214610216578063f7c618c114610229578063fc0c546a1461023c578063fc7e286d1461024f57600080fd5b806375b4d78c146101c8578063a2e80c5e146101d1578063a694fc3a146101da578063cb03fb1e146101ed57600080fd5b80633fd8b02f116100e95780633fd8b02f1461017b5780634641257d1461018457806346c648731461018c57806357a0a140146101ac57806370a08231146101b557600080fd5b80631319649d1461011b5780631aed6553146101325780632bd10d021461013b5780632e17de7814610166575b600080fd5b600c545b6040519081526020015b60405180910390f35b61011f600b5481565b60045461014e906001600160a01b031681565b6040516001600160a01b039091168152602001610129565b610179610174366004610ae4565b61026f565b005b61011f60095481565b6101796103f2565b61011f61019a366004610afd565b60066020526000908152604090205481565b61011f60085481565b61011f6101c3366004610afd565b61055b565b61011f600a5481565b61011f600c5481565b6101796101e8366004610ae4565b61058f565b61011f6101fb366004610afd565b60076020526000908152604090205481565b61011f60035481565b61011f610224366004610afd565b6106e5565b60025461014e906001600160a01b031681565b60015461014e906001600160a01b031681565b61011f61025d366004610afd565b60056020526000908152604090205481565b336000908152600560205260409020548111156102df5760405162461bcd60e51b815260206004820152602360248201527f4e6f7420656e6f75676820757365722062616c616e636520746f20776974686460448201526272617760e81b60648201526084015b60405180910390fd5b3360009081526006602052604090205460095442916102fd91610b3c565b11156103455760405162461bcd60e51b81526020600482015260176024820152762cb7ba9031b0b713ba103bb4ba34323930bb903737bb9760491b60448201526064016102d6565b6000610350336106e5565b9050801561036f5760025461036f906001600160a01b031633836107b4565b3360009081526005602052604090205482141561039f576001600c60008282546103999190610b54565b90915550505b33600090815260056020526040812080548492906103be908490610b54565b90915550503360008181526007602052604090204290556001546103ee916001600160a01b0390911690846107b4565b5050565b336000908152600560205260409020546104475760405162461bcd60e51b81526020600482015260166024820152754e6f2062616c616e636520746f20776974686472617760501b60448201526064016102d6565b33600090815260066020526040902054600954429161046591610b3c565b11156104ad5760405162461bcd60e51b81526020600482015260176024820152762cb7ba9031b0b713ba103bb4ba34323930bb903737bb9760491b60448201526064016102d6565b60006104b8336106e5565b905080156105465760025460405163a9059cbb60e01b8152336004820152602481018390526001600160a01b039091169063a9059cbb90604401602060405180830381600087803b15801561050c57600080fd5b505af1158015610520573d6000803e3d6000fd5b505050506040513d601f19601f820116820180604052508101906105449190610b6b565b505b50336000908152600760205260409020429055565b6000610566826106e5565b6001600160a01b0383166000908152600560205260409020546105899190610b3c565b92915050565b600061059a336106e5565b90506000811180156105c857503360009081526006602052604090205460095442916105c591610b3c565b11155b156105f7576002546105e4906001600160a01b031633836107b4565b3360009081526007602052604090204290555b3360009081526005602052604090205461061e573360009081526006602052604090204290555b3360009081526006602052604090205461064b576001600c60008282546106459190610b3c565b90915550505b33600090815260056020526040902054610666908390610b3c565b336000818152600560205260409020919091556004546003546106bb92916001600160a01b0316906106a7906103e8906106a190889061081c565b9061082f565b6001546001600160a01b031692919061083b565b6103ee33306106a76106de6103e86106a16003548961081c90919063ffffffff16565b8690610879565b6001600160a01b038116600090815260076020526040812054819061070a9042610b54565b90506000600b54421015801561073a5750600b546001600160a01b03851660009081526007602052604090205411155b1561074f57600b5461074c9042610b54565b90505b60006107ab62278d006106a161076e6064600a54876106a19190610b8d565b6107789087610b3c565b6008546001600160a01b038a166000908152600560205260409020546107a5916103e8916106a19161081c565b9061081c565b95945050505050565b6040516001600160a01b03831660248201526044810182905261081790849063a9059cbb60e01b906064015b60408051601f198184030181529190526020810180516001600160e01b03166001600160e01b031990931692909217909152610885565b505050565b60006108288284610b8d565b9392505050565b60006108288284610bac565b6040516001600160a01b03808516602483015283166044820152606481018290526108739085906323b872dd60e01b906084016107e0565b50505050565b60006108288284610b54565b60006108da826040518060400160405280602081526020017f5361666545524332303a206c6f772d6c6576656c2063616c6c206661696c6564815250856001600160a01b03166109579092919063ffffffff16565b80519091501561081757808060200190518101906108f89190610b6b565b6108175760405162461bcd60e51b815260206004820152602a60248201527f5361666545524332303a204552433230206f7065726174696f6e20646964206e6044820152691bdd081cdd58d8d9595960b21b60648201526084016102d6565b6060610966848460008561096e565b949350505050565b6060824710156109cf5760405162461bcd60e51b815260206004820152602660248201527f416464726573733a20696e73756666696369656e742062616c616e636520666f6044820152651c8818d85b1b60d21b60648201526084016102d6565b600080866001600160a01b031685876040516109eb9190610bfa565b60006040518083038185875af1925050503d8060008114610a28576040519150601f19603f3d011682016040523d82523d6000602084013e610a2d565b606091505b5091509150610a3e87838387610a49565b979650505050505050565b60608315610ab5578251610aae576001600160a01b0385163b610aae5760405162461bcd60e51b815260206004820152601d60248201527f416464726573733a2063616c6c20746f206e6f6e2d636f6e747261637400000060448201526064016102d6565b5081610966565b6109668383815115610aca5781518083602001fd5b8060405162461bcd60e51b81526004016102d69190610c16565b600060208284031215610af657600080fd5b5035919050565b600060208284031215610b0f57600080fd5b81356001600160a01b038116811461082857600080fd5b634e487b7160e01b600052601160045260246000fd5b60008219821115610b4f57610b4f610b26565b500190565b600082821015610b6657610b66610b26565b500390565b600060208284031215610b7d57600080fd5b8151801515811461082857600080fd5b6000816000190483118215151615610ba757610ba7610b26565b500290565b600082610bc957634e487b7160e01b600052601260045260246000fd5b500490565b60005b83811015610be9578181015183820152602001610bd1565b838111156108735750506000910152565b60008251610c0c818460208701610bce565b9190910192915050565b6020815260008251806020840152610c35816040850160208701610bce565b601f01601f1916919091016040019291505056fea2646970667358221220f0fc3d1edcf7583f9d15084c79f6c6b0dcb640e4e8b319704f433063a26b76a864736f6c63430008090033",
  "linkReferences": {},
  "deployedLinkReferences": {}
}