{
  "_format": "hh-sol-artifact-1",
  "contractName": "Pool",
  "sourceName": "contracts/Pool.sol",
  "abi": [
    {
      "inputs": [
        {
          "internalType": "address",
          "name": "_token",
          "type": "address"
        },
        {
          "internalType": "address",
          "name": "_rewardToken",
          "type": "address"
        },
        {
          "internalType": "address",
          "name": "_owner",
          "type": "address"
        },
        {
          "internalType": "uint256",
          "name": "_aprPercent",
          "type": "uint256"
        },
        {
          "internalType": "uint256",
          "name": "_lockPeriod",
          "type": "uint256"
        },
        {
          "internalType": "uint256",
          "name": "_bonus",
          "type": "uint256"
        },
        {
          "internalType": "uint256",
          "name": "_bonusEndBlock",
          "type": "uint256"
        },
        {
          "internalType": "uint256",
          "name": "_startBlock",
          "type": "uint256"
        },
        {
          "internalType": "uint256",
          "name": "_endBlock",
          "type": "uint256"
        }
      ],
      "stateMutability": "nonpayable",
      "type": "constructor"
    },
    {
      "inputs": [],
      "name": "aprPercent",
      "outputs": [
        {
          "internalType": "uint256",
          "name": "",
          "type": "uint256"
        }
      ],
      "stateMutability": "view",
      "type": "function"
    },
    {
      "inputs": [
        {
          "internalType": "address",
          "name": "account",
          "type": "address"
        }
      ],
      "name": "balanceOf",
      "outputs": [
        {
          "internalType": "uint256",
          "name": "",
          "type": "uint256"
        }
      ],
      "stateMutability": "view",
      "type": "function"
    },
    {
      "inputs": [],
      "name": "bonus",
      "outputs": [
        {
          "internalType": "uint256",
          "name": "",
          "type": "uint256"
        }
      ],
      "stateMutability": "view",
      "type": "function"
    },
    {
      "inputs": [],
      "name": "bonusEndBlock",
      "outputs": [
        {
          "internalType": "uint256",
          "name": "",
          "type": "uint256"
        }
      ],
      "stateMutability": "view",
      "type": "function"
    },
    {
      "inputs": [
        {
          "internalType": "address",
          "name": "",
          "type": "address"
        }
      ],
      "name": "depositTime",
      "outputs": [
        {
          "internalType": "uint256",
          "name": "",
          "type": "uint256"
        }
      ],
      "stateMutability": "view",
      "type": "function"
    },
    {
      "inputs": [
        {
          "internalType": "address",
          "name": "",
          "type": "address"
        }
      ],
      "name": "deposits",
      "outputs": [
        {
          "internalType": "uint256",
          "name": "",
          "type": "uint256"
        }
      ],
      "stateMutability": "view",
      "type": "function"
    },
    {
      "inputs": [],
      "name": "endBlock",
      "outputs": [
        {
          "internalType": "uint256",
          "name": "",
          "type": "uint256"
        }
      ],
      "stateMutability": "view",
      "type": "function"
    },
    {
      "inputs": [],
      "name": "fee",
      "outputs": [
        {
          "internalType": "uint256",
          "name": "",
          "type": "uint256"
        }
      ],
      "stateMutability": "view",
      "type": "function"
    },
    {
      "inputs": [],
      "name": "getStakerCount",
      "outputs": [
        {
          "internalType": "uint256",
          "name": "",
          "type": "uint256"
        }
      ],
      "stateMutability": "view",
      "type": "function"
    },
    {
      "inputs": [],
      "name": "harvest",
      "outputs": [],
      "stateMutability": "nonpayable",
      "type": "function"
    },
    {
      "inputs": [
        {
          "internalType": "address",
          "name": "",
          "type": "address"
        }
      ],
      "name": "lastUpdate",
      "outputs": [
        {
          "internalType": "uint256",
          "name": "",
          "type": "uint256"
        }
      ],
      "stateMutability": "view",
      "type": "function"
    },
    {
      "inputs": [],
      "name": "lockPeriod",
      "outputs": [
        {
          "internalType": "uint256",
          "name": "",
          "type": "uint256"
        }
      ],
      "stateMutability": "view",
      "type": "function"
    },
    {
      "inputs": [],
      "name": "ownAddr",
      "outputs": [
        {
          "internalType": "address",
          "name": "",
          "type": "address"
        }
      ],
      "stateMutability": "view",
      "type": "function"
    },
    {
      "inputs": [
        {
          "internalType": "address",
          "name": "account",
          "type": "address"
        }
      ],
      "name": "pendingReward",
      "outputs": [
        {
          "internalType": "uint256",
          "name": "",
          "type": "uint256"
        }
      ],
      "stateMutability": "view",
      "type": "function"
    },
    {
      "inputs": [],
      "name": "rewardToken",
      "outputs": [
        {
          "internalType": "contract IERC20",
          "name": "",
          "type": "address"
        }
      ],
      "stateMutability": "view",
      "type": "function"
    },
    {
      "inputs": [
        {
          "internalType": "uint256",
          "name": "amount",
          "type": "uint256"
        }
      ],
      "name": "stake",
      "outputs": [],
      "stateMutability": "nonpayable",
      "type": "function"
    },
    {
      "inputs": [],
      "name": "stakersCount",
      "outputs": [
        {
          "internalType": "uint256",
          "name": "",
          "type": "uint256"
        }
      ],
      "stateMutability": "view",
      "type": "function"
    },
    {
      "inputs": [],
      "name": "startBlock",
      "outputs": [
        {
          "internalType": "uint256",
          "name": "",
          "type": "uint256"
        }
      ],
      "stateMutability": "view",
      "type": "function"
    },
    {
      "inputs": [],
      "name": "token",
      "outputs": [
        {
          "internalType": "contract IERC20",
          "name": "",
          "type": "address"
        }
      ],
      "stateMutability": "view",
      "type": "function"
    },
    {
      "inputs": [
        {
          "internalType": "uint256",
          "name": "amount",
          "type": "uint256"
        }
      ],
      "name": "unstake",
      "outputs": [],
      "stateMutability": "nonpayable",
      "type": "function"
    }
  ],
  "bytecode": "0x6080604052600a600355600f6008556064600a5534801561001f57600080fd5b50604051610f19380380610f1983398101604081905261003e916100bd565b6001600081905580546001600160a01b03199081166001600160a01b039b8c1617909155600280548216998b1699909917909855600480549098169690981695909517909555600892909255600955600a55600b91909155600d55600e5561013b565b80516001600160a01b03811681146100b857600080fd5b919050565b60008060008060008060008060006101208a8c0312156100dc57600080fd5b6100e58a6100a1565b98506100f360208b016100a1565b975061010160408b016100a1565b965060608a0151955060808a0151945060a08a0151935060c08a0151925060e08a015191506101008a015190509295985092959850929598565b610dcf8061014a6000396000f3fe608060405234801561001057600080fd5b506004361061012c5760003560e01c806370a08231116100ad578063ddca3f4311610071578063ddca3f4314610239578063f40f0f5214610242578063f7c618c114610255578063fc0c546a14610268578063fc7e286d1461027b57600080fd5b806370a08231146101e157806375b4d78c146101f4578063a2e80c5e146101fd578063a694fc3a14610206578063cb03fb1e1461021957600080fd5b80633fd8b02f116100f45780633fd8b02f1461019e5780634641257d146101a757806346c64873146101af57806348cd4cb1146101cf57806357a0a140146101d857600080fd5b8063083c6323146101315780631319649d1461014d5780631aed6553146101555780632bd10d021461015e5780632e17de7814610189575b600080fd5b61013a600e5481565b6040519081526020015b60405180910390f35b600c5461013a565b61013a600b5481565b600454610171906001600160a01b031681565b6040516001600160a01b039091168152602001610144565b61019c610197366004610c34565b61029b565b005b61013a60095481565b61019c61041e565b61013a6101bd366004610c4d565b60066020526000908152604090205481565b61013a600d5481565b61013a60085481565b61013a6101ef366004610c4d565b610587565b61013a600a5481565b61013a600c5481565b61019c610214366004610c34565b6105bb565b61013a610227366004610c4d565b60076020526000908152604090205481565b61013a60035481565b61013a610250366004610c4d565b610781565b600254610171906001600160a01b031681565b600154610171906001600160a01b031681565b61013a610289366004610c4d565b60056020526000908152604090205481565b3360009081526005602052604090205481111561030b5760405162461bcd60e51b815260206004820152602360248201527f4e6f7420656e6f75676820757365722062616c616e636520746f20776974686460448201526272617760e81b60648201526084015b60405180910390fd5b33600090815260066020526040902054600954429161032991610c8c565b11156103715760405162461bcd60e51b81526020600482015260176024820152762cb7ba9031b0b713ba103bb4ba34323930bb903737bb9760491b6044820152606401610302565b600061037c33610781565b9050801561039b5760025461039b906001600160a01b03163383610904565b336000908152600560205260409020548214156103cb576001600c60008282546103c59190610ca4565b90915550505b33600090815260056020526040812080548492906103ea908490610ca4565b909155505033600081815260076020526040902042905560015461041a916001600160a01b039091169084610904565b5050565b336000908152600560205260409020546104735760405162461bcd60e51b81526020600482015260166024820152754e6f2062616c616e636520746f20776974686472617760501b6044820152606401610302565b33600090815260066020526040902054600954429161049191610c8c565b11156104d95760405162461bcd60e51b81526020600482015260176024820152762cb7ba9031b0b713ba103bb4ba34323930bb903737bb9760491b6044820152606401610302565b60006104e433610781565b905080156105725760025460405163a9059cbb60e01b8152336004820152602481018390526001600160a01b039091169063a9059cbb90604401602060405180830381600087803b15801561053857600080fd5b505af115801561054c573d6000803e3d6000fd5b505050506040513d601f19601f820116820180604052508101906105709190610cbb565b505b50336000908152600760205260409020429055565b600061059282610781565b6001600160a01b0383166000908152600560205260409020546105b59190610c8c565b92915050565b42600e54101561060d5760405162461bcd60e51b815260206004820152601960248201527f506572696f64206f6620757365206861732065787069726564000000000000006044820152606401610302565b600061061833610781565b9050600081118015610646575033600090815260066020526040902054600954429161064391610c8c565b11155b1561066257600254610662906001600160a01b03163383610904565b3360009081526006602052604090205461068f576001600c60008282546106899190610c8c565b90915550505b336000908152600560205260409020546106b6573360009081526006602052604090204290555b3360009081526007602052604090204290819055600d5411156106e757600d54336000908152600760205260409020555b33600090815260056020526040902054610702908390610c8c565b3360008181526005602052604090209190915560045460035461075792916001600160a01b031690610743906103e89061073d90889061096c565b9061097f565b6001546001600160a01b031692919061098b565b61041a333061074361077a6103e861073d6003548961096c90919063ffffffff16565b86906109c9565b6000600d5442101561079557506000919050565b6001600160a01b0382166000908152600760205260408120546107b89042610ca4565b9050600e544211156107ed576001600160a01b038316600090815260076020526040902054600e546107ea9190610ca4565b90505b6000600b54421115801561081857506001600160a01b03841660009081526007602052604090205442115b15610847576001600160a01b0384166000908152600760205260409020546108409042610ca4565b905061089f565b600b54421180156108715750600b546001600160a01b038516600090815260076020526040902054105b1561089f576001600160a01b038416600090815260076020526040902054600b5461089c9190610ca4565b90505b60006108fb62278d0061073d6108be6064600a548761073d9190610cdd565b6108c89087610c8c565b6008546001600160a01b038a166000908152600560205260409020546108f5916103e89161073d9161096c565b9061096c565b95945050505050565b6040516001600160a01b03831660248201526044810182905261096790849063a9059cbb60e01b906064015b60408051601f198184030181529190526020810180516001600160e01b03166001600160e01b0319909316929092179091526109d5565b505050565b60006109788284610cdd565b9392505050565b60006109788284610cfc565b6040516001600160a01b03808516602483015283166044820152606481018290526109c39085906323b872dd60e01b90608401610930565b50505050565b60006109788284610ca4565b6000610a2a826040518060400160405280602081526020017f5361666545524332303a206c6f772d6c6576656c2063616c6c206661696c6564815250856001600160a01b0316610aa79092919063ffffffff16565b8051909150156109675780806020019051810190610a489190610cbb565b6109675760405162461bcd60e51b815260206004820152602a60248201527f5361666545524332303a204552433230206f7065726174696f6e20646964206e6044820152691bdd081cdd58d8d9595960b21b6064820152608401610302565b6060610ab68484600085610abe565b949350505050565b606082471015610b1f5760405162461bcd60e51b815260206004820152602660248201527f416464726573733a20696e73756666696369656e742062616c616e636520666f6044820152651c8818d85b1b60d21b6064820152608401610302565b600080866001600160a01b03168587604051610b3b9190610d4a565b60006040518083038185875af1925050503d8060008114610b78576040519150601f19603f3d011682016040523d82523d6000602084013e610b7d565b606091505b5091509150610b8e87838387610b99565b979650505050505050565b60608315610c05578251610bfe576001600160a01b0385163b610bfe5760405162461bcd60e51b815260206004820152601d60248201527f416464726573733a2063616c6c20746f206e6f6e2d636f6e74726163740000006044820152606401610302565b5081610ab6565b610ab68383815115610c1a5781518083602001fd5b8060405162461bcd60e51b81526004016103029190610d66565b600060208284031215610c4657600080fd5b5035919050565b600060208284031215610c5f57600080fd5b81356001600160a01b038116811461097857600080fd5b634e487b7160e01b600052601160045260246000fd5b60008219821115610c9f57610c9f610c76565b500190565b600082821015610cb657610cb6610c76565b500390565b600060208284031215610ccd57600080fd5b8151801515811461097857600080fd5b6000816000190483118215151615610cf757610cf7610c76565b500290565b600082610d1957634e487b7160e01b600052601260045260246000fd5b500490565b60005b83811015610d39578181015183820152602001610d21565b838111156109c35750506000910152565b60008251610d5c818460208701610d1e565b9190910192915050565b6020815260008251806020840152610d85816040850160208701610d1e565b601f01601f1916919091016040019291505056fea264697066735822122050b4d5b3f208e18263d0605c5995f746add9f5ad3a01f81f0ec5a17fc9619a9164736f6c63430008090033",
  "linkReferences": {},
  "deployedLinkReferences": {}
}