{
  "_format": "hh-sol-artifact-1",
  "contractName": "Pool",
  "sourceName": "contracts/Pool.sol",
  "abi": [
    {
      "inputs": [
        {
          "internalType": "address",
          "name": "_token",
          "type": "address"
        },
        {
          "internalType": "address",
          "name": "_rewardToken",
          "type": "address"
        },
        {
          "internalType": "address",
          "name": "_owner",
          "type": "address"
        },
        {
          "internalType": "uint256",
          "name": "_aprPercent",
          "type": "uint256"
        }
      ],
      "stateMutability": "nonpayable",
      "type": "constructor"
    },
    {
      "inputs": [],
      "name": "aprPercent",
      "outputs": [
        {
          "internalType": "uint256",
          "name": "",
          "type": "uint256"
        }
      ],
      "stateMutability": "view",
      "type": "function"
    },
    {
      "inputs": [
        {
          "internalType": "address",
          "name": "account",
          "type": "address"
        }
      ],
      "name": "balanceOf",
      "outputs": [
        {
          "internalType": "uint256",
          "name": "",
          "type": "uint256"
        }
      ],
      "stateMutability": "view",
      "type": "function"
    },
    {
      "inputs": [
        {
          "internalType": "address",
          "name": "",
          "type": "address"
        }
      ],
      "name": "deposits",
      "outputs": [
        {
          "internalType": "uint256",
          "name": "",
          "type": "uint256"
        }
      ],
      "stateMutability": "view",
      "type": "function"
    },
    {
      "inputs": [],
      "name": "fee",
      "outputs": [
        {
          "internalType": "uint256",
          "name": "",
          "type": "uint256"
        }
      ],
      "stateMutability": "view",
      "type": "function"
    },
    {
      "inputs": [],
      "name": "harvest",
      "outputs": [],
      "stateMutability": "nonpayable",
      "type": "function"
    },
    {
      "inputs": [
        {
          "internalType": "address",
          "name": "",
          "type": "address"
        }
      ],
      "name": "lastUpdate",
      "outputs": [
        {
          "internalType": "uint256",
          "name": "",
          "type": "uint256"
        }
      ],
      "stateMutability": "view",
      "type": "function"
    },
    {
      "inputs": [],
      "name": "ownAddr",
      "outputs": [
        {
          "internalType": "address",
          "name": "",
          "type": "address"
        }
      ],
      "stateMutability": "view",
      "type": "function"
    },
    {
      "inputs": [
        {
          "internalType": "address",
          "name": "account",
          "type": "address"
        }
      ],
      "name": "pendingReward",
      "outputs": [
        {
          "internalType": "uint256",
          "name": "",
          "type": "uint256"
        }
      ],
      "stateMutability": "view",
      "type": "function"
    },
    {
      "inputs": [],
      "name": "rewardToken",
      "outputs": [
        {
          "internalType": "contract IERC20",
          "name": "",
          "type": "address"
        }
      ],
      "stateMutability": "view",
      "type": "function"
    },
    {
      "inputs": [
        {
          "internalType": "uint256",
          "name": "amount",
          "type": "uint256"
        }
      ],
      "name": "stake",
      "outputs": [],
      "stateMutability": "nonpayable",
      "type": "function"
    },
    {
      "inputs": [],
      "name": "token",
      "outputs": [
        {
          "internalType": "contract IERC20",
          "name": "",
          "type": "address"
        }
      ],
      "stateMutability": "view",
      "type": "function"
    },
    {
      "inputs": [
        {
          "internalType": "uint256",
          "name": "amount",
          "type": "uint256"
        }
      ],
      "name": "unstake",
      "outputs": [],
      "stateMutability": "nonpayable",
      "type": "function"
    }
  ],
  "bytecode": "0x6080604052600a600355600f60075534801561001a57600080fd5b50604051610aeb380380610aeb8339810160408190526100399161009f565b6001600081905580546001600160a01b03199081166001600160a01b03968716179091556002805482169486169490941790935560048054909316919093161790556007556100ea565b80516001600160a01b038116811461009a57600080fd5b919050565b600080600080608085870312156100b557600080fd5b6100be85610083565b93506100cc60208601610083565b92506100da60408601610083565b6060959095015193969295505050565b6109f2806100f96000396000f3fe608060405234801561001057600080fd5b50600436106100b45760003560e01c8063cb03fb1e11610071578063cb03fb1e14610143578063ddca3f4314610163578063f40f0f521461016c578063f7c618c11461017f578063fc0c546a14610192578063fc7e286d146101a557600080fd5b80632bd10d02146100b95780632e17de78146100e95780634641257d146100fe57806357a0a1401461010657806370a082311461011d578063a694fc3a14610130575b600080fd5b6004546100cc906001600160a01b031681565b6040516001600160a01b0390911681526020015b60405180910390f35b6100fc6100f7366004610857565b6101c5565b005b6100fc6102b2565b61010f60075481565b6040519081526020016100e0565b61010f61012b366004610870565b6103b5565b6100fc61013e366004610857565b6103e9565b61010f610151366004610870565b60066020526000908152604090205481565b61010f60035481565b61010f61017a366004610870565b6104bb565b6002546100cc906001600160a01b031681565b6001546100cc906001600160a01b031681565b61010f6101b3366004610870565b60056020526000908152604090205481565b336000908152600560205260409020548111156102355760405162461bcd60e51b815260206004820152602360248201527f4e6f7420656e6f75676820757365722062616c616e636520746f20776974686460448201526272617760e81b60648201526084015b60405180910390fd5b6000610240336104bb565b9050801561025f5760025461025f906001600160a01b0316338361053a565b336000908152600560205260408120805484929061027e9084906108af565b90915550503360008181526006602052604090204290556001546102ae916001600160a01b03909116908461053a565b5050565b336000908152600560205260409020546103075760405162461bcd60e51b81526020600482015260166024820152754e6f2062616c616e636520746f20776974686472617760501b604482015260640161022c565b6000610312336104bb565b905080156103a05760025460405163a9059cbb60e01b8152336004820152602481018390526001600160a01b039091169063a9059cbb90604401602060405180830381600087803b15801561036657600080fd5b505af115801561037a573d6000803e3d6000fd5b505050506040513d601f19601f8201168201806040525081019061039e91906108c6565b505b50336000908152600660205260409020429055565b60006103c0826104bb565b6001600160a01b0383166000908152600560205260409020546103e391906108e8565b92915050565b60006103f4336104bb565b9050801561041357600254610413906001600160a01b0316338361053a565b3360009081526005602052604090205461042e9083906108e8565b33600081815260056020908152604080832094909455600690529190912042905560045460035461049192916001600160a01b03169061047d906103e8906104779088906105a2565b906105ae565b6001546001600160a01b03169291906105ba565b6102ae333061047d6104b46103e8610477600354896105a290919063ffffffff16565b86906105f8565b6001600160a01b03811660009081526006602052604081205481906104e090426108af565b905061053362278d006104778361052d6103e8610477600754600560008c6001600160a01b03166001600160a01b03168152602001908152602001600020546105a290919063ffffffff16565b906105a2565b9392505050565b6040516001600160a01b03831660248201526044810182905261059d90849063a9059cbb60e01b906064015b60408051601f198184030181529190526020810180516001600160e01b03166001600160e01b031990931692909217909152610604565b505050565b60006105338284610900565b6000610533828461091f565b6040516001600160a01b03808516602483015283166044820152606481018290526105f29085906323b872dd60e01b90608401610566565b50505050565b600061053382846108af565b6000610659826040518060400160405280602081526020017f5361666545524332303a206c6f772d6c6576656c2063616c6c206661696c6564815250856001600160a01b03166106d69092919063ffffffff16565b80519091501561059d578080602001905181019061067791906108c6565b61059d5760405162461bcd60e51b815260206004820152602a60248201527f5361666545524332303a204552433230206f7065726174696f6e20646964206e6044820152691bdd081cdd58d8d9595960b21b606482015260840161022c565b60606106e584846000856106ed565b949350505050565b60608247101561074e5760405162461bcd60e51b815260206004820152602660248201527f416464726573733a20696e73756666696369656e742062616c616e636520666f6044820152651c8818d85b1b60d21b606482015260840161022c565b6001600160a01b0385163b6107a55760405162461bcd60e51b815260206004820152601d60248201527f416464726573733a2063616c6c20746f206e6f6e2d636f6e7472616374000000604482015260640161022c565b600080866001600160a01b031685876040516107c1919061096d565b60006040518083038185875af1925050503d80600081146107fe576040519150601f19603f3d011682016040523d82523d6000602084013e610803565b606091505b509150915061081382828661081e565b979650505050505050565b6060831561082d575081610533565b82511561083d5782518084602001fd5b8160405162461bcd60e51b815260040161022c9190610989565b60006020828403121561086957600080fd5b5035919050565b60006020828403121561088257600080fd5b81356001600160a01b038116811461053357600080fd5b634e487b7160e01b600052601160045260246000fd5b6000828210156108c1576108c1610899565b500390565b6000602082840312156108d857600080fd5b8151801515811461053357600080fd5b600082198211156108fb576108fb610899565b500190565b600081600019048311821515161561091a5761091a610899565b500290565b60008261093c57634e487b7160e01b600052601260045260246000fd5b500490565b60005b8381101561095c578181015183820152602001610944565b838111156105f25750506000910152565b6000825161097f818460208701610941565b9190910192915050565b60208152600082518060208401526109a8816040850160208701610941565b601f01601f1916919091016040019291505056fea264697066735822122031a1f1c08a4cf551cd1df17005d0a4099b9bd92791515a4fd0e8e65a11e7511f64736f6c63430008090033",
  "linkReferences": {},
  "deployedLinkReferences": {}
}