{
  "_format": "hh-sol-artifact-1",
  "contractName": "Factory",
  "sourceName": "contracts/Factory.sol",
  "abi": [
    {
      "anonymous": false,
      "inputs": [
        {
          "indexed": true,
          "internalType": "address",
          "name": "previousOwner",
          "type": "address"
        },
        {
          "indexed": true,
          "internalType": "address",
          "name": "newOwner",
          "type": "address"
        }
      ],
      "name": "OwnershipTransferred",
      "type": "event"
    },
    {
      "inputs": [
        {
          "internalType": "address",
          "name": "_farm",
          "type": "address"
        }
      ],
      "name": "farmIsRegistered",
      "outputs": [
        {
          "internalType": "bool",
          "name": "",
          "type": "bool"
        }
      ],
      "stateMutability": "view",
      "type": "function"
    },
    {
      "inputs": [
        {
          "internalType": "uint256",
          "name": "_index",
          "type": "uint256"
        }
      ],
      "name": "farmsAtIndex",
      "outputs": [
        {
          "internalType": "address",
          "name": "",
          "type": "address"
        }
      ],
      "stateMutability": "view",
      "type": "function"
    },
    {
      "inputs": [],
      "name": "farmsLength",
      "outputs": [
        {
          "internalType": "uint256",
          "name": "",
          "type": "uint256"
        }
      ],
      "stateMutability": "view",
      "type": "function"
    },
    {
      "inputs": [],
      "name": "owner",
      "outputs": [
        {
          "internalType": "address",
          "name": "",
          "type": "address"
        }
      ],
      "stateMutability": "view",
      "type": "function"
    },
    {
      "inputs": [
        {
          "internalType": "address",
          "name": "_farm",
          "type": "address"
        }
      ],
      "name": "registerFarm",
      "outputs": [],
      "stateMutability": "nonpayable",
      "type": "function"
    },
    {
      "inputs": [],
      "name": "renounceOwnership",
      "outputs": [],
      "stateMutability": "nonpayable",
      "type": "function"
    },
    {
      "inputs": [
        {
          "internalType": "address",
          "name": "newOwner",
          "type": "address"
        }
      ],
      "name": "transferOwnership",
      "outputs": [],
      "stateMutability": "nonpayable",
      "type": "function"
    }
  ],
  "bytecode": "0x608060405234801561001057600080fd5b5061002d61002261003260201b60201c565b61003a60201b60201c565b6100fe565b600033905090565b60008060009054906101000a900473ffffffffffffffffffffffffffffffffffffffff169050816000806101000a81548173ffffffffffffffffffffffffffffffffffffffff021916908373ffffffffffffffffffffffffffffffffffffffff1602179055508173ffffffffffffffffffffffffffffffffffffffff168173ffffffffffffffffffffffffffffffffffffffff167f8be0079c531659141344cd1fd0a4f28419497f9722a3daafe3b4186f6b6457e060405160405180910390a35050565b61081d8061010d6000396000f3fe608060405234801561001057600080fd5b506004361061007d5760003560e01c80639b6ce4e51161005b5780639b6ce4e5146100da578063edcd5d171461010a578063f2fde38b14610126578063f378d1d4146101425761007d565b8063715018a6146100825780638da5cb5b1461008c57806399d994fb146100aa575b600080fd5b61008a610160565b005b610094610174565b6040516100a1919061056d565b60405180910390f35b6100c460048036038101906100bf91906105c3565b61019d565b6040516100d1919061056d565b60405180910390f35b6100f460048036038101906100ef919061061c565b6101ba565b6040516101019190610664565b60405180910390f35b610124600480360381019061011f919061061c565b6101d7565b005b610140600480360381019061013b919061061c565b6101ef565b005b61014a610273565b604051610157919061068e565b60405180910390f35b610168610284565b6101726000610302565b565b60008060009054906101000a900473ffffffffffffffffffffffffffffffffffffffff16905090565b60006101b38260016103c690919063ffffffff16565b9050919050565b60006101d08260016103e090919063ffffffff16565b9050919050565b6101eb81600161041090919063ffffffff16565b5050565b6101f7610284565b600073ffffffffffffffffffffffffffffffffffffffff168173ffffffffffffffffffffffffffffffffffffffff161415610267576040517f08c379a000000000000000000000000000000000000000000000000000000000815260040161025e9061072c565b60405180910390fd5b61027081610302565b50565b600061027f6001610440565b905090565b61028c610455565b73ffffffffffffffffffffffffffffffffffffffff166102aa610174565b73ffffffffffffffffffffffffffffffffffffffff1614610300576040517f08c379a00000000000000000000000000000000000000000000000000000000081526004016102f790610798565b60405180910390fd5b565b60008060009054906101000a900473ffffffffffffffffffffffffffffffffffffffff169050816000806101000a81548173ffffffffffffffffffffffffffffffffffffffff021916908373ffffffffffffffffffffffffffffffffffffffff1602179055508173ffffffffffffffffffffffffffffffffffffffff168173ffffffffffffffffffffffffffffffffffffffff167f8be0079c531659141344cd1fd0a4f28419497f9722a3daafe3b4186f6b6457e060405160405180910390a35050565b60006103d5836000018361045d565b60001c905092915050565b6000610408836000018373ffffffffffffffffffffffffffffffffffffffff1660001b610488565b905092915050565b6000610438836000018373ffffffffffffffffffffffffffffffffffffffff1660001b6104ab565b905092915050565b600061044e8260000161051b565b9050919050565b600033905090565b6000826000018281548110610475576104746107b8565b5b9060005260206000200154905092915050565b600080836001016000848152602001908152602001600020541415905092915050565b60006104b78383610488565b610510578260000182908060018154018082558091505060019003906000526020600020016000909190919091505582600001805490508360010160008481526020019081526020016000208190555060019050610515565b600090505b92915050565b600081600001805490509050919050565b600073ffffffffffffffffffffffffffffffffffffffff82169050919050565b60006105578261052c565b9050919050565b6105678161054c565b82525050565b6000602082019050610582600083018461055e565b92915050565b600080fd5b6000819050919050565b6105a08161058d565b81146105ab57600080fd5b50565b6000813590506105bd81610597565b92915050565b6000602082840312156105d9576105d8610588565b5b60006105e7848285016105ae565b91505092915050565b6105f98161054c565b811461060457600080fd5b50565b600081359050610616816105f0565b92915050565b60006020828403121561063257610631610588565b5b600061064084828501610607565b91505092915050565b60008115159050919050565b61065e81610649565b82525050565b60006020820190506106796000830184610655565b92915050565b6106888161058d565b82525050565b60006020820190506106a3600083018461067f565b92915050565b600082825260208201905092915050565b7f4f776e61626c653a206e6577206f776e657220697320746865207a65726f206160008201527f6464726573730000000000000000000000000000000000000000000000000000602082015250565b60006107166026836106a9565b9150610721826106ba565b604082019050919050565b6000602082019050818103600083015261074581610709565b9050919050565b7f4f776e61626c653a2063616c6c6572206973206e6f7420746865206f776e6572600082015250565b60006107826020836106a9565b915061078d8261074c565b602082019050919050565b600060208201905081810360008301526107b181610775565b9050919050565b7f4e487b7100000000000000000000000000000000000000000000000000000000600052603260045260246000fdfea2646970667358221220a03beaa0fedf67046d9811c97a4c6a9ccd4654193516af29c1046e81648550ea64736f6c63430008090033",
  "linkReferences": {},
  "deployedLinkReferences": {}
}