{
  "_format": "hh-sol-artifact-1",
  "contractName": "Factory",
  "sourceName": "contracts/Factory.sol",
  "abi": [
    {
      "anonymous": false,
      "inputs": [
        {
          "indexed": true,
          "internalType": "address",
          "name": "previousOwner",
          "type": "address"
        },
        {
          "indexed": true,
          "internalType": "address",
          "name": "newOwner",
          "type": "address"
        }
      ],
      "name": "OwnershipTransferred",
      "type": "event"
    },
    {
      "inputs": [
        {
          "internalType": "address",
          "name": "_address",
          "type": "address"
        },
        {
          "internalType": "bool",
          "name": "_allow",
          "type": "bool"
        }
      ],
      "name": "adminAllowFarmGenerator",
      "outputs": [],
      "stateMutability": "nonpayable",
      "type": "function"
    },
    {
      "inputs": [
        {
          "internalType": "uint256",
          "name": "_index",
          "type": "uint256"
        }
      ],
      "name": "farmAtIndex",
      "outputs": [
        {
          "internalType": "address",
          "name": "",
          "type": "address"
        }
      ],
      "stateMutability": "view",
      "type": "function"
    },
    {
      "inputs": [
        {
          "internalType": "uint256",
          "name": "_index",
          "type": "uint256"
        }
      ],
      "name": "farmGeneratorAtIndex",
      "outputs": [
        {
          "internalType": "address",
          "name": "",
          "type": "address"
        }
      ],
      "stateMutability": "view",
      "type": "function"
    },
    {
      "inputs": [],
      "name": "farmGeneratorsLength",
      "outputs": [
        {
          "internalType": "uint256",
          "name": "",
          "type": "uint256"
        }
      ],
      "stateMutability": "view",
      "type": "function"
    },
    {
      "inputs": [],
      "name": "farmsLength",
      "outputs": [
        {
          "internalType": "uint256",
          "name": "",
          "type": "uint256"
        }
      ],
      "stateMutability": "view",
      "type": "function"
    },
    {
      "inputs": [],
      "name": "owner",
      "outputs": [
        {
          "internalType": "address",
          "name": "",
          "type": "address"
        }
      ],
      "stateMutability": "view",
      "type": "function"
    },
    {
      "inputs": [
        {
          "internalType": "address",
          "name": "_farmAddress",
          "type": "address"
        }
      ],
      "name": "registerFarm",
      "outputs": [],
      "stateMutability": "nonpayable",
      "type": "function"
    },
    {
      "inputs": [],
      "name": "renounceOwnership",
      "outputs": [],
      "stateMutability": "nonpayable",
      "type": "function"
    },
    {
      "inputs": [
        {
          "internalType": "address",
          "name": "newOwner",
          "type": "address"
        }
      ],
      "name": "transferOwnership",
      "outputs": [],
      "stateMutability": "nonpayable",
      "type": "function"
    },
    {
      "inputs": [
        {
          "internalType": "address",
          "name": "_user",
          "type": "address"
        }
      ],
      "name": "userEnteredFarm",
      "outputs": [],
      "stateMutability": "nonpayable",
      "type": "function"
    },
    {
      "inputs": [
        {
          "internalType": "address",
          "name": "_user",
          "type": "address"
        },
        {
          "internalType": "uint256",
          "name": "_index",
          "type": "uint256"
        }
      ],
      "name": "userFarmAtIndex",
      "outputs": [
        {
          "internalType": "address",
          "name": "",
          "type": "address"
        }
      ],
      "stateMutability": "view",
      "type": "function"
    },
    {
      "inputs": [
        {
          "internalType": "address",
          "name": "_user",
          "type": "address"
        }
      ],
      "name": "userFarmsLength",
      "outputs": [
        {
          "internalType": "uint256",
          "name": "",
          "type": "uint256"
        }
      ],
      "stateMutability": "view",
      "type": "function"
    },
    {
      "inputs": [
        {
          "internalType": "address",
          "name": "_user",
          "type": "address"
        }
      ],
      "name": "userLeftFarm",
      "outputs": [],
      "stateMutability": "nonpayable",
      "type": "function"
    }
  ],
  "bytecode": "0x608060405234801561001057600080fd5b5061002d61002261003260201b60201c565b61003a60201b60201c565b6100fe565b600033905090565b60008060009054906101000a900473ffffffffffffffffffffffffffffffffffffffff169050816000806101000a81548173ffffffffffffffffffffffffffffffffffffffff021916908373ffffffffffffffffffffffffffffffffffffffff1602179055508173ffffffffffffffffffffffffffffffffffffffff168173ffffffffffffffffffffffffffffffffffffffff167f8be0079c531659141344cd1fd0a4f28419497f9722a3daafe3b4186f6b6457e060405160405180910390a35050565b610ebc8061010d6000396000f3fe608060405234801561001057600080fd5b50600436106100cf5760003560e01c80638da5cb5b1161008c578063b12f1cd211610066578063b12f1cd214610210578063edcd5d171461022e578063f2fde38b1461024a578063f378d1d414610266576100cf565b80638da5cb5b146101a6578063947b8bbf146101c4578063af026842146101e0576100cf565b8063191da765146100d457806330e7900d1461010457806349b9b4c514610134578063715018a61461016457806376cb25541461016e57806379cdf99b1461018a575b600080fd5b6100ee60048036038101906100e99190610a86565b610284565b6040516100fb9190610af4565b60405180910390f35b61011e60048036038101906101199190610b3b565b6102a1565b60405161012b9190610af4565b60405180910390f35b61014e60048036038101906101499190610a86565b610301565b60405161015b9190610af4565b60405180910390f35b61016c61031e565b005b61018860048036038101906101839190610b7b565b610332565b005b6101a4600480360381019061019f9190610b7b565b6103e0565b005b6101ae61048e565b6040516101bb9190610af4565b60405180910390f35b6101de60048036038101906101d99190610be0565b6104b7565b005b6101fa60048036038101906101f59190610b7b565b6104f9565b6040516102079190610c2f565b60405180910390f35b61021861054e565b6040516102259190610c2f565b60405180910390f35b61024860048036038101906102439190610b7b565b61055f565b005b610264600480360381019061025f9190610b7b565b6105ca565b005b61026e61064e565b60405161027b9190610c2f565b60405180910390f35b600061029a82600361065f90919063ffffffff16565b9050919050565b600080600560008573ffffffffffffffffffffffffffffffffffffffff1673ffffffffffffffffffffffffffffffffffffffff16815260200190815260200160002090506102f8838261065f90919063ffffffff16565b91505092915050565b600061031782600161065f90919063ffffffff16565b9050919050565b610326610679565b61033060006106f7565b565b6103463360016107bb90919063ffffffff16565b610385576040517f08c379a000000000000000000000000000000000000000000000000000000000815260040161037c90610ca7565b60405180910390fd5b6000600560008373ffffffffffffffffffffffffffffffffffffffff1673ffffffffffffffffffffffffffffffffffffffff16815260200190815260200160002090506103db33826107eb90919063ffffffff16565b505050565b6103f43360016107bb90919063ffffffff16565b610433576040517f08c379a000000000000000000000000000000000000000000000000000000000815260040161042a90610ca7565b60405180910390fd5b6000600560008373ffffffffffffffffffffffffffffffffffffffff1673ffffffffffffffffffffffffffffffffffffffff1681526020019081526020016000209050610489338261081b90919063ffffffff16565b505050565b60008060009054906101000a900473ffffffffffffffffffffffffffffffffffffffff16905090565b6104bf610679565b80156104df576104d982600361081b90919063ffffffff16565b506104f5565b6104f38260036107eb90919063ffffffff16565b505b5050565b600080600560008473ffffffffffffffffffffffffffffffffffffffff1673ffffffffffffffffffffffffffffffffffffffff16815260200190815260200160002090506105468161084b565b915050919050565b600061055a600361084b565b905090565b6105733360036107bb90919063ffffffff16565b6105b2576040517f08c379a00000000000000000000000000000000000000000000000000000000081526004016105a990610ca7565b60405180910390fd5b6105c681600161081b90919063ffffffff16565b5050565b6105d2610679565b600073ffffffffffffffffffffffffffffffffffffffff168173ffffffffffffffffffffffffffffffffffffffff161415610642576040517f08c379a000000000000000000000000000000000000000000000000000000000815260040161063990610d39565b60405180910390fd5b61064b816106f7565b50565b600061065a600161084b565b905090565b600061066e8360000183610860565b60001c905092915050565b61068161088b565b73ffffffffffffffffffffffffffffffffffffffff1661069f61048e565b73ffffffffffffffffffffffffffffffffffffffff16146106f5576040517f08c379a00000000000000000000000000000000000000000000000000000000081526004016106ec90610da5565b60405180910390fd5b565b60008060009054906101000a900473ffffffffffffffffffffffffffffffffffffffff169050816000806101000a81548173ffffffffffffffffffffffffffffffffffffffff021916908373ffffffffffffffffffffffffffffffffffffffff1602179055508173ffffffffffffffffffffffffffffffffffffffff168173ffffffffffffffffffffffffffffffffffffffff167f8be0079c531659141344cd1fd0a4f28419497f9722a3daafe3b4186f6b6457e060405160405180910390a35050565b60006107e3836000018373ffffffffffffffffffffffffffffffffffffffff1660001b610893565b905092915050565b6000610813836000018373ffffffffffffffffffffffffffffffffffffffff1660001b6108b6565b905092915050565b6000610843836000018373ffffffffffffffffffffffffffffffffffffffff1660001b6109ca565b905092915050565b600061085982600001610a3a565b9050919050565b600082600001828154811061087857610877610dc5565b5b9060005260206000200154905092915050565b600033905090565b600080836001016000848152602001908152602001600020541415905092915050565b600080836001016000848152602001908152602001600020549050600081146109be5760006001826108e89190610e23565b90506000600186600001805490506109009190610e23565b905081811461096f57600086600001828154811061092157610920610dc5565b5b906000526020600020015490508087600001848154811061094557610944610dc5565b5b90600052602060002001819055508387600101600083815260200190815260200160002081905550505b8560000180548061098357610982610e57565b5b6001900381819060005260206000200160009055905585600101600086815260200190815260200160002060009055600193505050506109c4565b60009150505b92915050565b60006109d68383610893565b610a2f578260000182908060018154018082558091505060019003906000526020600020016000909190919091505582600001805490508360010160008481526020019081526020016000208190555060019050610a34565b600090505b92915050565b600081600001805490509050919050565b600080fd5b6000819050919050565b610a6381610a50565b8114610a6e57600080fd5b50565b600081359050610a8081610a5a565b92915050565b600060208284031215610a9c57610a9b610a4b565b5b6000610aaa84828501610a71565b91505092915050565b600073ffffffffffffffffffffffffffffffffffffffff82169050919050565b6000610ade82610ab3565b9050919050565b610aee81610ad3565b82525050565b6000602082019050610b096000830184610ae5565b92915050565b610b1881610ad3565b8114610b2357600080fd5b50565b600081359050610b3581610b0f565b92915050565b60008060408385031215610b5257610b51610a4b565b5b6000610b6085828601610b26565b9250506020610b7185828601610a71565b9150509250929050565b600060208284031215610b9157610b90610a4b565b5b6000610b9f84828501610b26565b91505092915050565b60008115159050919050565b610bbd81610ba8565b8114610bc857600080fd5b50565b600081359050610bda81610bb4565b92915050565b60008060408385031215610bf757610bf6610a4b565b5b6000610c0585828601610b26565b9250506020610c1685828601610bcb565b9150509250929050565b610c2981610a50565b82525050565b6000602082019050610c446000830184610c20565b92915050565b600082825260208201905092915050565b7f464f5242494444454e0000000000000000000000000000000000000000000000600082015250565b6000610c91600983610c4a565b9150610c9c82610c5b565b602082019050919050565b60006020820190508181036000830152610cc081610c84565b9050919050565b7f4f776e61626c653a206e6577206f776e657220697320746865207a65726f206160008201527f6464726573730000000000000000000000000000000000000000000000000000602082015250565b6000610d23602683610c4a565b9150610d2e82610cc7565b604082019050919050565b60006020820190508181036000830152610d5281610d16565b9050919050565b7f4f776e61626c653a2063616c6c6572206973206e6f7420746865206f776e6572600082015250565b6000610d8f602083610c4a565b9150610d9a82610d59565b602082019050919050565b60006020820190508181036000830152610dbe81610d82565b9050919050565b7f4e487b7100000000000000000000000000000000000000000000000000000000600052603260045260246000fd5b7f4e487b7100000000000000000000000000000000000000000000000000000000600052601160045260246000fd5b6000610e2e82610a50565b9150610e3983610a50565b925082821015610e4c57610e4b610df4565b5b828203905092915050565b7f4e487b7100000000000000000000000000000000000000000000000000000000600052603160045260246000fdfea2646970667358221220a9d939d0a30f0fc3f8b7d1130d63716b4ab8cb153ef22cef48b6e73305753db164736f6c63430008090033",
  "linkReferences": {},
  "deployedLinkReferences": {}
}