{
  "_format": "hh-sol-artifact-1",
  "contractName": "Factory",
  "sourceName": "contracts/Factory.sol",
  "abi": [
    {
      "anonymous": false,
      "inputs": [
        {
          "indexed": true,
          "internalType": "address",
          "name": "previousOwner",
          "type": "address"
        },
        {
          "indexed": true,
          "internalType": "address",
          "name": "newOwner",
          "type": "address"
        }
      ],
      "name": "OwnershipTransferred",
      "type": "event"
    },
    {
      "inputs": [
        {
          "internalType": "address",
          "name": "_address",
          "type": "address"
        },
        {
          "internalType": "bool",
          "name": "_allow",
          "type": "bool"
        }
      ],
      "name": "adminAllowFarmGenerator",
      "outputs": [],
      "stateMutability": "nonpayable",
      "type": "function"
    },
    {
      "inputs": [
        {
          "internalType": "uint256",
          "name": "_index",
          "type": "uint256"
        }
      ],
      "name": "farmAtIndex",
      "outputs": [
        {
          "internalType": "address",
          "name": "",
          "type": "address"
        }
      ],
      "stateMutability": "view",
      "type": "function"
    },
    {
      "inputs": [
        {
          "internalType": "uint256",
          "name": "_index",
          "type": "uint256"
        }
      ],
      "name": "farmGeneratorAtIndex",
      "outputs": [
        {
          "internalType": "address",
          "name": "",
          "type": "address"
        }
      ],
      "stateMutability": "view",
      "type": "function"
    },
    {
      "inputs": [],
      "name": "farmGeneratorsLength",
      "outputs": [
        {
          "internalType": "uint256",
          "name": "",
          "type": "uint256"
        }
      ],
      "stateMutability": "view",
      "type": "function"
    },
    {
      "inputs": [],
      "name": "farmsLength",
      "outputs": [
        {
          "internalType": "uint256",
          "name": "",
          "type": "uint256"
        }
      ],
      "stateMutability": "view",
      "type": "function"
    },
    {
      "inputs": [],
      "name": "owner",
      "outputs": [
        {
          "internalType": "address",
          "name": "",
          "type": "address"
        }
      ],
      "stateMutability": "view",
      "type": "function"
    },
    {
      "inputs": [
        {
          "internalType": "address",
          "name": "_farmAddress",
          "type": "address"
        }
      ],
      "name": "registerFarm",
      "outputs": [],
      "stateMutability": "nonpayable",
      "type": "function"
    },
    {
      "inputs": [],
      "name": "renounceOwnership",
      "outputs": [],
      "stateMutability": "nonpayable",
      "type": "function"
    },
    {
      "inputs": [
        {
          "internalType": "address",
          "name": "newOwner",
          "type": "address"
        }
      ],
      "name": "transferOwnership",
      "outputs": [],
      "stateMutability": "nonpayable",
      "type": "function"
    },
    {
      "inputs": [
        {
          "internalType": "address",
          "name": "_user",
          "type": "address"
        }
      ],
      "name": "userEnteredFarm",
      "outputs": [],
      "stateMutability": "nonpayable",
      "type": "function"
    },
    {
      "inputs": [
        {
          "internalType": "address",
          "name": "_user",
          "type": "address"
        },
        {
          "internalType": "uint256",
          "name": "_index",
          "type": "uint256"
        }
      ],
      "name": "userFarmAtIndex",
      "outputs": [
        {
          "internalType": "address",
          "name": "",
          "type": "address"
        }
      ],
      "stateMutability": "view",
      "type": "function"
    },
    {
      "inputs": [
        {
          "internalType": "address",
          "name": "_user",
          "type": "address"
        }
      ],
      "name": "userFarmsLength",
      "outputs": [
        {
          "internalType": "uint256",
          "name": "",
          "type": "uint256"
        }
      ],
      "stateMutability": "view",
      "type": "function"
    },
    {
      "inputs": [
        {
          "internalType": "address",
          "name": "_user",
          "type": "address"
        }
      ],
      "name": "userLeftFarm",
      "outputs": [],
      "stateMutability": "nonpayable",
      "type": "function"
    }
  ],
  "bytecode": "0x608060405234801561001057600080fd5b5061001a3361001f565b61006f565b600080546001600160a01b038381166001600160a01b0319831681178455604051919092169283917f8be0079c531659141344cd1fd0a4f28419497f9722a3daafe3b4186f6b6457e09190a35050565b6107c38061007e6000396000f3fe608060405234801561001057600080fd5b50600436106100cf5760003560e01c80638da5cb5b1161008c578063b12f1cd211610066578063b12f1cd21461019f578063edcd5d17146101a7578063f2fde38b146101ba578063f378d1d4146101cd57600080fd5b80638da5cb5b1461015a578063947b8bbf1461016b578063af0268421461017e57600080fd5b8063191da765146100d457806330e7900d1461010457806349b9b4c514610117578063715018a61461012a57806376cb25541461013457806379cdf99b14610147575b600080fd5b6100e76100e2366004610663565b6101d5565b6040516001600160a01b0390911681526020015b60405180910390f35b6100e7610112366004610698565b6101e8565b6100e7610125366004610663565b610212565b61013261021f565b005b6101326101423660046106c2565b610233565b6101326101553660046106c2565b61028a565b6000546001600160a01b03166100e7565b6101326101793660046106dd565b6102d3565b61019161018c3660046106c2565b6102fb565b6040519081526020016100fb565b610191610323565b6101326101b53660046106c2565b610334565b6101326101c83660046106c2565b610366565b6101916103df565b60006101e26003836103eb565b92915050565b6001600160a01b038216600090815260056020526040812061020a81846103eb565b949350505050565b60006101e26001836103eb565b6102276103f7565b6102316000610451565b565b61023e6001336104a1565b6102635760405162461bcd60e51b815260040161025a90610719565b60405180910390fd5b6001600160a01b038116600090815260056020526040902061028581336104c3565b505050565b6102956001336104a1565b6102b15760405162461bcd60e51b815260040161025a90610719565b6001600160a01b038116600090815260056020526040902061028581336104d8565b6102db6103f7565b80156102ec576102856003836104d8565b6102856003836104c3565b5050565b6001600160a01b038116600090815260056020526040812061031c816104ed565b9392505050565b600061032f60036104ed565b905090565b61033f6003336104a1565b61035b5760405162461bcd60e51b815260040161025a90610719565b6102f76001826104d8565b61036e6103f7565b6001600160a01b0381166103d35760405162461bcd60e51b815260206004820152602660248201527f4f776e61626c653a206e6577206f776e657220697320746865207a65726f206160448201526564647265737360d01b606482015260840161025a565b6103dc81610451565b50565b600061032f60016104ed565b600061031c83836104f7565b6000546001600160a01b031633146102315760405162461bcd60e51b815260206004820181905260248201527f4f776e61626c653a2063616c6c6572206973206e6f7420746865206f776e6572604482015260640161025a565b600080546001600160a01b038381166001600160a01b0319831681178455604051919092169283917f8be0079c531659141344cd1fd0a4f28419497f9722a3daafe3b4186f6b6457e09190a35050565b6001600160a01b0381166000908152600183016020526040812054151561031c565b600061031c836001600160a01b038416610521565b600061031c836001600160a01b038416610614565b60006101e2825490565b600082600001828154811061050e5761050e61073c565b9060005260206000200154905092915050565b6000818152600183016020526040812054801561060a576000610545600183610752565b855490915060009061055990600190610752565b90508181146105be5760008660000182815481106105795761057961073c565b906000526020600020015490508087600001848154811061059c5761059c61073c565b6000918252602080832090910192909255918252600188019052604090208390555b85548690806105cf576105cf610777565b6001900381819060005260206000200160009055905585600101600086815260200190815260200160002060009055600193505050506101e2565b60009150506101e2565b600081815260018301602052604081205461065b575081546001818101845560008481526020808220909301849055845484825282860190935260409020919091556101e2565b5060006101e2565b60006020828403121561067557600080fd5b5035919050565b80356001600160a01b038116811461069357600080fd5b919050565b600080604083850312156106ab57600080fd5b6106b48361067c565b946020939093013593505050565b6000602082840312156106d457600080fd5b61031c8261067c565b600080604083850312156106f057600080fd5b6106f98361067c565b91506020830135801515811461070e57600080fd5b809150509250929050565b6020808252600990820152682327a92124a22222a760b91b604082015260600190565b634e487b7160e01b600052603260045260246000fd5b60008282101561077257634e487b7160e01b600052601160045260246000fd5b500390565b634e487b7160e01b600052603160045260246000fdfea2646970667358221220184451ba28311a786a3e8d28fe5aa6677bdaa5ea9a58c048f69a68e4073b5d6c64736f6c63430008090033",
  "linkReferences": {},
  "deployedLinkReferences": {}
}